{
  "_format": "hh-sol-artifact-1",
  "contractName": "DummyReward",
  "sourceName": "contracts/test/DummyReward.sol",
  "abi": [
    {
      "anonymous": false,
      "inputs": [
        {
          "indexed": true,
          "internalType": "uint256",
          "name": "pricingIndex",
          "type": "uint256"
        },
        {
          "indexed": true,
          "internalType": "address",
          "name": "beneficiary",
          "type": "address"
        },
        {
          "indexed": false,
          "internalType": "uint256",
          "name": "amount",
          "type": "uint256"
        }
      ],
      "name": "DistributeReward",
      "type": "event"
    },
    {
      "inputs": [
        {
          "internalType": "uint256",
          "name": "pricingIndex",
          "type": "uint256"
        },
        {
          "internalType": "address payable",
          "name": "beneficiary",
          "type": "address"
        },
        {
          "internalType": "bytes32",
          "name": "minerId",
          "type": "bytes32"
        }
      ],
      "name": "claimMineReward",
      "outputs": [],
      "stateMutability": "nonpayable",
      "type": "function"
    },
    {
      "inputs": [
        {
          "internalType": "uint256",
          "name": "beforeLength",
          "type": "uint256"
        },
        {
          "internalType": "uint256",
          "name": "uploadSectors",
          "type": "uint256"
        }
      ],
      "name": "fillReward",
      "outputs": [],
      "stateMutability": "payable",
      "type": "function"
    }
  ],
  "bytecode": "0x608060405234801561001057600080fd5b5060f18061001f6000396000f3fe60806040526004361060265760003560e01c806359e9670014602b578063b7a3c04c14603c575b600080fd5b603a60363660046058565b5050565b005b348015604757600080fd5b50603a60533660046079565b505050565b60008060408385031215606a57600080fd5b50508035926020909101359150565b600080600060608486031215608d57600080fd5b8335925060208401356001600160a01b038116811460aa57600080fd5b92959294505050604091909101359056fea2646970667358221220d2f22ec6a41724281bad8a768c241562927a5fcc8ba600f3b3784f584a68c65864736f6c63430008100033",
  "linkReferences": {},
  "deployedLinkReferences": {}
}