{
  "_format": "hh-sol-artifact-1",
  "contractName": "DummyMarket",
  "sourceName": "contracts/test/DummyMarket.sol",
  "abi": [
    {
      "inputs": [
        {
          "internalType": "uint256",
          "name": "beforeLength",
          "type": "uint256"
        },
        {
          "internalType": "uint256",
          "name": "uploadSectors",
          "type": "uint256"
        },
        {
          "internalType": "uint256",
          "name": "paddingSectors",
          "type": "uint256"
        }
      ],
      "name": "chargeFee",
      "outputs": [],
      "stateMutability": "nonpayable",
      "type": "function"
    },
    {
      "inputs": [],
      "name": "pricePerSector",
      "outputs": [
        {
          "internalType": "uint256",
          "name": "",
          "type": "uint256"
        }
      ],
      "stateMutability": "pure",
      "type": "function"
    }
  ],
  "bytecode": "0x608060405234801561001057600080fd5b5060be8061001f6000396000f3fe6080604052348015600f57600080fd5b506004361060325760003560e01c806361ec5082146037578063da6eb36a14604b575b600080fd5b600060405190815260200160405180910390f35b605b6056366004605d565b505050565b005b600080600060608486031215607157600080fd5b50508135936020830135935060409092013591905056fea264697066735822122046b53f2984cbf5adf3e9850bdbd978b04bf2673faae23f82bb65f6ed17a8ca6164736f6c63430008100033",
  "linkReferences": {},
  "deployedLinkReferences": {}
}