{
  "_format": "hh-sol-artifact-1",
  "contractName": "FixedPriceFlow",
  "sourceName": "contracts/dataFlow/FixedPriceFlow.sol",
  "abi": [
    {
      "inputs": [
        {
          "internalType": "uint256",
          "name": "blocksPerEpoch_",
          "type": "uint256"
        },
        {
          "internalType": "uint256",
          "name": "deployDelay_",
          "type": "uint256"
        }
      ],
      "stateMutability": "nonpayable",
      "type": "constructor"
    },
    {
      "inputs": [],
      "name": "InvalidSubmission",
      "type": "error"
    },
    {
      "inputs": [
        {
          "internalType": "uint256",
          "name": "price",
          "type": "uint256"
        },
        {
          "internalType": "uint256",
          "name": "amount",
          "type": "uint256"
        },
        {
          "internalType": "uint256",
          "name": "paid",
          "type": "uint256"
        }
      ],
      "name": "NotEnoughFee",
      "type": "error"
    },
    {
      "anonymous": false,
      "inputs": [
        {
          "indexed": true,
          "internalType": "address",
          "name": "sender",
          "type": "address"
        },
        {
          "indexed": true,
          "internalType": "uint256",
          "name": "index",
          "type": "uint256"
        },
        {
          "indexed": false,
          "internalType": "bytes32",
          "name": "startMerkleRoot",
          "type": "bytes32"
        },
        {
          "indexed": false,
          "internalType": "uint256",
          "name": "submissionIndex",
          "type": "uint256"
        },
        {
          "indexed": false,
          "internalType": "uint256",
          "name": "flowLength",
          "type": "uint256"
        },
        {
          "indexed": false,
          "internalType": "bytes32",
          "name": "context",
          "type": "bytes32"
        }
      ],
      "name": "NewEpoch",
      "type": "event"
    },
    {
      "anonymous": false,
      "inputs": [
        {
          "indexed": false,
          "internalType": "address",
          "name": "account",
          "type": "address"
        }
      ],
      "name": "Paused",
      "type": "event"
    },
    {
      "anonymous": false,
      "inputs": [
        {
          "indexed": true,
          "internalType": "bytes32",
          "name": "role",
          "type": "bytes32"
        },
        {
          "indexed": true,
          "internalType": "bytes32",
          "name": "previousAdminRole",
          "type": "bytes32"
        },
        {
          "indexed": true,
          "internalType": "bytes32",
          "name": "newAdminRole",
          "type": "bytes32"
        }
      ],
      "name": "RoleAdminChanged",
      "type": "event"
    },
    {
      "anonymous": false,
      "inputs": [
        {
          "indexed": true,
          "internalType": "bytes32",
          "name": "role",
          "type": "bytes32"
        },
        {
          "indexed": true,
          "internalType": "address",
          "name": "account",
          "type": "address"
        },
        {
          "indexed": true,
          "internalType": "address",
          "name": "sender",
          "type": "address"
        }
      ],
      "name": "RoleGranted",
      "type": "event"
    },
    {
      "anonymous": false,
      "inputs": [
        {
          "indexed": true,
          "internalType": "bytes32",
          "name": "role",
          "type": "bytes32"
        },
        {
          "indexed": true,
          "internalType": "address",
          "name": "account",
          "type": "address"
        },
        {
          "indexed": true,
          "internalType": "address",
          "name": "sender",
          "type": "address"
        }
      ],
      "name": "RoleRevoked",
      "type": "event"
    },
    {
      "anonymous": false,
      "inputs": [
        {
          "indexed": true,
          "internalType": "address",
          "name": "sender",
          "type": "address"
        },
        {
          "indexed": true,
          "internalType": "bytes32",
          "name": "identity",
          "type": "bytes32"
        },
        {
          "indexed": false,
          "internalType": "uint256",
          "name": "submissionIndex",
          "type": "uint256"
        },
        {
          "indexed": false,
          "internalType": "uint256",
          "name": "startPos",
          "type": "uint256"
        },
        {
          "indexed": false,
          "internalType": "uint256",
          "name": "length",
          "type": "uint256"
        },
        {
          "components": [
            {
              "internalType": "uint256",
              "name": "length",
              "type": "uint256"
            },
            {
              "internalType": "bytes",
              "name": "tags",
              "type": "bytes"
            },
            {
              "components": [
                {
                  "internalType": "bytes32",
                  "name": "root",
                  "type": "bytes32"
                },
                {
                  "internalType": "uint256",
                  "name": "height",
                  "type": "uint256"
                }
              ],
              "internalType": "struct SubmissionNode[]",
              "name": "nodes",
              "type": "tuple[]"
            }
          ],
          "indexed": false,
          "internalType": "struct Submission",
          "name": "submission",
          "type": "tuple"
        }
      ],
      "name": "Submit",
      "type": "event"
    },
    {
      "anonymous": false,
      "inputs": [
        {
          "indexed": false,
          "internalType": "address",
          "name": "account",
          "type": "address"
        }
      ],
      "name": "Unpaused",
      "type": "event"
    },
    {
      "inputs": [],
      "name": "DEFAULT_ADMIN_ROLE",
      "outputs": [
        {
          "internalType": "bytes32",
          "name": "",
          "type": "bytes32"
        }
      ],
      "stateMutability": "view",
      "type": "function"
    },
    {
      "inputs": [],
      "name": "PAUSER_ROLE",
      "outputs": [
        {
          "internalType": "bytes32",
          "name": "",
          "type": "bytes32"
        }
      ],
      "stateMutability": "view",
      "type": "function"
    },
    {
      "inputs": [
        {
          "components": [
            {
              "internalType": "uint256",
              "name": "length",
              "type": "uint256"
            },
            {
              "internalType": "bytes",
              "name": "tags",
              "type": "bytes"
            },
            {
              "components": [
                {
                  "internalType": "bytes32",
                  "name": "root",
                  "type": "bytes32"
                },
                {
                  "internalType": "uint256",
                  "name": "height",
                  "type": "uint256"
                }
              ],
              "internalType": "struct SubmissionNode[]",
              "name": "nodes",
              "type": "tuple[]"
            }
          ],
          "internalType": "struct Submission[]",
          "name": "submissions",
          "type": "tuple[]"
        }
      ],
      "name": "batchSubmit",
      "outputs": [
        {
          "internalType": "uint256[]",
          "name": "indexes",
          "type": "uint256[]"
        },
        {
          "internalType": "bytes32[]",
          "name": "digests",
          "type": "bytes32[]"
        },
        {
          "internalType": "uint256[]",
          "name": "startIndexes",
          "type": "uint256[]"
        },
        {
          "internalType": "uint256[]",
          "name": "lengths",
          "type": "uint256[]"
        }
      ],
      "stateMutability": "payable",
      "type": "function"
    },
    {
      "inputs": [],
      "name": "blocksPerEpoch",
      "outputs": [
        {
          "internalType": "uint256",
          "name": "",
          "type": "uint256"
        }
      ],
      "stateMutability": "view",
      "type": "function"
    },
    {
      "inputs": [],
      "name": "commitRoot",
      "outputs": [],
      "stateMutability": "nonpayable",
      "type": "function"
    },
    {
      "inputs": [],
      "name": "currentLength",
      "outputs": [
        {
          "internalType": "uint256",
          "name": "",
          "type": "uint256"
        }
      ],
      "stateMutability": "view",
      "type": "function"
    },
    {
      "inputs": [],
      "name": "epoch",
      "outputs": [
        {
          "internalType": "uint256",
          "name": "",
          "type": "uint256"
        }
      ],
      "stateMutability": "view",
      "type": "function"
    },
    {
      "inputs": [],
      "name": "epochStartPosition",
      "outputs": [
        {
          "internalType": "uint256",
          "name": "",
          "type": "uint256"
        }
      ],
      "stateMutability": "view",
      "type": "function"
    },
    {
      "inputs": [],
      "name": "firstBlock",
      "outputs": [
        {
          "internalType": "uint256",
          "name": "",
          "type": "uint256"
        }
      ],
      "stateMutability": "view",
      "type": "function"
    },
    {
      "inputs": [],
      "name": "getContext",
      "outputs": [
        {
          "components": [
            {
              "internalType": "uint256",
              "name": "epoch",
              "type": "uint256"
            },
            {
              "internalType": "uint256",
              "name": "mineStart",
              "type": "uint256"
            },
            {
              "internalType": "bytes32",
              "name": "flowRoot",
              "type": "bytes32"
            },
            {
              "internalType": "uint256",
              "name": "flowLength",
              "type": "uint256"
            },
            {
              "internalType": "bytes32",
              "name": "blockDigest",
              "type": "bytes32"
            },
            {
              "internalType": "bytes32",
              "name": "digest",
              "type": "bytes32"
            }
          ],
          "internalType": "struct MineContext",
          "name": "",
          "type": "tuple"
        }
      ],
      "stateMutability": "view",
      "type": "function"
    },
    {
      "inputs": [
        {
          "internalType": "bytes32",
          "name": "digest",
          "type": "bytes32"
        }
      ],
      "name": "getEpochRange",
      "outputs": [
        {
          "components": [
            {
              "internalType": "uint128",
              "name": "start",
              "type": "uint128"
            },
            {
              "internalType": "uint128",
              "name": "end",
              "type": "uint128"
            }
          ],
          "internalType": "struct EpochRange",
          "name": "",
          "type": "tuple"
        }
      ],
      "stateMutability": "view",
      "type": "function"
    },
    {
      "inputs": [
        {
          "internalType": "bytes32",
          "name": "role",
          "type": "bytes32"
        }
      ],
      "name": "getRoleAdmin",
      "outputs": [
        {
          "internalType": "bytes32",
          "name": "",
          "type": "bytes32"
        }
      ],
      "stateMutability": "view",
      "type": "function"
    },
    {
      "inputs": [
        {
          "internalType": "bytes32",
          "name": "role",
          "type": "bytes32"
        },
        {
          "internalType": "uint256",
          "name": "index",
          "type": "uint256"
        }
      ],
      "name": "getRoleMember",
      "outputs": [
        {
          "internalType": "address",
          "name": "",
          "type": "address"
        }
      ],
      "stateMutability": "view",
      "type": "function"
    },
    {
      "inputs": [
        {
          "internalType": "bytes32",
          "name": "role",
          "type": "bytes32"
        }
      ],
      "name": "getRoleMemberCount",
      "outputs": [
        {
          "internalType": "uint256",
          "name": "",
          "type": "uint256"
        }
      ],
      "stateMutability": "view",
      "type": "function"
    },
    {
      "inputs": [
        {
          "internalType": "bytes32",
          "name": "role",
          "type": "bytes32"
        },
        {
          "internalType": "address",
          "name": "account",
          "type": "address"
        }
      ],
      "name": "grantRole",
      "outputs": [],
      "stateMutability": "nonpayable",
      "type": "function"
    },
    {
      "inputs": [
        {
          "internalType": "bytes32",
          "name": "role",
          "type": "bytes32"
        },
        {
          "internalType": "address",
          "name": "account",
          "type": "address"
        }
      ],
      "name": "hasRole",
      "outputs": [
        {
          "internalType": "bool",
          "name": "",
          "type": "bool"
        }
      ],
      "stateMutability": "view",
      "type": "function"
    },
    {
      "inputs": [
        {
          "internalType": "bytes32",
          "name": "identifier",
          "type": "bytes32"
        }
      ],
      "name": "initialize",
      "outputs": [],
      "stateMutability": "nonpayable",
      "type": "function"
    },
    {
      "inputs": [
        {
          "internalType": "address",
          "name": "market_",
          "type": "address"
        }
      ],
      "name": "initialize",
      "outputs": [],
      "stateMutability": "nonpayable",
      "type": "function"
    },
    {
      "inputs": [],
      "name": "initialized",
      "outputs": [
        {
          "internalType": "bool",
          "name": "",
          "type": "bool"
        }
      ],
      "stateMutability": "view",
      "type": "function"
    },
    {
      "inputs": [],
      "name": "makeContext",
      "outputs": [],
      "stateMutability": "nonpayable",
      "type": "function"
    },
    {
      "inputs": [
        {
          "internalType": "uint256",
          "name": "cnt",
          "type": "uint256"
        }
      ],
      "name": "makeContextFixedTimes",
      "outputs": [],
      "stateMutability": "nonpayable",
      "type": "function"
    },
    {
      "inputs": [],
      "name": "makeContextWithResult",
      "outputs": [
        {
          "components": [
            {
              "internalType": "uint256",
              "name": "epoch",
              "type": "uint256"
            },
            {
              "internalType": "uint256",
              "name": "mineStart",
              "type": "uint256"
            },
            {
              "internalType": "bytes32",
              "name": "flowRoot",
              "type": "bytes32"
            },
            {
              "internalType": "uint256",
              "name": "flowLength",
              "type": "uint256"
            },
            {
              "internalType": "bytes32",
              "name": "blockDigest",
              "type": "bytes32"
            },
            {
              "internalType": "bytes32",
              "name": "digest",
              "type": "bytes32"
            }
          ],
          "internalType": "struct MineContext",
          "name": "",
          "type": "tuple"
        }
      ],
      "stateMutability": "nonpayable",
      "type": "function"
    },
    {
      "inputs": [],
      "name": "market",
      "outputs": [
        {
          "internalType": "address payable",
          "name": "",
          "type": "address"
        }
      ],
      "stateMutability": "view",
      "type": "function"
    },
    {
      "inputs": [
        {
          "internalType": "uint256",
          "name": "_length",
          "type": "uint256"
        },
        {
          "internalType": "uint256",
          "name": "alignExp",
          "type": "uint256"
        }
      ],
      "name": "nextAlign",
      "outputs": [
        {
          "internalType": "uint256",
          "name": "",
          "type": "uint256"
        }
      ],
      "stateMutability": "pure",
      "type": "function"
    },
    {
      "inputs": [
        {
          "internalType": "uint256",
          "name": "_length",
          "type": "uint256"
        }
      ],
      "name": "nextPow2",
      "outputs": [
        {
          "internalType": "uint256",
          "name": "",
          "type": "uint256"
        }
      ],
      "stateMutability": "pure",
      "type": "function"
    },
    {
      "inputs": [],
      "name": "numSubmissions",
      "outputs": [
        {
          "internalType": "uint256",
          "name": "",
          "type": "uint256"
        }
      ],
      "stateMutability": "view",
      "type": "function"
    },
    {
      "inputs": [],
      "name": "pause",
      "outputs": [],
      "stateMutability": "nonpayable",
      "type": "function"
    },
    {
      "inputs": [],
      "name": "paused",
      "outputs": [
        {
          "internalType": "bool",
          "name": "",
          "type": "bool"
        }
      ],
      "stateMutability": "view",
      "type": "function"
    },
    {
      "inputs": [
        {
          "internalType": "uint128",
          "name": "targetPosition",
          "type": "uint128"
        }
      ],
      "name": "queryContextAtPosition",
      "outputs": [
        {
          "components": [
            {
              "internalType": "uint128",
              "name": "start",
              "type": "uint128"
            },
            {
              "internalType": "uint128",
              "name": "end",
              "type": "uint128"
            },
            {
              "internalType": "bytes32",
              "name": "digest",
              "type": "bytes32"
            }
          ],
          "internalType": "struct EpochRangeWithContextDigest",
          "name": "range",
          "type": "tuple"
        }
      ],
      "stateMutability": "nonpayable",
      "type": "function"
    },
    {
      "inputs": [
        {
          "internalType": "bytes32",
          "name": "role",
          "type": "bytes32"
        },
        {
          "internalType": "address",
          "name": "account",
          "type": "address"
        }
      ],
      "name": "renounceRole",
      "outputs": [],
      "stateMutability": "nonpayable",
      "type": "function"
    },
    {
      "inputs": [
        {
          "internalType": "bytes32",
          "name": "role",
          "type": "bytes32"
        },
        {
          "internalType": "address",
          "name": "account",
          "type": "address"
        }
      ],
      "name": "revokeRole",
      "outputs": [],
      "stateMutability": "nonpayable",
      "type": "function"
    },
    {
      "inputs": [],
      "name": "root",
      "outputs": [
        {
          "internalType": "bytes32",
          "name": "",
          "type": "bytes32"
        }
      ],
      "stateMutability": "view",
      "type": "function"
    },
    {
      "inputs": [],
      "name": "rootHistory",
      "outputs": [
        {
          "internalType": "contract IDigestHistory",
          "name": "",
          "type": "address"
        }
      ],
      "stateMutability": "view",
      "type": "function"
    },
    {
      "inputs": [],
      "name": "submissionIndex",
      "outputs": [
        {
          "internalType": "uint256",
          "name": "",
          "type": "uint256"
        }
      ],
      "stateMutability": "view",
      "type": "function"
    },
    {
      "inputs": [
        {
          "components": [
            {
              "internalType": "uint256",
              "name": "length",
              "type": "uint256"
            },
            {
              "internalType": "bytes",
              "name": "tags",
              "type": "bytes"
            },
            {
              "components": [
                {
                  "internalType": "bytes32",
                  "name": "root",
                  "type": "bytes32"
                },
                {
                  "internalType": "uint256",
                  "name": "height",
                  "type": "uint256"
                }
              ],
              "internalType": "struct SubmissionNode[]",
              "name": "nodes",
              "type": "tuple[]"
            }
          ],
          "internalType": "struct Submission",
          "name": "submission",
          "type": "tuple"
        }
      ],
      "name": "submit",
      "outputs": [
        {
          "internalType": "uint256",
          "name": "",
          "type": "uint256"
        },
        {
          "internalType": "bytes32",
          "name": "",
          "type": "bytes32"
        },
        {
          "internalType": "uint256",
          "name": "",
          "type": "uint256"
        },
        {
          "internalType": "uint256",
          "name": "",
          "type": "uint256"
        }
      ],
      "stateMutability": "payable",
      "type": "function"
    },
    {
      "inputs": [
        {
          "internalType": "bytes4",
          "name": "interfaceId",
          "type": "bytes4"
        }
      ],
      "name": "supportsInterface",
      "outputs": [
        {
          "internalType": "bool",
          "name": "",
          "type": "bool"
        }
      ],
      "stateMutability": "view",
      "type": "function"
    },
    {
      "inputs": [],
      "name": "unpause",
      "outputs": [],
      "stateMutability": "nonpayable",
      "type": "function"
    },
    {
      "inputs": [],
      "name": "unstagedHeight",
      "outputs": [
        {
          "internalType": "uint256",
          "name": "",
          "type": "uint256"
        }
      ],
      "stateMutability": "view",
      "type": "function"
    },
    {
      "inputs": [
        {
          "internalType": "uint256",
          "name": "height",
          "type": "uint256"
        }
      ],
      "name": "zeros",
      "outputs": [
        {
          "internalType": "bytes32",
          "name": "",
          "type": "bytes32"
        }
      ],
      "stateMutability": "pure",
      "type": "function"
    }
  ],
  "bytecode": "0x60e06040523480156200001157600080fd5b506040516200418b3803806200418b8339810160408190526200003491620000b0565b6000805460ff1916905560a0829052604051829082906014906200005890620000a2565b908152602001604051809103906000f0801580156200007b573d6000803e3d6000fd5b506001600160a01b0316608052620000948143620000d5565b60c05250620000fd92505050565b6106708062003b1b83390190565b60008060408385031215620000c457600080fd5b505080516020909101519092909150565b80820180821115620000f757634e487b7160e01b600052601160045260246000fd5b92915050565b60805160a05160c0516139af6200016c600039600081816103190152818161089b01528181610b5b01528181610cf801528181610f5501528181611d7d01528181611f1101526123cf0152600081816107dd0152611ee90152600081816106ca0152611f7801526139af6000f3fe6080604052600436106102305760003560e01c8063900cf0cf1161012e578063c4d66de8116100ab578063e63ab1e91161006f578063e63ab1e914610741578063e829558814610763578063ebf0c71714610783578063ef3e12dc14610798578063f0682054146107cb57600080fd5b8063c4d66de814610698578063c7dd5221146106b8578063ca15c873146106ec578063d34353c91461070c578063d547741f1461072157600080fd5b80639e62a38e116100f25780639e62a38e1461061f578063a217fddf14610642578063a3d35f3614610657578063b464b53e1461066d578063b8a409ac1461068257600080fd5b8063900cf0cf146105935780639010d07c146105a957806391d14854146105c957806393e405a0146105e95780639498bd71146105ff57600080fd5b806336568abe116101bc5780635c975abb116101805780635c975abb1461048a57806377e19824146104a25780637d590708146104b757806380f55605146105465780638456cb591461057e57600080fd5b806336568abe1461040057806338d45e10146104205780633d75d9c2146104355780633f4ba83a14610455578063555430a11461046a57600080fd5b8063231b026811610203578063231b026814610307578063248a9ca3146103495780632f2ff15d1461037a57806331bae1741461039a578063364800ec146103ea57600080fd5b806301ffc9a714610235578063127f0f071461026a578063158ef93e146102cb57806318a641ef146102e5575b600080fd5b34801561024157600080fd5b5061025561025036600461318e565b6107ff565b60405190151581526020015b60405180910390f35b34801561027657600080fd5b5061027f61082a565b6040516102619190600060c082019050825182526020830151602083015260408301516040830152606083015160608301526080830151608083015260a083015160a083015292915050565b3480156102d757600080fd5b506003546102559060ff1681565b3480156102f157600080fd5b506103056103003660046131b8565b610899565b005b34801561031357600080fd5b5061033b7f000000000000000000000000000000000000000000000000000000000000000081565b604051908152602001610261565b34801561035557600080fd5b5061033b6103643660046131b8565b6000908152600160208190526040909120015490565b34801561038657600080fd5b506103056103953660046131e8565b610911565b3480156103a657600080fd5b506103ba6103b5366004613214565b61093c565b6040805182516001600160801b039081168252602080850151909116908201529181015190820152606001610261565b3480156103f657600080fd5b5061033b60385481565b34801561040c57600080fd5b5061030561041b3660046131e8565b610adf565b34801561042c57600080fd5b50610305610b59565b34801561044157600080fd5b5061033b6104503660046131b8565b610ba8565b34801561046157600080fd5b50610305610bf4565b34801561047657600080fd5b5061033b61048536600461323d565b610c14565b34801561049657600080fd5b5060005460ff16610255565b3480156104ae57600080fd5b50606c5461033b565b3480156104c357600080fd5b5061051f6104d23660046131b8565b6040805180820190915260008082526020820152506000908152607560209081526040918290208251808401909352546001600160801b038082168452600160801b909104169082015290565b6040805182516001600160801b039081168252602093840151169281019290925201610261565b34801561055257600080fd5b50606b54610566906001600160a01b031681565b6040516001600160a01b039091168152602001610261565b34801561058a57600080fd5b50610305610c4c565b34801561059f57600080fd5b5061033b606d5481565b3480156105b557600080fd5b506105666105c436600461323d565b610c6c565b3480156105d557600080fd5b506102556105e43660046131e8565b610c84565b3480156105f557600080fd5b5061033b606e5481565b34801561060b57600080fd5b5061030561061a3660046131b8565b610caf565b61063261062d366004613472565b610ce8565b604051610261949392919061355e565b34801561064e57600080fd5b5061033b600081565b34801561066357600080fd5b5061033b60365481565b34801561067957600080fd5b5061027f610f21565b34801561068e57600080fd5b5061033b606c5481565b3480156106a457600080fd5b506103056106b33660046135dd565b610fa8565b3480156106c457600080fd5b506105667f000000000000000000000000000000000000000000000000000000000000000081565b3480156106f857600080fd5b5061033b6107073660046131b8565b610fe1565b34801561071857600080fd5b50610305610ff8565b34801561072d57600080fd5b5061030561073c3660046131e8565b61110f565b34801561074d57600080fd5b5061033b60008051602061395a83398151915281565b34801561076f57600080fd5b5061033b61077e3660046131b8565b611135565b34801561078f57600080fd5b5061033b611d39565b6107ab6107a63660046135f8565b611d6d565b604080519485526020850193909352918301526060820152608001610261565b3480156107d757600080fd5b5061033b7f000000000000000000000000000000000000000000000000000000000000000081565b60006001600160e01b03198216635a05180f60e01b1480610824575061082482611eaf565b92915050565b6040805160c081018252600080825260208201819052918101829052606081018290526080810182905260a0810191909152506040805160c081018252606f5481526070546020820152607154918101919091526072546060820152607354608082015260745460a082015290565b7f00000000000000000000000000000000000000000000000000000000000000004310156108e25760405162461bcd60e51b81526004016108d990613635565b60405180910390fd5b60005b81811161090c576108f4611ee4565b6108fc575050565b61090581613682565b90506108e5565b505b50565b6000828152600160208190526040909120015461092d81612206565b6109378383612210565b505050565b6040805160608101825260008082526020820181905291810191909152610961610b59565b603654826001600160801b0316106109c75760405162461bcd60e51b8152602060048201526024808201527f5175657269656420706f736974696f6e206578636565647320757070657220626044820152631bdd5b9960e21b60648201526084016108d9565b6076546000905b81811115610a9757600060026109e4848461369b565b6109ee91906136c4565b905060768181548110610a0357610a036136d8565b600091825260209182902060408051606081018252600290930290910180546001600160801b038082168552600160801b909104811694840185905260019091015491830191909152909550861610610a6857610a6181600161369b565b9250610a91565b83600001516001600160801b0316856001600160801b031610610a8d57505050919050565b8091505b506109ce565b60405162461bcd60e51b815260206004820152601b60248201527f43616e206e6f742066696e642070726f70657220636f6e74657874000000000060448201526064016108d9565b6001600160a01b0381163314610b4f5760405162461bcd60e51b815260206004820152602f60248201527f416363657373436f6e74726f6c3a2063616e206f6e6c792072656e6f756e636560448201526e103937b632b9903337b91039b2b63360891b60648201526084016108d9565b61090c8282612232565b7f0000000000000000000000000000000000000000000000000000000000000000431015610b995760405162461bcd60e51b81526004016108d990613635565b610ba1611ee4565b610b99575b565b600081808203610bbb5750600092915050565b600181811c909117600281901c17600481901c17600881901c17601081901c17602081901c1790610bed90829061369b565b9392505050565b60008051602061395a833981519152610c0c81612206565b61090e612254565b600082808203610c28576000915050610824565b610c336001826136ee565b831c9050610c4260018261369b565b90921b9392505050565b60008051602061395a833981519152610c6481612206565b61090e6122a6565b6000828152600260205260408120610bed90836122e3565b60009182526001602090815260408084206001600160a01b0393909316845291905290205460ff1690565b60035460ff1615610cd25760405162461bcd60e51b81526004016108d990613701565b6003805460ff1916600117905561090e816122ef565b606080606080610cf661234e565b7f0000000000000000000000000000000000000000000000000000000000000000431015610d365760405162461bcd60e51b81526004016108d990613635565b84518067ffffffffffffffff811115610d5157610d5161325f565b604051908082528060200260200182016040528015610d7a578160200160208202803683370190505b5094508067ffffffffffffffff811115610d9657610d9661325f565b604051908082528060200260200182016040528015610dbf578160200160208202803683370190505b5093508067ffffffffffffffff811115610ddb57610ddb61325f565b604051908082528060200260200182016040528015610e04578160200160208202803683370190505b5092508067ffffffffffffffff811115610e2057610e2061325f565b604051908082528060200260200182016040528015610e49578160200160208202803683370190505b50915060005b81811015610f1857600080600080610e7f8b8681518110610e7257610e726136d8565b6020026020010151611d6d565b9350935093509350838a8681518110610e9a57610e9a6136d8565b60200260200101818152505082898681518110610eb957610eb96136d8565b60200260200101818152505081888681518110610ed857610ed86136d8565b60200260200101818152505080878681518110610ef757610ef76136d8565b6020026020010181815250505050505080610f1190613682565b9050610e4f565b50509193509193565b6040805160c081018252600080825260208201819052918101829052606081018290526080810182905260a08101919091527f0000000000000000000000000000000000000000000000000000000000000000431015610f935760405162461bcd60e51b81526004016108d990613635565b610f9b610b59565b610fa361082a565b905090565b60035460ff1615610fcb5760405162461bcd60e51b81526004016108d990613701565b6003805460ff1916600117905561090e81612394565b600081815260026020526040812061082490612486565b6037546038540361100557565b60378054603854909160009161101d906001906136ee565b8154811061102d5761102d6136d8565b90600052602060002001549050600061104e600160385461077e91906136ee565b6038549091505b83811015611107576040805160208082018690528183018590528251808303840181526060909201909252805191012060365461109690600290841c613743565b6000036110d0578093506110a982611135565b925080603783815481106110bf576110bf6136d8565b6000918252602090912001556110f4565b603782815481106110e3576110e36136d8565b906000526020600020015493508092505b50806110ff81613682565b915050611055565b505050603855565b6000828152600160208190526040909120015461112b81612206565b6109378383612232565b60008160000361116657507fd397b3b043d87fcd6fad1291ff0bfd16401c274896d8c63a923727f077b8e0b5919050565b8160010361119557507ff73e6947d7d1628b9976a6e40d7b278a8a16405e96324a68df45b12a51b7cfde919050565b816002036111c457507fa1520264ae93cac619e22e8718fc4fa7ebdd23f493cad602434d2a58ff4868fb919050565b816003036111f357507fde5747106ac1194a1fa9071dbd6cf19dc2bc7964497ef0afec7e4bdbcf08c47e919050565b8160040361122257507f09c7082879180d28c789c05fafe7030871c76cedbe82c948b165d6a1d66ac15b919050565b8160050361125157507faa7a02bcf29fba687f84123c808b5b48834ff5395abe98e622fadc14e4180c95919050565b8160060361128057507f7608fd46b710b589e0f2ee5a13cd9c41d432858a30d524f84c6d5db37f66273a919050565b816007036112af57507fa5d9a2f7f3573ac9a1366bc484688b4daf934b87ea9b3bf2e703da8fd9f09708919050565b816008036112de57507f6c1779477f4c3fca26b4607398859a43b90a286ce8062500744bd4949981757f919050565b8160090361130d57507f45c22df3d952c33d5edce122eed85e5cda3fd61939e7ad7b3e03b6927bb598ea919050565b81600a0361133c57507fe68d02859bb6211cec64f52368b77d422de3b8eac34bf615942b814b643301b5919050565b81600b0361136b57507f62d78399b954d51cb9728601738ad13ddc43b2300064660716bb661d2f4d686f919050565b81600c0361139a57507f6e250d9abdbbb3993fce08de0395cdb56f0483e67d8762a798de011f6a50866a919050565b81600d036113c957507f1d1a3a74062fd94078617e33eb901eaf16a830f67c387d8eed342db2ac5e2cc5919050565b81600e036113f857507f19b3b3886526917eae8650223d0be20a0301be960eb339696e673ad8a804440f919050565b81600f0361142757507fee9e05df53f10e62a897e5140a3f58732dd849e69cd1d62b21ed80ead711a014919050565b8160100361145657507f2cc7aa6e611a113a34505dc1c96b220f14909b70e2c2c7b1a74655da21013c5e919050565b8160110361148557507f949b52dfece7ca3bad3cb27f7750ecaee64cedb6243a275c35984e92956c530a919050565b816012036114b457507fb2680d060b763b932c150434c3812ba9fbc50937e0ebcf5758de884be81bab65919050565b816013036114e357507f523aebf4a085edbc9c8cdc99c83f46262e5f029b395ff7bf561a48a3f387e6b8919050565b8160140361151257507fc9ab73827ab33c0cedb7ecf0ed2e6e32583c0fe887133a7f381ea4ba84d95b76919050565b8160150361154157507f23eb397dec7e564ebe97f160a5e1081a77d9861f316807079b6be4731beb331e919050565b8160160361157057507fdfa44a274c60f090df034aaf75539fd40e94cfd6362dd53d26ed20c8ad529563919050565b8160170361159f57507f15b13ee358e1044a53381243c094e54bf7aceb9b5325a0313d6b85fd44e8b3a5919050565b816018036115ce57507f1a7a93871e2daa0f1860aa91d4ece4ccd012dac5fe581176a21b155cfeca6d40919050565b816019036115fd57507fb12665fd0b884a7c7d1e0294d369170d7e672d9e125eb87784556305f98292df919050565b81601a0361162c57507f2a5543b0b2f8cf550524390291774f4d6c8c0a25ff5393b09c44d75c92a5bd8e919050565b81601b0361165b57507ff9df1841a6e7164b67a1242f1c74975137085ffd9721831f6c469d3a4d5ba42e919050565b81601c0361168a57507fba24736b1b48246c1f7803be967be43ca0dddc9c2c0687a2957952249bc89371919050565b81601d036116b957507ff3f706b73790c73ca0a8f0460ac3a2a102e280415586b520e70cd5e8264388b4919050565b81601e036116e857507fc1f5a9a9f357e1c37814688cf7290c87a264ed3d6174a12b978da1c586f53825919050565b81601f0361171757507f766f7702e19ce23d426cdad03e4292a5a42c4669420101fed74400ec7cda3ac6919050565b8160200361174657507f070fec213e105b3e4d9b0434ac2fc7ca721d35093dc741fb9419797003e2394a919050565b8160210361177557507f9a7aade05b49e43f5fd3782571cc8c90eadacd5d660b53842b4e5b63d675ae0c919050565b816022036117a457507fb27b35a8236d0f9b6692820429c025ed58ed378dc98d316b762f0c865c68be6f919050565b816023036117d357507fdc567ad38d9b90cc9bea4e0f82ec05eca10b3aa94eddc7b63c4fd20c001bb53b919050565b8160240361180257507fb208dfc457c8b30661ae49544c8e57399818095aab8dd7a426fb8dd56bb8c559919050565b8160250361183157507fc4a72e1ff84f7a22631f3f95c61c392f98f52050360215a9d7e75d79b0bcd2ca919050565b8160260361186057507fbb093ec8c0d7defb1de668b5b5dd4f2619e5cd92d29cc144862364a83ab993a8919050565b8160270361188f57507fe341796f2fe3975012c1e6badfa2e9c4523e43f911dc845082c3f4d7b4ff871d919050565b816028036118be57507f42d356a11a0b39243eca3c3263299cb6f8c3e9728af6d9d8b0ddb6d354f1890d919050565b816029036118ed57507f0ce506e834e3a50a33f80074bc7fa16cf3c0712b36a41b69699177ea25de6c30919050565b81602a0361191c57507fd8fa5bf130aeb7756b1ed09090cc80ed78dae0617978540f0fabd06dfb978938919050565b81602b0361194b57507feed69a20fe36eb604f2153efa3b01c0e143cdf02229a1b8f741c9c2719059eb0919050565b81602c0361197a57507f303c9c566ebf5bfe252796e5c131a99801226152a514688b5ca6883e99031d88919050565b81602d036119a957507fc7c3765ba96cfbccf3ae718393fa89791070cc8cd85f280b6ac46aea10d96042919050565b81602e036119d857507f1ca65b0a2b8034ee6bfb1fa4526832304e393af835c2c42b4dace58048746800919050565b81602f03611a0757507f957add5e02350fd47de3a8e1da38fd774ceb31214d5897ed6315740a83cd634a919050565b81603003611a3657507f787892cb439d5d358870774e163557cf02ec3cb87be6fde11abf1acee14eeaa4919050565b81603103611a6557507f047c0962d4f5c8f60692c587de07739528c4d2059240d61dd34d2a547a438ee6919050565b81603203611a9457507fc18727efc9e4df63020dcd90edc17dfd2ad14f02328c912b13898e0b53735556919050565b81603303611ac357507fe38b9218987e451effe1648c3c9851ad03b64b052a5a3f5ca30f4d7b1ecf7120919050565b81603403611af257507f0e48ecb1a5418e6218289acc8cf723e67ac6eae3ecb80f644336ab4365a2f2b2919050565b81603503611b2157507fd60e66f5b8cd08d71a1a4d7798952a7afa5a6e93a886c587a46a5500ebef4a60919050565b81603603611b5057507f5162aa9c31d9105f689cf6e71e19548bc9f0218b7d0f99ff7fa8bc2f19c68462919050565b81603703611b7f57507f6fa8519b4b0e8fb97a9b618e97627d97b9b9d29d04521fd96472e9c502700568919050565b81603803611bae57507f41f5dcf0cdee270a2ad9a5f8130aaaab94b237463e09757c28b0321f09e24eb0919050565b81603903611bdd57507f87a119239fa90732197108adfd029938b4743874d959d3da79b3a30f4832899e919050565b81603a03611c0c57507f8e96dbaa5c72e84a5297b040ccc1a60750a3201166e3b7740d352837233608a1919050565b81603b03611c3b57507f01605058d167ce967af8c475d2f6c341c3e0b437babf899c9da73a520aa4ecb5919050565b81603c03611c6a57507f04529eb80532c5118949d700d8dfd2aa86850b1c6479b26276b9486784a145ff919050565b81603d03611c9957507fd191814ad13f27361ae20a46cbac8f6e76c10ebe9af0806d6720492ee2f296f0919050565b81603e03611cc857507fa28df63f78821060570da371c0be1312188346b92a7965cc4b980b26c134a4d7919050565b81603f03611cf757507fb48a92d40b61dc995ceecee4cded6415050dcece448b1e0b5e5b6a0e6981f3ef919050565b60405162461bcd60e51b8152602060048201526012602482015271125b99195e081bdd5d081bd988189bdd5b9960721b60448201526064016108d9565b919050565b6037805460009190611d4d906001906136ee565b81548110611d5d57611d5d6136d8565b9060005260206000200154905090565b600080600080611d7b61234e565b7f0000000000000000000000000000000000000000000000000000000000000000431015611dbb5760405162461bcd60e51b81526004016108d990613635565b611dc485612490565b611e055760405162461bcd60e51b815260206004820152601260248201527124b73b30b634b21039bab136b4b9b9b4b7b760711b60448201526064016108d9565b6000611e10866126a7565b9050611e1b81612705565b611e23610b59565b6000611e2e876127f7565b90506000611e3b8861291c565b606c80549192506001906000611e51838561369b565b9250508190555081336001600160a01b03167f167ce04d2aa1981994d3a31695da0d785373335b1078cec239a1a3a2c76755558386888e604051611e9894939291906137e2565b60405180910390a396509450925090509193509193565b60006001600160e01b03198216637965db0b60e01b148061082457506301ffc9a760e01b6001600160e01b0319831614610824565b6000807f0000000000000000000000000000000000000000000000000000000000000000606d54600101027f0000000000000000000000000000000000000000000000000000000000000000019050438110611f4257600091505090565b611f4a610ff8565b6000611f54611d39565b604051632d287e4360e01b8152600481018290529091506000906001600160a01b037f00000000000000000000000000000000000000000000000000000000000000001690632d287e43906024016020604051808303816000875af1158015611fc1573d6000803e3d6000fd5b505050506040513d601f19601f82011682018060405250810190611fe59190613843565b9050606d548114611ff857611ff861385c565b600080436120088661010061369b565b101561203857507fc5d2460186f7233c927e7db2dcc703c0e500b653ca82273b7bfad8045d85a470905080612147565b506036546040805186406020820181905291810186905260608101929092529060800160408051808303601f190181528282528051602091820120606e80546036805487870187526001600160801b039283168089529083168689018181526000878152607589528981209a519151918616600160801b928716830217909a558851606081018a529283529682019081529681018581526076805460018101825599529051965196831696909216909402949094177fb5732705f5241370a28908c2fe1303cb223f03b90d857fd0573f003f79fefed460029096029586015592517fb5732705f5241370a28908c2fe1303cb223f03b90d857fd0573f003f79fefed59094019390935554905591505b6001606d600082825461215a919061369b565b90915550506040805160c081018252606d5480825260208083018990528284018890526036546060808501829052608080860188905260a0909501889052606f84905560708b905560718a9055607282905560738790556074889055606c5486518b815293840152948201529283018590529133917fbc8a3fd82465d43f1709e44ed882f7e1af0147274196ef1ec009f5d52ff4e993910160405180910390a360019550505050505090565b61090e8133612950565b61221a82826129a9565b60008281526002602052604090206109379082612a14565b61223c8282612a29565b60008281526002602052604090206109379082612a90565b61225c612aa5565b6000805460ff191690557f5db9ee0a495bf2e6ff9c91a7834c1ba4fdd244a5e8aa4e537bd38aeae4b073aa335b6040516001600160a01b03909116815260200160405180910390a1565b6122ae61234e565b6000805460ff191660011790557f62e78cea01bee320cd4e420270b5ea74000d11b0c9f74754ebdbfc544b05a2586122893390565b6000610bed8383612aee565b600160365560408051600081526020810191829052516123119160379161312e565b5060378054600181810183556000929092527f42a7b7dd785cd69714a189dffb3fd7d7174edc9ece837694ce50f7078f7c31ae0191909155603855565b60005460ff1615610ba65760405162461bcd60e51b815260206004820152601060248201526f14185d5cd8589b194e881c185d5cd95960821b60448201526064016108d9565b61239e60006122ef565b606b80546001600160a01b0319166001600160a01b0383161790556000606d8190556040805160c0810182529182527f0000000000000000000000000000000000000000000000000000000000000000602083015281016123fd611d39565b815260016020808301919091527fc5d2460186f7233c927e7db2dcc703c0e500b653ca82273b7bfad8045d85a47060408084018290526060938401919091528351606f5590830151607055820151607155810151607255608081015160735560a0015160745561246e600033612b18565b61090e60008051602061395a83398151915233612b18565b6000610824825490565b60008160400151516000036124a757506000919050565b60408201518051600491906124be906001906136ee565b815181106124ce576124ce6136d8565b60200260200101516020015183604001516000815181106124f1576124f16136d8565b60200260200101516020015161250791906136ee565b1061251457506000919050565b6040826040015160008151811061252d5761252d6136d8565b6020026020010151602001511061254657506000919050565b60005b600183604001515161255b91906136ee565b8110156125d25782604001518181518110612578576125786136d8565b6020026020010151602001518360400151826001612596919061369b565b815181106125a6576125a66136d8565b602002602001015160200151106125c05750600092915050565b806125ca81613682565b915050612549565b5060006125de836126a7565b90506125ec61010082613872565b835111156125fd5750600092915050565b6000601082101561261a576126136001836136ee565b9050612680565b83604001515160010361263557612613600483901c836136ee565b6004846040015160008151811061264e5761264e6136d8565b60200260200101516020015161266491906136ee565b61266f90600161369b565b61267d906001901b836136ee565b90505b61268c61010082613872565b84511161269d575060009392505050565b5060019392505050565b600080805b8360400151518110156126fe57836040015181815181106126cf576126cf6136d8565b6020026020010151602001516001901b826126ea919061369b565b9150806126f681613682565b9150506126ac565b5092915050565b606b54604080516330f6284160e11b815290516000926001600160a01b0316916361ec50829160048083019260209291908290030181865afa15801561274f573d6000803e3d6000fd5b505050506040513d601f19601f820116820180604052508101906127739190613843565b905060006127818284613872565b905047478211156127b657604051637c2e324160e11b81526004810184905260248101859052604481018290526064016108d9565b606b546040516001600160a01b039091169083156108fc029084906000818181858888f193505050501580156127f0573d6000803e3d6000fd5b5050505050565b603654600090815b83604001515181101561288857600084604001518281518110612824576128246136d8565b602002602001015160000151905060008560400151838151811061284a5761284a6136d8565b602002602001015160200151905060006128648383612b22565b905083600003612872578095505b505050808061288090613682565b9150506127ff565b50600061289582846136ee565b90506000836036546128a791906136ee565b606b54604051636d3759b560e11b81526004810186905260248101839052604481018590529192506001600160a01b03169063da6eb36a90606401600060405180830381600087803b1580156128fc57600080fd5b505af1158015612910573d6000803e3d6000fd5b50505050505050919050565b600081604001516040516020016129339190613891565b604051602081830303815290604052805190602001209050919050565b61295a8282610c84565b61090c5761296781612c92565b612972836020612ca4565b6040516020016129839291906138a4565b60408051601f198184030181529082905262461bcd60e51b82526108d991600401613919565b6129b38282610c84565b61090c5760008281526001602081815260408084206001600160a01b0386168086529252808420805460ff19169093179092559051339285917f2f8788117e7eff1d82e926ec794901d17c78024a50270940304540a733656f0d9190a45050565b6000610bed836001600160a01b038416612e40565b612a338282610c84565b1561090c5760008281526001602090815260408083206001600160a01b0385168085529252808320805460ff1916905551339285917ff6391f5c32d9c69d2a47ea670b442974b53935d1edc7fd64eb21e047a839171b9190a45050565b6000610bed836001600160a01b038416612e8f565b60005460ff16610ba65760405162461bcd60e51b815260206004820152601460248201527314185d5cd8589b194e881b9bdd081c185d5cd95960621b60448201526064016108d9565b6000826000018281548110612b0557612b056136d8565b9060005260206000200154905092915050565b61090c8282612210565b600080612b3160365484610c14565b90506000612b426001851b8361369b565b603754909150612b54906001906136ee565b6001901b811115612b9d57612b67610ff8565b612b6f612f82565b603754612b7e906001906136ee565b6001901b811115612b9657612b91612f82565b612b6f565b6037546038555b603754612ba985613010565b60008087875b84811015612c7457612bc4600288831c613743565b600003612c0a578160378281548110612bdf57612bdf6136d8565b600091825260209091200155612bf681600161369b565b603855612c046001866136ee565b50612c74565b60378181548110612c1d57612c1d6136d8565b906000526020600020015493508192508383604051602001612c49929190918252602082015260400190565b6040516020818303038152906040528051906020012091508080612c6c90613682565b915050612baf565b50612c826001891b8761369b565b6036555093979650505050505050565b60606108246001600160a01b03831660145b60606000612cb3836002613872565b612cbe90600261369b565b67ffffffffffffffff811115612cd657612cd661325f565b6040519080825280601f01601f191660200182016040528015612d00576020820181803683370190505b509050600360fc1b81600081518110612d1b57612d1b6136d8565b60200101906001600160f81b031916908160001a905350600f60fb1b81600181518110612d4a57612d4a6136d8565b60200101906001600160f81b031916908160001a9053506000612d6e846002613872565b612d7990600161369b565b90505b6001811115612df1576f181899199a1a9b1b9c1cb0b131b232b360811b85600f1660108110612dad57612dad6136d8565b1a60f81b828281518110612dc357612dc36136d8565b60200101906001600160f81b031916908160001a90535060049490941c93612dea8161392c565b9050612d7c565b508315610bed5760405162461bcd60e51b815260206004820181905260248201527f537472696e67733a20686578206c656e67746820696e73756666696369656e7460448201526064016108d9565b6000818152600183016020526040812054612e8757508154600181810184556000848152602080822090930184905584548482528286019093526040902091909155610824565b506000610824565b60008181526001830160205260408120548015612f78576000612eb36001836136ee565b8554909150600090612ec7906001906136ee565b9050818114612f2c576000866000018281548110612ee757612ee76136d8565b9060005260206000200154905080876000018481548110612f0a57612f0a6136d8565b6000918252602080832090910192909255918252600188019052604090208390555b8554869080612f3d57612f3d613943565b600190038181906000526020600020016000905590558560010160008681526020019081526020016000206000905560019350505050610824565b6000915050610824565b6037805490600090612f956001846136ee565b81548110612fa557612fa56136d8565b60009182526020822001549150612fc061077e6001856136ee565b905060378282604051602001612fe0929190918252602082015260400190565b60408051601f19818403018152919052805160209182012082546001810184556000938452919092200155505050565b80603854111561301d5750565b603780546038549091600091613035906001906136ee565b81548110613045576130456136d8565b906000526020600020015490506000613066600160385461077e91906136ee565b6038549091505b838110156127f057604080516020808201869052818301859052825180830384018152606090920190925280519101206036546130ae90600290841c613743565b6000036130f7578093506130c182611135565b92508582106130f25780603783815481106130de576130de6136d8565b600091825260209091200155505050505050565b61311b565b6037828154811061310a5761310a6136d8565b906000526020600020015493508092505b508061312681613682565b91505061306d565b828054828255906000526020600020908101928215613169579160200282015b8281111561316957825182559160200191906001019061314e565b50613175929150613179565b5090565b5b80821115613175576000815560010161317a565b6000602082840312156131a057600080fd5b81356001600160e01b031981168114610bed57600080fd5b6000602082840312156131ca57600080fd5b5035919050565b80356001600160a01b0381168114611d3457600080fd5b600080604083850312156131fb57600080fd5b8235915061320b602084016131d1565b90509250929050565b60006020828403121561322657600080fd5b81356001600160801b0381168114610bed57600080fd5b6000806040838503121561325057600080fd5b50508035926020909101359150565b634e487b7160e01b600052604160045260246000fd5b6040805190810167ffffffffffffffff811182821017156132985761329861325f565b60405290565b6040516060810167ffffffffffffffff811182821017156132985761329861325f565b604051601f8201601f1916810167ffffffffffffffff811182821017156132ea576132ea61325f565b604052919050565b600067ffffffffffffffff82111561330c5761330c61325f565b5060051b60200190565b600082601f83011261332757600080fd5b8135602061333c613337836132f2565b6132c1565b82815260069290921b8401810191818101908684111561335b57600080fd5b8286015b8481101561339a57604081890312156133785760008081fd5b613380613275565b81358152848201358582015283529183019160400161335f565b509695505050505050565b6000606082840312156133b757600080fd5b6133bf61329e565b90508135815260208083013567ffffffffffffffff808211156133e157600080fd5b818501915085601f8301126133f557600080fd5b8135818111156134075761340761325f565b613419601f8201601f191685016132c1565b818152878583860101111561342d57600080fd5b8185850186830137600085838301015280858701525050604085013592508083111561345857600080fd5b505061346684828501613316565b60408301525092915050565b6000602080838503121561348557600080fd5b823567ffffffffffffffff8082111561349d57600080fd5b818501915085601f8301126134b157600080fd5b81356134bf613337826132f2565b81815260059190911b830184019084810190888311156134de57600080fd5b8585015b83811015613516578035858111156134fa5760008081fd5b6135088b89838a01016133a5565b8452509186019186016134e2565b5098975050505050505050565b600081518084526020808501945080840160005b8381101561355357815187529582019590820190600101613537565b509495945050505050565b6080815260006135716080830187613523565b82810360208481019190915286518083528782019282019060005b818110156135a85784518352938301939183019160010161358c565b505084810360408601526135bc8188613523565b9250505082810360608401526135d28185613523565b979650505050505050565b6000602082840312156135ef57600080fd5b610bed826131d1565b60006020828403121561360a57600080fd5b813567ffffffffffffffff81111561362157600080fd5b61362d848285016133a5565b949350505050565b6020808252601a908201527f436f6e747261637420686173206e6f74206c61756e636865642e000000000000604082015260600190565b634e487b7160e01b600052601160045260246000fd5b6000600182016136945761369461366c565b5060010190565b808201808211156108245761082461366c565b634e487b7160e01b600052601260045260246000fd5b6000826136d3576136d36136ae565b500490565b634e487b7160e01b600052603260045260246000fd5b818103818111156108245761082461366c565b60208082526022908201527f496e697469616c697a61626c653a20616c726561647920696e697469616c697a604082015261195960f21b606082015260800190565b600082613752576137526136ae565b500690565b60005b8381101561377257818101518382015260200161375a565b50506000910152565b60008151808452613793816020860160208601613757565b601f01601f19169290920160200192915050565b600081518084526020808501945080840160005b838110156135535781518051885283015183880152604090960195908201906001016137bb565b848152836020820152826040820152608060608201528151608082015260006020830151606060a084015261381a60e084018261377b565b90506040840151607f198483030160c085015261383782826137a7565b98975050505050505050565b60006020828403121561385557600080fd5b5051919050565b634e487b7160e01b600052600160045260246000fd5b600081600019048311821515161561388c5761388c61366c565b500290565b602081526000610bed60208301846137a7565b7f416363657373436f6e74726f6c3a206163636f756e74200000000000000000008152600083516138dc816017850160208801613757565b7001034b99036b4b9b9b4b733903937b6329607d1b601791840191820152835161390d816028840160208801613757565b01602801949350505050565b602081526000610bed602083018461377b565b60008161393b5761393b61366c565b506000190190565b634e487b7160e01b600052603160045260246000fdfe65d7a28e3265b37a6474929f336521b332c1681b933f6cb9f3376673440d862aa2646970667358221220b411df868bd424ae7f2848b8887610aebf40ee7dd6e582791a3b4a1bbc21234864736f6c63430008100033608060405234801561001057600080fd5b5060405161067038038061067083398101604081905261002f9161014a565b6100383361009a565b806001600160401b0381111561005057610050610163565b604051908082528060200260200182016040528015610079578160200160208202803683370190505b50805161008e916001916020909101906100ea565b50506000600255610179565b600080546001600160a01b038381166001600160a01b0319831681178455604051919092169283917f8be0079c531659141344cd1fd0a4f28419497f9722a3daafe3b4186f6b6457e09190a35050565b828054828255906000526020600020908101928215610125579160200282015b8281111561012557825182559160200191906001019061010a565b50610131929150610135565b5090565b5b808211156101315760008155600101610136565b60006020828403121561015c57600080fd5b5051919050565b634e487b7160e01b600052604160045260246000fd5b6104e8806101886000396000f3fe608060405234801561001057600080fd5b506004361061007d5760003560e01c80638da5cb5b1161005b5780638da5cb5b146100d557806396e494e8146100f0578063e0886f9014610103578063f2fde38b1461011657600080fd5b80631d1a696d146100825780632d287e43146100aa578063715018a6146100cb575b600080fd5b6100956100903660046103e3565b610129565b60405190151581526020015b60405180910390f35b6100bd6100b83660046103e3565b610194565b6040519081526020016100a1565b6100d36101ee565b005b6000546040516001600160a01b0390911681526020016100a1565b6100956100fe3660046103e3565b610202565b6100bd6101113660046103e3565b610237565b6100d36101243660046103fc565b610297565b60008061013d600254600180549050610310565b905060005b8181101561018a57836001828154811061015e5761015e610425565b906000526020600020015403610178575060019392505050565b8061018281610451565b915050610142565b5060009392505050565b6002546001546000919082906101aa908361046a565b905083600182815481106101c0576101c0610425565b90600052602060002001819055506001600260008282546101e1919061048c565b9091555091949350505050565b6101f661032a565b6102006000610384565b565b6001546002546000919083108015610230575080610222600254836103d4565b61022c919061049f565b8310155b9392505050565b600061024282610202565b6102675760405163b52d71f360e01b8152600481018390526024015b60405180910390fd5b60018054610275908461046a565b8154811061028557610285610425565b90600052602060002001549050919050565b61029f61032a565b6001600160a01b0381166103045760405162461bcd60e51b815260206004820152602660248201527f4f776e61626c653a206e6577206f776e657220697320746865207a65726f206160448201526564647265737360d01b606482015260840161025e565b61030d81610384565b50565b600081831061031f5781610321565b825b90505b92915050565b6000546001600160a01b031633146102005760405162461bcd60e51b815260206004820181905260248201527f4f776e61626c653a2063616c6c6572206973206e6f7420746865206f776e6572604482015260640161025e565b600080546001600160a01b038381166001600160a01b0319831681178455604051919092169283917f8be0079c531659141344cd1fd0a4f28419497f9722a3daafe3b4186f6b6457e09190a35050565b600081831161031f5781610321565b6000602082840312156103f557600080fd5b5035919050565b60006020828403121561040e57600080fd5b81356001600160a01b038116811461023057600080fd5b634e487b7160e01b600052603260045260246000fd5b634e487b7160e01b600052601160045260246000fd5b6000600182016104635761046361043b565b5060010190565b60008261048757634e487b7160e01b600052601260045260246000fd5b500690565b808201808211156103245761032461043b565b818103818111156103245761032461043b56fea2646970667358221220c90d957d44891f095d986848fabf130f05541c1afde790c7f687700f7785710764736f6c63430008100033",
  "linkReferences": {},
  "deployedLinkReferences": {}
}