{
  "_format": "hh-sol-artifact-1",
  "contractName": "FixedPriceFlow",
  "sourceName": "contracts/dataFlow/FixedPriceFlow.sol",
  "abi": [
    {
      "inputs": [
        {
          "internalType": "uint256",
          "name": "blocksPerEpoch_",
          "type": "uint256"
        },
        {
          "internalType": "uint256",
          "name": "deployDelay_",
          "type": "uint256"
        }
      ],
      "stateMutability": "nonpayable",
      "type": "constructor"
    },
    {
      "inputs": [],
      "name": "InvalidSubmission",
      "type": "error"
    },
    {
      "inputs": [
        {
          "internalType": "uint256",
          "name": "price",
          "type": "uint256"
        },
        {
          "internalType": "uint256",
          "name": "amount",
          "type": "uint256"
        },
        {
          "internalType": "uint256",
          "name": "paid",
          "type": "uint256"
        }
      ],
      "name": "NotEnoughFee",
      "type": "error"
    },
    {
      "anonymous": false,
      "inputs": [
        {
          "indexed": true,
          "internalType": "address",
          "name": "sender",
          "type": "address"
        },
        {
          "indexed": true,
          "internalType": "uint256",
          "name": "index",
          "type": "uint256"
        },
        {
          "indexed": false,
          "internalType": "bytes32",
          "name": "startMerkleRoot",
          "type": "bytes32"
        },
        {
          "indexed": false,
          "internalType": "uint256",
          "name": "submissionIndex",
          "type": "uint256"
        },
        {
          "indexed": false,
          "internalType": "uint256",
          "name": "flowLength",
          "type": "uint256"
        },
        {
          "indexed": false,
          "internalType": "bytes32",
          "name": "context",
          "type": "bytes32"
        }
      ],
      "name": "NewEpoch",
      "type": "event"
    },
    {
      "anonymous": false,
      "inputs": [
        {
          "indexed": false,
          "internalType": "address",
          "name": "account",
          "type": "address"
        }
      ],
      "name": "Paused",
      "type": "event"
    },
    {
      "anonymous": false,
      "inputs": [
        {
          "indexed": true,
          "internalType": "bytes32",
          "name": "role",
          "type": "bytes32"
        },
        {
          "indexed": true,
          "internalType": "bytes32",
          "name": "previousAdminRole",
          "type": "bytes32"
        },
        {
          "indexed": true,
          "internalType": "bytes32",
          "name": "newAdminRole",
          "type": "bytes32"
        }
      ],
      "name": "RoleAdminChanged",
      "type": "event"
    },
    {
      "anonymous": false,
      "inputs": [
        {
          "indexed": true,
          "internalType": "bytes32",
          "name": "role",
          "type": "bytes32"
        },
        {
          "indexed": true,
          "internalType": "address",
          "name": "account",
          "type": "address"
        },
        {
          "indexed": true,
          "internalType": "address",
          "name": "sender",
          "type": "address"
        }
      ],
      "name": "RoleGranted",
      "type": "event"
    },
    {
      "anonymous": false,
      "inputs": [
        {
          "indexed": true,
          "internalType": "bytes32",
          "name": "role",
          "type": "bytes32"
        },
        {
          "indexed": true,
          "internalType": "address",
          "name": "account",
          "type": "address"
        },
        {
          "indexed": true,
          "internalType": "address",
          "name": "sender",
          "type": "address"
        }
      ],
      "name": "RoleRevoked",
      "type": "event"
    },
    {
      "anonymous": false,
      "inputs": [
        {
          "indexed": true,
          "internalType": "address",
          "name": "sender",
          "type": "address"
        },
        {
          "indexed": true,
          "internalType": "bytes32",
          "name": "identity",
          "type": "bytes32"
        },
        {
          "indexed": false,
          "internalType": "uint256",
          "name": "submissionIndex",
          "type": "uint256"
        },
        {
          "indexed": false,
          "internalType": "uint256",
          "name": "startPos",
          "type": "uint256"
        },
        {
          "indexed": false,
          "internalType": "uint256",
          "name": "length",
          "type": "uint256"
        },
        {
          "components": [
            {
              "internalType": "uint256",
              "name": "length",
              "type": "uint256"
            },
            {
              "internalType": "bytes",
              "name": "tags",
              "type": "bytes"
            },
            {
              "components": [
                {
                  "internalType": "bytes32",
                  "name": "root",
                  "type": "bytes32"
                },
                {
                  "internalType": "uint256",
                  "name": "height",
                  "type": "uint256"
                }
              ],
              "internalType": "struct SubmissionNode[]",
              "name": "nodes",
              "type": "tuple[]"
            }
          ],
          "indexed": false,
          "internalType": "struct Submission",
          "name": "submission",
          "type": "tuple"
        }
      ],
      "name": "Submit",
      "type": "event"
    },
    {
      "anonymous": false,
      "inputs": [
        {
          "indexed": false,
          "internalType": "address",
          "name": "account",
          "type": "address"
        }
      ],
      "name": "Unpaused",
      "type": "event"
    },
    {
      "inputs": [],
      "name": "DEFAULT_ADMIN_ROLE",
      "outputs": [
        {
          "internalType": "bytes32",
          "name": "",
          "type": "bytes32"
        }
      ],
      "stateMutability": "view",
      "type": "function"
    },
    {
      "inputs": [],
      "name": "PAUSER_ROLE",
      "outputs": [
        {
          "internalType": "bytes32",
          "name": "",
          "type": "bytes32"
        }
      ],
      "stateMutability": "view",
      "type": "function"
    },
    {
      "inputs": [
        {
          "components": [
            {
              "internalType": "uint256",
              "name": "length",
              "type": "uint256"
            },
            {
              "internalType": "bytes",
              "name": "tags",
              "type": "bytes"
            },
            {
              "components": [
                {
                  "internalType": "bytes32",
                  "name": "root",
                  "type": "bytes32"
                },
                {
                  "internalType": "uint256",
                  "name": "height",
                  "type": "uint256"
                }
              ],
              "internalType": "struct SubmissionNode[]",
              "name": "nodes",
              "type": "tuple[]"
            }
          ],
          "internalType": "struct Submission[]",
          "name": "submissions",
          "type": "tuple[]"
        }
      ],
      "name": "batchSubmit",
      "outputs": [
        {
          "internalType": "uint256[]",
          "name": "indexes",
          "type": "uint256[]"
        },
        {
          "internalType": "bytes32[]",
          "name": "digests",
          "type": "bytes32[]"
        },
        {
          "internalType": "uint256[]",
          "name": "startIndexes",
          "type": "uint256[]"
        },
        {
          "internalType": "uint256[]",
          "name": "lengths",
          "type": "uint256[]"
        }
      ],
      "stateMutability": "payable",
      "type": "function"
    },
    {
      "inputs": [],
      "name": "blocksPerEpoch",
      "outputs": [
        {
          "internalType": "uint256",
          "name": "",
          "type": "uint256"
        }
      ],
      "stateMutability": "view",
      "type": "function"
    },
    {
      "inputs": [],
      "name": "computeFlowRoot",
      "outputs": [
        {
          "internalType": "bytes32",
          "name": "",
          "type": "bytes32"
        }
      ],
      "stateMutability": "nonpayable",
      "type": "function"
    },
    {
      "inputs": [],
      "name": "epoch",
      "outputs": [
        {
          "internalType": "uint256",
          "name": "",
          "type": "uint256"
        }
      ],
      "stateMutability": "view",
      "type": "function"
    },
    {
      "inputs": [],
      "name": "epochStartPosition",
      "outputs": [
        {
          "internalType": "uint256",
          "name": "",
          "type": "uint256"
        }
      ],
      "stateMutability": "view",
      "type": "function"
    },
    {
      "inputs": [],
      "name": "firstBlock",
      "outputs": [
        {
          "internalType": "uint256",
          "name": "",
          "type": "uint256"
        }
      ],
      "stateMutability": "view",
      "type": "function"
    },
    {
      "inputs": [],
      "name": "getContext",
      "outputs": [
        {
          "components": [
            {
              "internalType": "uint256",
              "name": "epoch",
              "type": "uint256"
            },
            {
              "internalType": "uint256",
              "name": "mineStart",
              "type": "uint256"
            },
            {
              "internalType": "bytes32",
              "name": "flowRoot",
              "type": "bytes32"
            },
            {
              "internalType": "uint256",
              "name": "flowLength",
              "type": "uint256"
            },
            {
              "internalType": "bytes32",
              "name": "blockDigest",
              "type": "bytes32"
            },
            {
              "internalType": "bytes32",
              "name": "digest",
              "type": "bytes32"
            }
          ],
          "internalType": "struct MineContext",
          "name": "",
          "type": "tuple"
        }
      ],
      "stateMutability": "view",
      "type": "function"
    },
    {
      "inputs": [
        {
          "internalType": "bytes32",
          "name": "digest",
          "type": "bytes32"
        }
      ],
      "name": "getEpochRange",
      "outputs": [
        {
          "components": [
            {
              "internalType": "uint128",
              "name": "start",
              "type": "uint128"
            },
            {
              "internalType": "uint128",
              "name": "end",
              "type": "uint128"
            }
          ],
          "internalType": "struct EpochRange",
          "name": "",
          "type": "tuple"
        }
      ],
      "stateMutability": "view",
      "type": "function"
    },
    {
      "inputs": [
        {
          "internalType": "uint256",
          "name": "txSeq",
          "type": "uint256"
        }
      ],
      "name": "getFlowRootByTxSeq",
      "outputs": [
        {
          "internalType": "bytes32",
          "name": "",
          "type": "bytes32"
        }
      ],
      "stateMutability": "view",
      "type": "function"
    },
    {
      "inputs": [
        {
          "internalType": "bytes32",
          "name": "role",
          "type": "bytes32"
        }
      ],
      "name": "getRoleAdmin",
      "outputs": [
        {
          "internalType": "bytes32",
          "name": "",
          "type": "bytes32"
        }
      ],
      "stateMutability": "view",
      "type": "function"
    },
    {
      "inputs": [
        {
          "internalType": "bytes32",
          "name": "role",
          "type": "bytes32"
        },
        {
          "internalType": "uint256",
          "name": "index",
          "type": "uint256"
        }
      ],
      "name": "getRoleMember",
      "outputs": [
        {
          "internalType": "address",
          "name": "",
          "type": "address"
        }
      ],
      "stateMutability": "view",
      "type": "function"
    },
    {
      "inputs": [
        {
          "internalType": "bytes32",
          "name": "role",
          "type": "bytes32"
        }
      ],
      "name": "getRoleMemberCount",
      "outputs": [
        {
          "internalType": "uint256",
          "name": "",
          "type": "uint256"
        }
      ],
      "stateMutability": "view",
      "type": "function"
    },
    {
      "inputs": [
        {
          "internalType": "bytes32",
          "name": "role",
          "type": "bytes32"
        },
        {
          "internalType": "address",
          "name": "account",
          "type": "address"
        }
      ],
      "name": "grantRole",
      "outputs": [],
      "stateMutability": "nonpayable",
      "type": "function"
    },
    {
      "inputs": [
        {
          "internalType": "bytes32",
          "name": "role",
          "type": "bytes32"
        },
        {
          "internalType": "address",
          "name": "account",
          "type": "address"
        }
      ],
      "name": "hasRole",
      "outputs": [
        {
          "internalType": "bool",
          "name": "",
          "type": "bool"
        }
      ],
      "stateMutability": "view",
      "type": "function"
    },
    {
      "inputs": [
        {
          "internalType": "address",
          "name": "market_",
          "type": "address"
        }
      ],
      "name": "initialize",
      "outputs": [],
      "stateMutability": "nonpayable",
      "type": "function"
    },
    {
      "inputs": [],
      "name": "initialized",
      "outputs": [
        {
          "internalType": "bool",
          "name": "",
          "type": "bool"
        }
      ],
      "stateMutability": "view",
      "type": "function"
    },
    {
      "inputs": [],
      "name": "makeContext",
      "outputs": [],
      "stateMutability": "nonpayable",
      "type": "function"
    },
    {
      "inputs": [
        {
          "internalType": "uint256",
          "name": "cnt",
          "type": "uint256"
        }
      ],
      "name": "makeContextFixedTimes",
      "outputs": [],
      "stateMutability": "nonpayable",
      "type": "function"
    },
    {
      "inputs": [],
      "name": "makeContextWithResult",
      "outputs": [
        {
          "components": [
            {
              "internalType": "uint256",
              "name": "epoch",
              "type": "uint256"
            },
            {
              "internalType": "uint256",
              "name": "mineStart",
              "type": "uint256"
            },
            {
              "internalType": "bytes32",
              "name": "flowRoot",
              "type": "bytes32"
            },
            {
              "internalType": "uint256",
              "name": "flowLength",
              "type": "uint256"
            },
            {
              "internalType": "bytes32",
              "name": "blockDigest",
              "type": "bytes32"
            },
            {
              "internalType": "bytes32",
              "name": "digest",
              "type": "bytes32"
            }
          ],
          "internalType": "struct MineContext",
          "name": "",
          "type": "tuple"
        }
      ],
      "stateMutability": "nonpayable",
      "type": "function"
    },
    {
      "inputs": [],
      "name": "market",
      "outputs": [
        {
          "internalType": "address payable",
          "name": "",
          "type": "address"
        }
      ],
      "stateMutability": "view",
      "type": "function"
    },
    {
      "inputs": [],
      "name": "numSubmissions",
      "outputs": [
        {
          "internalType": "uint256",
          "name": "",
          "type": "uint256"
        }
      ],
      "stateMutability": "view",
      "type": "function"
    },
    {
      "inputs": [],
      "name": "pause",
      "outputs": [],
      "stateMutability": "nonpayable",
      "type": "function"
    },
    {
      "inputs": [],
      "name": "paused",
      "outputs": [
        {
          "internalType": "bool",
          "name": "",
          "type": "bool"
        }
      ],
      "stateMutability": "view",
      "type": "function"
    },
    {
      "inputs": [
        {
          "internalType": "uint128",
          "name": "targetPosition",
          "type": "uint128"
        }
      ],
      "name": "queryContextAtPosition",
      "outputs": [
        {
          "components": [
            {
              "internalType": "uint128",
              "name": "start",
              "type": "uint128"
            },
            {
              "internalType": "uint128",
              "name": "end",
              "type": "uint128"
            },
            {
              "internalType": "bytes32",
              "name": "digest",
              "type": "bytes32"
            }
          ],
          "internalType": "struct EpochRangeWithContextDigest",
          "name": "range",
          "type": "tuple"
        }
      ],
      "stateMutability": "nonpayable",
      "type": "function"
    },
    {
      "inputs": [
        {
          "internalType": "bytes32",
          "name": "role",
          "type": "bytes32"
        },
        {
          "internalType": "address",
          "name": "account",
          "type": "address"
        }
      ],
      "name": "renounceRole",
      "outputs": [],
      "stateMutability": "nonpayable",
      "type": "function"
    },
    {
      "inputs": [
        {
          "internalType": "bytes32",
          "name": "role",
          "type": "bytes32"
        },
        {
          "internalType": "address",
          "name": "account",
          "type": "address"
        }
      ],
      "name": "revokeRole",
      "outputs": [],
      "stateMutability": "nonpayable",
      "type": "function"
    },
    {
      "inputs": [],
      "name": "rootHistory",
      "outputs": [
        {
          "internalType": "contract IDigestHistory",
          "name": "",
          "type": "address"
        }
      ],
      "stateMutability": "view",
      "type": "function"
    },
    {
      "inputs": [],
      "name": "submissionIndex",
      "outputs": [
        {
          "internalType": "uint256",
          "name": "",
          "type": "uint256"
        }
      ],
      "stateMutability": "view",
      "type": "function"
    },
    {
      "inputs": [
        {
          "components": [
            {
              "internalType": "uint256",
              "name": "length",
              "type": "uint256"
            },
            {
              "internalType": "bytes",
              "name": "tags",
              "type": "bytes"
            },
            {
              "components": [
                {
                  "internalType": "bytes32",
                  "name": "root",
                  "type": "bytes32"
                },
                {
                  "internalType": "uint256",
                  "name": "height",
                  "type": "uint256"
                }
              ],
              "internalType": "struct SubmissionNode[]",
              "name": "nodes",
              "type": "tuple[]"
            }
          ],
          "internalType": "struct Submission",
          "name": "submission",
          "type": "tuple"
        }
      ],
      "name": "submit",
      "outputs": [
        {
          "internalType": "uint256",
          "name": "",
          "type": "uint256"
        },
        {
          "internalType": "bytes32",
          "name": "",
          "type": "bytes32"
        },
        {
          "internalType": "uint256",
          "name": "",
          "type": "uint256"
        },
        {
          "internalType": "uint256",
          "name": "",
          "type": "uint256"
        }
      ],
      "stateMutability": "payable",
      "type": "function"
    },
    {
      "inputs": [
        {
          "internalType": "bytes4",
          "name": "interfaceId",
          "type": "bytes4"
        }
      ],
      "name": "supportsInterface",
      "outputs": [
        {
          "internalType": "bool",
          "name": "",
          "type": "bool"
        }
      ],
      "stateMutability": "view",
      "type": "function"
    },
    {
      "inputs": [],
      "name": "tree",
      "outputs": [
        {
          "internalType": "uint256",
          "name": "currentLength",
          "type": "uint256"
        },
        {
          "internalType": "uint256",
          "name": "unstagedHeight",
          "type": "uint256"
        }
      ],
      "stateMutability": "view",
      "type": "function"
    },
    {
      "inputs": [],
      "name": "unpause",
      "outputs": [],
      "stateMutability": "nonpayable",
      "type": "function"
    }
  ],
  "bytecode": "0x60e06040523480156200001157600080fd5b506040516200425c3803806200425c8339810160408190526200003491620000b1565b6000805460ff1916905560a0829052604051829082906103e8906200005990620000a3565b908152602001604051809103906000f0801580156200007c573d6000803e3d6000fd5b506001600160a01b0316608052620000958143620000d6565b60c05250620000fe92505050565b6106708062003bec83390190565b60008060408385031215620000c557600080fd5b505080516020909101519092909150565b80820180821115620000f857634e487b7160e01b600052601160045260246000fd5b92915050565b60805160a05160c051613a7f6200016d60003960008181610305015281816107fc01528181610ad701528181610bbe01528181610e1701528181610f27015281816110e501526116de01526000818161071201526110bd01526000818161064901526111500152613a7f6000f3fe6080604052600436106101f95760003560e01c80638456cb591161010d578063b8a409ac116100a0578063d547741f1161006f578063d547741f1461068b578063e63ab1e9146106ab578063ef3e12dc146106cd578063f068205414610700578063fd54b2281461073457600080fd5b8063b8a409ac14610601578063c4d66de814610617578063c7dd522114610637578063ca15c8731461066b57600080fd5b806393e405a0116100dc57806393e405a01461059e5780639e62a38e146105b4578063a217fddf146105d7578063b464b53e146105ec57600080fd5b80638456cb5914610533578063900cf0cf146105485780639010d07c1461055e57806391d148541461057e57600080fd5b806331bae174116101905780635c975abb1161015f5780635c975abb146104125780636d7ad0fc1461042a57806377e19824146104575780637d5907081461046c57806380f55605146104fb57600080fd5b806331bae1741461037857806336568abe146103c857806338d45e10146103e85780633f4ba83a146103fd57600080fd5b80631deb0fca116101cc5780631deb0fca146102d0578063231b0268146102f3578063248a9ca3146103275780632f2ff15d1461035857600080fd5b806301ffc9a7146101fe578063127f0f0714610233578063158ef93e1461029457806318a641ef146102ae575b600080fd5b34801561020a57600080fd5b5061021e61021936600461328e565b610764565b60405190151581526020015b60405180910390f35b34801561023f57600080fd5b5061024861078f565b60405161022a9190600060c082019050825182526020830151602083015260408301516040830152606083015160608301526080830151608083015260a083015160a083015292915050565b3480156102a057600080fd5b5060035461021e9060ff1681565b3480156102ba57600080fd5b506102ce6102c93660046132b8565b6107fa565b005b3480156102dc57600080fd5b506102e5610872565b60405190815260200161022a565b3480156102ff57600080fd5b506102e57f000000000000000000000000000000000000000000000000000000000000000081565b34801561033357600080fd5b506102e56103423660046132b8565b6000908152600160208190526040909120015490565b34801561036457600080fd5b506102ce6103733660046132e8565b61088d565b34801561038457600080fd5b50610398610393366004613314565b6108b8565b6040805182516001600160801b03908116825260208085015190911690820152918101519082015260600161022a565b3480156103d457600080fd5b506102ce6103e33660046132e8565b610a5b565b3480156103f457600080fd5b506102ce610ad5565b34801561040957600080fd5b506102ce610b24565b34801561041e57600080fd5b5060005460ff1661021e565b34801561043657600080fd5b506102e56104453660046132b8565b60009081526045602052604090205490565b34801561046357600080fd5b50603a546102e5565b34801561047857600080fd5b506104d46104873660046132b8565b6040805180820190915260008082526020820152506000908152604360209081526040918290208251808401909352546001600160801b038082168452600160801b909104169082015290565b6040805182516001600160801b03908116825260209384015116928101929092520161022a565b34801561050757600080fd5b5060365461051b906001600160a01b031681565b6040516001600160a01b03909116815260200161022a565b34801561053f57600080fd5b506102ce610b44565b34801561055457600080fd5b506102e5603b5481565b34801561056a57600080fd5b5061051b61057936600461333d565b610b64565b34801561058a57600080fd5b5061021e6105993660046132e8565b610b83565b3480156105aa57600080fd5b506102e5603c5481565b6105c76105c236600461356d565b610bae565b60405161022a9493929190613658565b3480156105e357600080fd5b506102e5600081565b3480156105f857600080fd5b50610248610de3565b34801561060d57600080fd5b506102e5603a5481565b34801561062357600080fd5b506102ce6106323660046136d7565b610e65565b34801561064357600080fd5b5061051b7f000000000000000000000000000000000000000000000000000000000000000081565b34801561067757600080fd5b506102e56106863660046132b8565b610eda565b34801561069757600080fd5b506102ce6106a63660046132e8565b610ef1565b3480156106b757600080fd5b506102e5600080516020613a2a83398151915281565b6106e06106db3660046136f2565b610f17565b60408051948552602085019390935291830152606082015260800161022a565b34801561070c57600080fd5b506102e57f000000000000000000000000000000000000000000000000000000000000000081565b34801561074057600080fd5b5060375460385461074f919082565b6040805192835260208301919091520161022a565b60006001600160e01b03198216635a05180f60e01b1480610789575061078982611083565b92915050565b6040805160c081018252600080825260208201819052918101829052606081018290526080810182905260a0810191909152506040805160c081018252603d548152603e546020820152603f548183015290546060820152604154608082015260425460a082015290565b7f00000000000000000000000000000000000000000000000000000000000000004310156108435760405162461bcd60e51b815260040161083a9061372e565b60405180910390fd5b60005b81811161086d576108556110b8565b61085d575050565b6108668161377b565b9050610846565b505b50565b600061087e60376113dc565b610888603761150b565b905090565b600082815260016020819052604090912001546108a981611543565b6108b3838361154d565b505050565b60408051606081018252600080825260208201819052918101919091526108dd610ad5565b6037546001600160801b038316106109435760405162461bcd60e51b8152602060048201526024808201527f5175657269656420706f736974696f6e206578636565647320757070657220626044820152631bdd5b9960e21b606482015260840161083a565b6044546000905b81811115610a1357600060026109608484613794565b61096a91906137bd565b90506044818154811061097f5761097f6137d1565b600091825260209182902060408051606081018252600290930290910180546001600160801b038082168552600160801b9091048116948401859052600190910154918301919091529095508616106109e4576109dd816001613794565b9250610a0d565b83600001516001600160801b0316856001600160801b031610610a0957505050919050565b8091505b5061094a565b60405162461bcd60e51b815260206004820152601b60248201527f43616e206e6f742066696e642070726f70657220636f6e746578740000000000604482015260640161083a565b6001600160a01b0381163314610acb5760405162461bcd60e51b815260206004820152602f60248201527f416363657373436f6e74726f6c3a2063616e206f6e6c792072656e6f756e636560448201526e103937b632b9903337b91039b2b63360891b606482015260840161083a565b61086d828261156f565b7f0000000000000000000000000000000000000000000000000000000000000000431015610b155760405162461bcd60e51b815260040161083a9061372e565b610b1d6110b8565b610b15575b565b600080516020613a2a833981519152610b3c81611543565b61086f611591565b600080516020613a2a833981519152610b5c81611543565b61086f6115e3565b6000828152600260205260408120610b7c9083611620565b9392505050565b60009182526001602090815260408084206001600160a01b0393909316845291905290205460ff1690565b606080606080610bbc61162c565b7f0000000000000000000000000000000000000000000000000000000000000000431015610bfc5760405162461bcd60e51b815260040161083a9061372e565b8451806001600160401b03811115610c1657610c1661335f565b604051908082528060200260200182016040528015610c3f578160200160208202803683370190505b509450806001600160401b03811115610c5a57610c5a61335f565b604051908082528060200260200182016040528015610c83578160200160208202803683370190505b509350806001600160401b03811115610c9e57610c9e61335f565b604051908082528060200260200182016040528015610cc7578160200160208202803683370190505b509250806001600160401b03811115610ce257610ce261335f565b604051908082528060200260200182016040528015610d0b578160200160208202803683370190505b50915060005b81811015610dda57600080600080610d418b8681518110610d3457610d346137d1565b6020026020010151610f17565b9350935093509350838a8681518110610d5c57610d5c6137d1565b60200260200101818152505082898681518110610d7b57610d7b6137d1565b60200260200101818152505081888681518110610d9a57610d9a6137d1565b60200260200101818152505080878681518110610db957610db96137d1565b6020026020010181815250505050505080610dd39061377b565b9050610d11565b50509193509193565b6040805160c081018252600080825260208201819052918101829052606081018290526080810182905260a08101919091527f0000000000000000000000000000000000000000000000000000000000000000431015610e555760405162461bcd60e51b815260040161083a9061372e565b610e5d610ad5565b61088861078f565b60035460ff1615610ec45760405162461bcd60e51b8152602060048201526024808201527f5a67496e697469616c697a61626c653a20616c726561647920696e697469616c6044820152631a5e995960e21b606482015260840161083a565b6003805460ff1916600117905561086f81611672565b600081815260026020526040812061078990611798565b60008281526001602081905260409091200154610f0d81611543565b6108b3838361156f565b600080600080610f2561162c565b7f0000000000000000000000000000000000000000000000000000000000000000431015610f655760405162461bcd60e51b815260040161083a9061372e565b610f6e856117a2565b610faf5760405162461bcd60e51b815260206004820152601260248201527124b73b30b634b21039bab136b4b9b9b4b7b760711b604482015260640161083a565b6000610fba866119b9565b9050610fc581611a17565b610fcd610ad5565b6000610fd887611b09565b90506000610fe588611c49565b603a80549192506001906000610ffb8385613794565b9091555061100b905060376113dc565b611015603761150b565b604560008381526020019081526020016000208190555081336001600160a01b03167f167ce04d2aa1981994d3a31695da0d785373335b1078cec239a1a3a2c76755558386888e60405161106c9493929190613837565b60405180910390a396509450925090509193509193565b60006001600160e01b03198216637965db0b60e01b148061078957506301ffc9a760e01b6001600160e01b0319831614610789565b6000807f0000000000000000000000000000000000000000000000000000000000000000603b54600101027f000000000000000000000000000000000000000000000000000000000000000001905043811061111657600091505090565b61112060376113dc565b600061112c603761150b565b604051632d287e4360e01b8152600481018290529091506000906001600160a01b037f00000000000000000000000000000000000000000000000000000000000000001690632d287e43906024016020604051808303816000875af1158015611199573d6000803e3d6000fd5b505050506040513d601f19601f820116820180604052508101906111bd91906138c9565b9050603b5481146111d0576111d06138e2565b600080436111e086610100613794565b101561121057507fc5d2460186f7233c927e7db2dcc703c0e500b653ca82273b7bfad8045d85a47090508061131f565b506037546040805186406020820181905291810186905260608101929092529060800160408051808303601f190181528282528051602091820120603c80546037805487870187526001600160801b039283168089529083168689018181526000878152604389528981209a519151918616600160801b928716830217909a558851606081018a529283529682019081529681018581526044805460018101825599529051965196831696909216909402949094177f9b22d3d61959b4d3528b1d8ba932c96fbe302b36a1aad1d95cab54f9e0a135ea60029096029586015592517f9b22d3d61959b4d3528b1d8ba932c96fbe302b36a1aad1d95cab54f9e0a135eb9094019390935554905591505b6001603b60008282546113329190613794565b90915550506040805160c081018252603b5480825260208083018990528284018890526037546060808501829052608080860188905260a0909501889052603d849055603e8b9055603f8a905581865560418790556042889055603a5486518b815293840152948201529283018590529133917fbc8a3fd82465d43f1709e44ed882f7e1af0147274196ef1ec009f5d52ff4e993910160405180910390a360019550505050505090565b60028101546001820154036113ee5750565b6002810180546001808401549192600092909161140a916138f8565b8154811061141a5761141a6137d1565b9060005260206000200154905060006114426001856001015461143d91906138f8565b611d26565b60018501549091505b838110156115005760408051602080820186905281830185905282518083038401815260609092019092528051910120855461148b90600290841c61390b565b6000036114c75780935061149e82611d26565b9250808660020183815481106114b6576114b66137d1565b6000918252602090912001556114ed565b8560020182815481106114dc576114dc6137d1565b906000526020600020015493508092505b50806114f88161377b565b91505061144b565b505050600190910155565b60028101805460009190611521906001906138f8565b81548110611531576115316137d1565b90600052602060002001549050919050565b61086f813361292a565b6115578282612983565b60008281526002602052604090206108b390826129ee565b6115798282612a03565b60008281526002602052604090206108b39082612a6a565b611599612a7f565b6000805460ff191690557f5db9ee0a495bf2e6ff9c91a7834c1ba4fdd244a5e8aa4e537bd38aeae4b073aa335b6040516001600160a01b03909116815260200160405180910390a1565b6115eb61162c565b6000805460ff191660011790557f62e78cea01bee320cd4e420270b5ea74000d11b0c9f74754ebdbfc544b05a2586115c63390565b6000610b7c8383612ac8565b60005460ff1615610b225760405162461bcd60e51b815260206004820152601060248201526f14185d5cd8589b194e881c185d5cd95960821b604482015260640161083a565b6001603781905560398054808301825560009182527fdc16fef70f8d5ddbc01ee3d903d1e69c18a3c7be080eb86a81e0578814ee58d30155603855603680546001600160a01b0319166001600160a01b0383161790556000603b8190556040805160c0810182529182527f00000000000000000000000000000000000000000000000000000000000000006020830152810161170e603761150b565b815260016020808301919091527fc5d2460186f7233c927e7db2dcc703c0e500b653ca82273b7bfad8045d85a47060408084018290526060938401919091528351603d5590830151603e5582810151603f55908201519055608081015160415560a00151604255611780600033612af2565b61086f600080516020613a2a83398151915233612af2565b6000610789825490565b60008160400151516000036117b957506000919050565b60408201518051600491906117d0906001906138f8565b815181106117e0576117e06137d1565b6020026020010151602001518360400151600081518110611803576118036137d1565b60200260200101516020015161181991906138f8565b1061182657506000919050565b6040826040015160008151811061183f5761183f6137d1565b6020026020010151602001511061185857506000919050565b60005b600183604001515161186d91906138f8565b8110156118e4578260400151818151811061188a5761188a6137d1565b60200260200101516020015183604001518260016118a89190613794565b815181106118b8576118b86137d1565b602002602001015160200151106118d25750600092915050565b806118dc8161377b565b91505061185b565b5060006118f0836119b9565b90506118fe6101008261391f565b8351111561190f5750600092915050565b6000601082101561192c576119256001836138f8565b9050611992565b83604001515160010361194757611925600483901c836138f8565b60048460400151600081518110611960576119606137d1565b60200260200101516020015161197691906138f8565b611981906001613794565b61198f906001901b836138f8565b90505b61199e6101008261391f565b8451116119af575060009392505050565b5060019392505050565b600080805b836040015151811015611a1057836040015181815181106119e1576119e16137d1565b6020026020010151602001516001901b826119fc9190613794565b915080611a088161377b565b9150506119be565b5092915050565b603654604080516330f6284160e11b815290516000926001600160a01b0316916361ec50829160048083019260209291908290030181865afa158015611a61573d6000803e3d6000fd5b505050506040513d601f19601f82011682018060405250810190611a8591906138c9565b90506000611a93828461391f565b90504747821115611ac857604051637c2e324160e11b815260048101849052602481018590526044810182905260640161083a565b6036546040516001600160a01b039091169083156108fc029084906000818181858888f19350505050158015611b02573d6000803e3d6000fd5b5050505050565b60378054600091611b1a9084612afc565b60005b836040015151811015611bb257600084604001518281518110611b4257611b426137d1565b6020026020010151600001519050600085604001518381518110611b6857611b686137d1565b60200260200101516020015190506000611b8e83836037612c269092919063ffffffff16565b905083600003611b9c578095505b5050508080611baa9061377b565b915050611b1d565b506000611bbf82846138f8565b9050600083603760000154611bd491906138f8565b603654604051636d3759b560e11b81526004810186905260248101839052604481018590529192506001600160a01b03169063da6eb36a90606401600060405180830381600087803b158015611c2957600080fd5b505af1158015611c3d573d6000803e3d6000fd5b50505050505050919050565b6000808260400151516001600160401b03811115611c6957611c6961335f565b604051908082528060200260200182016040528015611c92578160200160208202803683370190505b50905060005b836040015151811015611cf65783604001518181518110611cbb57611cbb6137d1565b602002602001015160000151828281518110611cd957611cd96137d1565b602090810291909101015280611cee8161377b565b915050611c98565b5080604051602001611d08919061393e565b60405160208183030381529060405280519060200120915050919050565b600081600003611d5757507fd397b3b043d87fcd6fad1291ff0bfd16401c274896d8c63a923727f077b8e0b5919050565b81600103611d8657507ff73e6947d7d1628b9976a6e40d7b278a8a16405e96324a68df45b12a51b7cfde919050565b81600203611db557507fa1520264ae93cac619e22e8718fc4fa7ebdd23f493cad602434d2a58ff4868fb919050565b81600303611de457507fde5747106ac1194a1fa9071dbd6cf19dc2bc7964497ef0afec7e4bdbcf08c47e919050565b81600403611e1357507f09c7082879180d28c789c05fafe7030871c76cedbe82c948b165d6a1d66ac15b919050565b81600503611e4257507faa7a02bcf29fba687f84123c808b5b48834ff5395abe98e622fadc14e4180c95919050565b81600603611e7157507f7608fd46b710b589e0f2ee5a13cd9c41d432858a30d524f84c6d5db37f66273a919050565b81600703611ea057507fa5d9a2f7f3573ac9a1366bc484688b4daf934b87ea9b3bf2e703da8fd9f09708919050565b81600803611ecf57507f6c1779477f4c3fca26b4607398859a43b90a286ce8062500744bd4949981757f919050565b81600903611efe57507f45c22df3d952c33d5edce122eed85e5cda3fd61939e7ad7b3e03b6927bb598ea919050565b81600a03611f2d57507fe68d02859bb6211cec64f52368b77d422de3b8eac34bf615942b814b643301b5919050565b81600b03611f5c57507f62d78399b954d51cb9728601738ad13ddc43b2300064660716bb661d2f4d686f919050565b81600c03611f8b57507f6e250d9abdbbb3993fce08de0395cdb56f0483e67d8762a798de011f6a50866a919050565b81600d03611fba57507f1d1a3a74062fd94078617e33eb901eaf16a830f67c387d8eed342db2ac5e2cc5919050565b81600e03611fe957507f19b3b3886526917eae8650223d0be20a0301be960eb339696e673ad8a804440f919050565b81600f0361201857507fee9e05df53f10e62a897e5140a3f58732dd849e69cd1d62b21ed80ead711a014919050565b8160100361204757507f2cc7aa6e611a113a34505dc1c96b220f14909b70e2c2c7b1a74655da21013c5e919050565b8160110361207657507f949b52dfece7ca3bad3cb27f7750ecaee64cedb6243a275c35984e92956c530a919050565b816012036120a557507fb2680d060b763b932c150434c3812ba9fbc50937e0ebcf5758de884be81bab65919050565b816013036120d457507f523aebf4a085edbc9c8cdc99c83f46262e5f029b395ff7bf561a48a3f387e6b8919050565b8160140361210357507fc9ab73827ab33c0cedb7ecf0ed2e6e32583c0fe887133a7f381ea4ba84d95b76919050565b8160150361213257507f23eb397dec7e564ebe97f160a5e1081a77d9861f316807079b6be4731beb331e919050565b8160160361216157507fdfa44a274c60f090df034aaf75539fd40e94cfd6362dd53d26ed20c8ad529563919050565b8160170361219057507f15b13ee358e1044a53381243c094e54bf7aceb9b5325a0313d6b85fd44e8b3a5919050565b816018036121bf57507f1a7a93871e2daa0f1860aa91d4ece4ccd012dac5fe581176a21b155cfeca6d40919050565b816019036121ee57507fb12665fd0b884a7c7d1e0294d369170d7e672d9e125eb87784556305f98292df919050565b81601a0361221d57507f2a5543b0b2f8cf550524390291774f4d6c8c0a25ff5393b09c44d75c92a5bd8e919050565b81601b0361224c57507ff9df1841a6e7164b67a1242f1c74975137085ffd9721831f6c469d3a4d5ba42e919050565b81601c0361227b57507fba24736b1b48246c1f7803be967be43ca0dddc9c2c0687a2957952249bc89371919050565b81601d036122aa57507ff3f706b73790c73ca0a8f0460ac3a2a102e280415586b520e70cd5e8264388b4919050565b81601e036122d957507fc1f5a9a9f357e1c37814688cf7290c87a264ed3d6174a12b978da1c586f53825919050565b81601f0361230857507f766f7702e19ce23d426cdad03e4292a5a42c4669420101fed74400ec7cda3ac6919050565b8160200361233757507f070fec213e105b3e4d9b0434ac2fc7ca721d35093dc741fb9419797003e2394a919050565b8160210361236657507f9a7aade05b49e43f5fd3782571cc8c90eadacd5d660b53842b4e5b63d675ae0c919050565b8160220361239557507fb27b35a8236d0f9b6692820429c025ed58ed378dc98d316b762f0c865c68be6f919050565b816023036123c457507fdc567ad38d9b90cc9bea4e0f82ec05eca10b3aa94eddc7b63c4fd20c001bb53b919050565b816024036123f357507fb208dfc457c8b30661ae49544c8e57399818095aab8dd7a426fb8dd56bb8c559919050565b8160250361242257507fc4a72e1ff84f7a22631f3f95c61c392f98f52050360215a9d7e75d79b0bcd2ca919050565b8160260361245157507fbb093ec8c0d7defb1de668b5b5dd4f2619e5cd92d29cc144862364a83ab993a8919050565b8160270361248057507fe341796f2fe3975012c1e6badfa2e9c4523e43f911dc845082c3f4d7b4ff871d919050565b816028036124af57507f42d356a11a0b39243eca3c3263299cb6f8c3e9728af6d9d8b0ddb6d354f1890d919050565b816029036124de57507f0ce506e834e3a50a33f80074bc7fa16cf3c0712b36a41b69699177ea25de6c30919050565b81602a0361250d57507fd8fa5bf130aeb7756b1ed09090cc80ed78dae0617978540f0fabd06dfb978938919050565b81602b0361253c57507feed69a20fe36eb604f2153efa3b01c0e143cdf02229a1b8f741c9c2719059eb0919050565b81602c0361256b57507f303c9c566ebf5bfe252796e5c131a99801226152a514688b5ca6883e99031d88919050565b81602d0361259a57507fc7c3765ba96cfbccf3ae718393fa89791070cc8cd85f280b6ac46aea10d96042919050565b81602e036125c957507f1ca65b0a2b8034ee6bfb1fa4526832304e393af835c2c42b4dace58048746800919050565b81602f036125f857507f957add5e02350fd47de3a8e1da38fd774ceb31214d5897ed6315740a83cd634a919050565b8160300361262757507f787892cb439d5d358870774e163557cf02ec3cb87be6fde11abf1acee14eeaa4919050565b8160310361265657507f047c0962d4f5c8f60692c587de07739528c4d2059240d61dd34d2a547a438ee6919050565b8160320361268557507fc18727efc9e4df63020dcd90edc17dfd2ad14f02328c912b13898e0b53735556919050565b816033036126b457507fe38b9218987e451effe1648c3c9851ad03b64b052a5a3f5ca30f4d7b1ecf7120919050565b816034036126e357507f0e48ecb1a5418e6218289acc8cf723e67ac6eae3ecb80f644336ab4365a2f2b2919050565b8160350361271257507fd60e66f5b8cd08d71a1a4d7798952a7afa5a6e93a886c587a46a5500ebef4a60919050565b8160360361274157507f5162aa9c31d9105f689cf6e71e19548bc9f0218b7d0f99ff7fa8bc2f19c68462919050565b8160370361277057507f6fa8519b4b0e8fb97a9b618e97627d97b9b9d29d04521fd96472e9c502700568919050565b8160380361279f57507f41f5dcf0cdee270a2ad9a5f8130aaaab94b237463e09757c28b0321f09e24eb0919050565b816039036127ce57507f87a119239fa90732197108adfd029938b4743874d959d3da79b3a30f4832899e919050565b81603a036127fd57507f8e96dbaa5c72e84a5297b040ccc1a60750a3201166e3b7740d352837233608a1919050565b81603b0361282c57507f01605058d167ce967af8c475d2f6c341c3e0b437babf899c9da73a520aa4ecb5919050565b81603c0361285b57507f04529eb80532c5118949d700d8dfd2aa86850b1c6479b26276b9486784a145ff919050565b81603d0361288a57507fd191814ad13f27361ae20a46cbac8f6e76c10ebe9af0806d6720492ee2f296f0919050565b81603e036128b957507fa28df63f78821060570da371c0be1312188346b92a7965cc4b980b26c134a4d7919050565b81603f036128e857507fb48a92d40b61dc995ceecee4cded6415050dcece448b1e0b5e5b6a0e6981f3ef919050565b60405162461bcd60e51b8152602060048201526012602482015271125b99195e081bdd5d081bd988189bdd5b9960721b604482015260640161083a565b919050565b6129348282610b83565b61086d5761294181612d9f565b61294c836020612db1565b60405160200161295d929190613974565b60408051601f198184030181529082905262461bcd60e51b825261083a916004016139e9565b61298d8282610b83565b61086d5760008281526001602081815260408084206001600160a01b0386168086529252808420805460ff19169093179092559051339285917f2f8788117e7eff1d82e926ec794901d17c78024a50270940304540a733656f0d9190a45050565b6000610b7c836001600160a01b038416612f4c565b612a0d8282610b83565b1561086d5760008281526001602090815260408083206001600160a01b0385168085529252808320805460ff1916905551339285917ff6391f5c32d9c69d2a47ea670b442974b53935d1edc7fd64eb21e047a839171b9190a45050565b6000610b7c836001600160a01b038416612f9b565b60005460ff16610b225760405162461bcd60e51b815260206004820152601460248201527314185d5cd8589b194e881b9bdd081c185d5cd95960621b604482015260640161083a565b6000826000018281548110612adf57612adf6137d1565b9060005260206000200154905092915050565b61086d828261154d565b6000612b07826119b9565b90506000612b3b84600001548460400151600081518110612b2a57612b2a6137d1565b60200260200101516020015161308e565b9050610100612b4c6104008261391f565b612b5691906137bd565b612b60908261390b565b15801590612bc85750610100612b786104008261391f565b612b8291906137bd565b6001612b8e8484613794565b612b9891906138f8565b612ba291906137bd565b610100612bb16104008261391f565b612bbb91906137bd565b612bc590836137bd565b14155b15612c2057610100612bdc6104008261391f565b612be691906137bd565b612bf0908261390b565b610100612bff6104008261391f565b612c0991906137bd565b612c139083613794565b612c1d91906138f8565b84555b50505050565b600080612c3785600001548461308e565b90506000612c486001851b83613794565b6002870154909150612c5c906001906138f8565b6001901b811115612cae57612c70866113dc565b612c79866130c6565b6002860154612c8a906001906138f8565b6001901b811115612ca357612c9e866130c6565b612c79565b600286015460018701555b6002860154612cbd8786613159565b60008087875b84811015612d8157612cd8600288831c61390b565b600003612d1657818b6002018281548110612cf557612cf56137d1565b600091825260209091200155612d0c816001613794565b60018c0155612d81565b8a6002018181548110612d2b57612d2b6137d1565b906000526020600020015493508192508383604051602001612d57929190918252602082015260400190565b60405160208183030381529060405280519060200120915080612d798161377b565b915050612cc3565b50612d8f6001891b87613794565b9099555092979650505050505050565b60606107896001600160a01b03831660145b60606000612dc083600261391f565b612dcb906002613794565b6001600160401b03811115612de257612de261335f565b6040519080825280601f01601f191660200182016040528015612e0c576020820181803683370190505b509050600360fc1b81600081518110612e2757612e276137d1565b60200101906001600160f81b031916908160001a905350600f60fb1b81600181518110612e5657612e566137d1565b60200101906001600160f81b031916908160001a9053506000612e7a84600261391f565b612e85906001613794565b90505b6001811115612efd576f181899199a1a9b1b9c1cb0b131b232b360811b85600f1660108110612eb957612eb96137d1565b1a60f81b828281518110612ecf57612ecf6137d1565b60200101906001600160f81b031916908160001a90535060049490941c93612ef6816139fc565b9050612e88565b508315610b7c5760405162461bcd60e51b815260206004820181905260248201527f537472696e67733a20686578206c656e67746820696e73756666696369656e74604482015260640161083a565b6000818152600183016020526040812054612f9357508154600181810184556000848152602080822090930184905584548482528286019093526040902091909155610789565b506000610789565b60008181526001830160205260408120548015613084576000612fbf6001836138f8565b8554909150600090612fd3906001906138f8565b9050818114613038576000866000018281548110612ff357612ff36137d1565b9060005260206000200154905080876000018481548110613016576130166137d1565b6000918252602080832090910192909255918252600188019052604090208390555b855486908061304957613049613a13565b600190038181906000526020600020016000905590558560010160008681526020019081526020016000206000905560019350505050610789565b6000915050610789565b6000828082036130a2576000915050610789565b6130ad6001826138f8565b831c90506130bc600182613794565b90921b9392505050565b600281018054906000906130db6001846138f8565b815481106130eb576130eb6137d1565b6000918252602082200154915061310661143d6001856138f8565b9050836002018282604051602001613128929190918252602082015260400190565b60408051601f1981840301815291905280516020918201208254600181018455600093845291909220015550505050565b8082600101541115613169575050565b60028201805460018085015491926000929091613185916138f8565b81548110613195576131956137d1565b9060005260206000200154905060006131b86001866001015461143d91906138f8565b60018601549091505b838110156132865760408051602080820186905281830185905282518083038401815260609092019092528051910120865461320190600290841c61390b565b60000361324d5780935061321482611d26565b92508582106132485780876002018381548110613233576132336137d1565b60009182526020909120015550505050505050565b613273565b866002018281548110613262576132626137d1565b906000526020600020015493508092505b508061327e8161377b565b9150506131c1565b505050505050565b6000602082840312156132a057600080fd5b81356001600160e01b031981168114610b7c57600080fd5b6000602082840312156132ca57600080fd5b5035919050565b80356001600160a01b038116811461292557600080fd5b600080604083850312156132fb57600080fd5b8235915061330b602084016132d1565b90509250929050565b60006020828403121561332657600080fd5b81356001600160801b0381168114610b7c57600080fd5b6000806040838503121561335057600080fd5b50508035926020909101359150565b634e487b7160e01b600052604160045260246000fd5b604080519081016001600160401b03811182821017156133975761339761335f565b60405290565b604051606081016001600160401b03811182821017156133975761339761335f565b604051601f8201601f191681016001600160401b03811182821017156133e7576133e761335f565b604052919050565b60006001600160401b038211156134085761340861335f565b5060051b60200190565b600082601f83011261342357600080fd5b81356020613438613433836133ef565b6133bf565b82815260069290921b8401810191818101908684111561345757600080fd5b8286015b8481101561349657604081890312156134745760008081fd5b61347c613375565b81358152848201358582015283529183019160400161345b565b509695505050505050565b6000606082840312156134b357600080fd5b6134bb61339d565b9050813581526020808301356001600160401b03808211156134dc57600080fd5b818501915085601f8301126134f057600080fd5b8135818111156135025761350261335f565b613514601f8201601f191685016133bf565b818152878583860101111561352857600080fd5b8185850186830137600085838301015280858701525050604085013592508083111561355357600080fd5b505061356184828501613412565b60408301525092915050565b6000602080838503121561358057600080fd5b82356001600160401b038082111561359757600080fd5b818501915085601f8301126135ab57600080fd5b81356135b9613433826133ef565b81815260059190911b830184019084810190888311156135d857600080fd5b8585015b83811015613610578035858111156135f45760008081fd5b6136028b89838a01016134a1565b8452509186019186016135dc565b5098975050505050505050565b600081518084526020808501945080840160005b8381101561364d57815187529582019590820190600101613631565b509495945050505050565b60808152600061366b608083018761361d565b82810360208481019190915286518083528782019282019060005b818110156136a257845183529383019391830191600101613686565b505084810360408601526136b6818861361d565b9250505082810360608401526136cc818561361d565b979650505050505050565b6000602082840312156136e957600080fd5b610b7c826132d1565b60006020828403121561370457600080fd5b81356001600160401b0381111561371a57600080fd5b613726848285016134a1565b949350505050565b6020808252601a908201527f436f6e747261637420686173206e6f74206c61756e636865642e000000000000604082015260600190565b634e487b7160e01b600052601160045260246000fd5b60006001820161378d5761378d613765565b5060010190565b8082018082111561078957610789613765565b634e487b7160e01b600052601260045260246000fd5b6000826137cc576137cc6137a7565b500490565b634e487b7160e01b600052603260045260246000fd5b60005b838110156138025781810151838201526020016137ea565b50506000910152565b600081518084526138238160208601602086016137e7565b601f01601f19169290920160200192915050565b84815260006020858184015260408581850152608060608501528451608085015281850151606060a086015261387060e086018261380b565b86830151868203607f190160c0880152805180835290850192506000918501905b808310156138ba5783518051835286015186830152928501926001929092019190840190613891565b509a9950505050505050505050565b6000602082840312156138db57600080fd5b5051919050565b634e487b7160e01b600052600160045260246000fd5b8181038181111561078957610789613765565b60008261391a5761391a6137a7565b500690565b600081600019048311821515161561393957613939613765565b500290565b815160009082906020808601845b838110156139685781518552938201939082019060010161394c565b50929695505050505050565b7f416363657373436f6e74726f6c3a206163636f756e74200000000000000000008152600083516139ac8160178501602088016137e7565b7001034b99036b4b9b9b4b733903937b6329607d1b60179184019182015283516139dd8160288401602088016137e7565b01602801949350505050565b602081526000610b7c602083018461380b565b600081613a0b57613a0b613765565b506000190190565b634e487b7160e01b600052603160045260246000fdfe65d7a28e3265b37a6474929f336521b332c1681b933f6cb9f3376673440d862aa26469706673582212204e792ad2c78f4db08275fefb464501157e4875342a1c0d6c93933cbceecfe0e964736f6c63430008100033608060405234801561001057600080fd5b5060405161067038038061067083398101604081905261002f9161014a565b6100383361009a565b806001600160401b0381111561005057610050610163565b604051908082528060200260200182016040528015610079578160200160208202803683370190505b50805161008e916001916020909101906100ea565b50506000600255610179565b600080546001600160a01b038381166001600160a01b0319831681178455604051919092169283917f8be0079c531659141344cd1fd0a4f28419497f9722a3daafe3b4186f6b6457e09190a35050565b828054828255906000526020600020908101928215610125579160200282015b8281111561012557825182559160200191906001019061010a565b50610131929150610135565b5090565b5b808211156101315760008155600101610136565b60006020828403121561015c57600080fd5b5051919050565b634e487b7160e01b600052604160045260246000fd5b6104e8806101886000396000f3fe608060405234801561001057600080fd5b506004361061007d5760003560e01c80638da5cb5b1161005b5780638da5cb5b146100d557806396e494e8146100f0578063e0886f9014610103578063f2fde38b1461011657600080fd5b80631d1a696d146100825780632d287e43146100aa578063715018a6146100cb575b600080fd5b6100956100903660046103e3565b610129565b60405190151581526020015b60405180910390f35b6100bd6100b83660046103e3565b610194565b6040519081526020016100a1565b6100d36101ee565b005b6000546040516001600160a01b0390911681526020016100a1565b6100956100fe3660046103e3565b610202565b6100bd6101113660046103e3565b610237565b6100d36101243660046103fc565b610297565b60008061013d600254600180549050610310565b905060005b8181101561018a57836001828154811061015e5761015e610425565b906000526020600020015403610178575060019392505050565b8061018281610451565b915050610142565b5060009392505050565b6002546001546000919082906101aa908361046a565b905083600182815481106101c0576101c0610425565b90600052602060002001819055506001600260008282546101e1919061048c565b9091555091949350505050565b6101f661032a565b6102006000610384565b565b6001546002546000919083108015610230575080610222600254836103d4565b61022c919061049f565b8310155b9392505050565b600061024282610202565b6102675760405163b52d71f360e01b8152600481018390526024015b60405180910390fd5b60018054610275908461046a565b8154811061028557610285610425565b90600052602060002001549050919050565b61029f61032a565b6001600160a01b0381166103045760405162461bcd60e51b815260206004820152602660248201527f4f776e61626c653a206e6577206f776e657220697320746865207a65726f206160448201526564647265737360d01b606482015260840161025e565b61030d81610384565b50565b600081831061031f5781610321565b825b90505b92915050565b6000546001600160a01b031633146102005760405162461bcd60e51b815260206004820181905260248201527f4f776e61626c653a2063616c6c6572206973206e6f7420746865206f776e6572604482015260640161025e565b600080546001600160a01b038381166001600160a01b0319831681178455604051919092169283917f8be0079c531659141344cd1fd0a4f28419497f9722a3daafe3b4186f6b6457e09190a35050565b600081831161031f5781610321565b6000602082840312156103f557600080fd5b5035919050565b60006020828403121561040e57600080fd5b81356001600160a01b038116811461023057600080fd5b634e487b7160e01b600052603260045260246000fd5b634e487b7160e01b600052601160045260246000fd5b6000600182016104635761046361043b565b5060010190565b60008261048757634e487b7160e01b600052601260045260246000fd5b500690565b808201808211156103245761032461043b565b818103818111156103245761032461043b56fea2646970667358221220e8ca9fd7cf1cda9c87af618488dd664329a5f2e0ac050a78694b39389150ab1e64736f6c63430008100033",
  "linkReferences": {},
  "deployedLinkReferences": {}
}