{
  "_format": "hh-sol-artifact-1",
  "contractName": "FixedPriceFlow",
  "sourceName": "contracts/dataFlow/FixedPriceFlow.sol",
  "abi": [
    {
      "inputs": [
        {
          "internalType": "uint256",
          "name": "blocksPerEpoch_",
          "type": "uint256"
        },
        {
          "internalType": "uint256",
          "name": "deployDelay_",
          "type": "uint256"
        }
      ],
      "stateMutability": "nonpayable",
      "type": "constructor"
    },
    {
      "inputs": [],
      "name": "InvalidSubmission",
      "type": "error"
    },
    {
      "inputs": [
        {
          "internalType": "uint256",
          "name": "price",
          "type": "uint256"
        },
        {
          "internalType": "uint256",
          "name": "amount",
          "type": "uint256"
        },
        {
          "internalType": "uint256",
          "name": "paid",
          "type": "uint256"
        }
      ],
      "name": "NotEnoughFee",
      "type": "error"
    },
    {
      "anonymous": false,
      "inputs": [
        {
          "indexed": true,
          "internalType": "address",
          "name": "sender",
          "type": "address"
        },
        {
          "indexed": true,
          "internalType": "uint256",
          "name": "index",
          "type": "uint256"
        },
        {
          "indexed": false,
          "internalType": "bytes32",
          "name": "startMerkleRoot",
          "type": "bytes32"
        },
        {
          "indexed": false,
          "internalType": "uint256",
          "name": "submissionIndex",
          "type": "uint256"
        },
        {
          "indexed": false,
          "internalType": "uint256",
          "name": "flowLength",
          "type": "uint256"
        },
        {
          "indexed": false,
          "internalType": "bytes32",
          "name": "context",
          "type": "bytes32"
        }
      ],
      "name": "NewEpoch",
      "type": "event"
    },
    {
      "anonymous": false,
      "inputs": [
        {
          "indexed": false,
          "internalType": "address",
          "name": "account",
          "type": "address"
        }
      ],
      "name": "Paused",
      "type": "event"
    },
    {
      "anonymous": false,
      "inputs": [
        {
          "indexed": true,
          "internalType": "bytes32",
          "name": "role",
          "type": "bytes32"
        },
        {
          "indexed": true,
          "internalType": "bytes32",
          "name": "previousAdminRole",
          "type": "bytes32"
        },
        {
          "indexed": true,
          "internalType": "bytes32",
          "name": "newAdminRole",
          "type": "bytes32"
        }
      ],
      "name": "RoleAdminChanged",
      "type": "event"
    },
    {
      "anonymous": false,
      "inputs": [
        {
          "indexed": true,
          "internalType": "bytes32",
          "name": "role",
          "type": "bytes32"
        },
        {
          "indexed": true,
          "internalType": "address",
          "name": "account",
          "type": "address"
        },
        {
          "indexed": true,
          "internalType": "address",
          "name": "sender",
          "type": "address"
        }
      ],
      "name": "RoleGranted",
      "type": "event"
    },
    {
      "anonymous": false,
      "inputs": [
        {
          "indexed": true,
          "internalType": "bytes32",
          "name": "role",
          "type": "bytes32"
        },
        {
          "indexed": true,
          "internalType": "address",
          "name": "account",
          "type": "address"
        },
        {
          "indexed": true,
          "internalType": "address",
          "name": "sender",
          "type": "address"
        }
      ],
      "name": "RoleRevoked",
      "type": "event"
    },
    {
      "anonymous": false,
      "inputs": [
        {
          "indexed": true,
          "internalType": "address",
          "name": "sender",
          "type": "address"
        },
        {
          "indexed": true,
          "internalType": "bytes32",
          "name": "identity",
          "type": "bytes32"
        },
        {
          "indexed": false,
          "internalType": "uint256",
          "name": "submissionIndex",
          "type": "uint256"
        },
        {
          "indexed": false,
          "internalType": "uint256",
          "name": "startPos",
          "type": "uint256"
        },
        {
          "indexed": false,
          "internalType": "uint256",
          "name": "length",
          "type": "uint256"
        },
        {
          "components": [
            {
              "internalType": "uint256",
              "name": "length",
              "type": "uint256"
            },
            {
              "internalType": "bytes",
              "name": "tags",
              "type": "bytes"
            },
            {
              "components": [
                {
                  "internalType": "bytes32",
                  "name": "root",
                  "type": "bytes32"
                },
                {
                  "internalType": "uint256",
                  "name": "height",
                  "type": "uint256"
                }
              ],
              "internalType": "struct SubmissionNode[]",
              "name": "nodes",
              "type": "tuple[]"
            }
          ],
          "indexed": false,
          "internalType": "struct Submission",
          "name": "submission",
          "type": "tuple"
        }
      ],
      "name": "Submit",
      "type": "event"
    },
    {
      "anonymous": false,
      "inputs": [
        {
          "indexed": false,
          "internalType": "address",
          "name": "account",
          "type": "address"
        }
      ],
      "name": "Unpaused",
      "type": "event"
    },
    {
      "inputs": [],
      "name": "DEFAULT_ADMIN_ROLE",
      "outputs": [
        {
          "internalType": "bytes32",
          "name": "",
          "type": "bytes32"
        }
      ],
      "stateMutability": "view",
      "type": "function"
    },
    {
      "inputs": [],
      "name": "PAUSER_ROLE",
      "outputs": [
        {
          "internalType": "bytes32",
          "name": "",
          "type": "bytes32"
        }
      ],
      "stateMutability": "view",
      "type": "function"
    },
    {
      "inputs": [
        {
          "components": [
            {
              "internalType": "uint256",
              "name": "length",
              "type": "uint256"
            },
            {
              "internalType": "bytes",
              "name": "tags",
              "type": "bytes"
            },
            {
              "components": [
                {
                  "internalType": "bytes32",
                  "name": "root",
                  "type": "bytes32"
                },
                {
                  "internalType": "uint256",
                  "name": "height",
                  "type": "uint256"
                }
              ],
              "internalType": "struct SubmissionNode[]",
              "name": "nodes",
              "type": "tuple[]"
            }
          ],
          "internalType": "struct Submission[]",
          "name": "submissions",
          "type": "tuple[]"
        }
      ],
      "name": "batchSubmit",
      "outputs": [
        {
          "internalType": "uint256[]",
          "name": "indexes",
          "type": "uint256[]"
        },
        {
          "internalType": "bytes32[]",
          "name": "digests",
          "type": "bytes32[]"
        },
        {
          "internalType": "uint256[]",
          "name": "startIndexes",
          "type": "uint256[]"
        },
        {
          "internalType": "uint256[]",
          "name": "lengths",
          "type": "uint256[]"
        }
      ],
      "stateMutability": "payable",
      "type": "function"
    },
    {
      "inputs": [],
      "name": "blocksPerEpoch",
      "outputs": [
        {
          "internalType": "uint256",
          "name": "",
          "type": "uint256"
        }
      ],
      "stateMutability": "view",
      "type": "function"
    },
    {
      "inputs": [],
      "name": "epoch",
      "outputs": [
        {
          "internalType": "uint256",
          "name": "",
          "type": "uint256"
        }
      ],
      "stateMutability": "view",
      "type": "function"
    },
    {
      "inputs": [],
      "name": "epochStartPosition",
      "outputs": [
        {
          "internalType": "uint256",
          "name": "",
          "type": "uint256"
        }
      ],
      "stateMutability": "view",
      "type": "function"
    },
    {
      "inputs": [],
      "name": "firstBlock",
      "outputs": [
        {
          "internalType": "uint256",
          "name": "",
          "type": "uint256"
        }
      ],
      "stateMutability": "view",
      "type": "function"
    },
    {
      "inputs": [],
      "name": "getContext",
      "outputs": [
        {
          "components": [
            {
              "internalType": "uint256",
              "name": "epoch",
              "type": "uint256"
            },
            {
              "internalType": "uint256",
              "name": "mineStart",
              "type": "uint256"
            },
            {
              "internalType": "bytes32",
              "name": "flowRoot",
              "type": "bytes32"
            },
            {
              "internalType": "uint256",
              "name": "flowLength",
              "type": "uint256"
            },
            {
              "internalType": "bytes32",
              "name": "blockDigest",
              "type": "bytes32"
            },
            {
              "internalType": "bytes32",
              "name": "digest",
              "type": "bytes32"
            }
          ],
          "internalType": "struct MineContext",
          "name": "",
          "type": "tuple"
        }
      ],
      "stateMutability": "view",
      "type": "function"
    },
    {
      "inputs": [
        {
          "internalType": "bytes32",
          "name": "digest",
          "type": "bytes32"
        }
      ],
      "name": "getEpochRange",
      "outputs": [
        {
          "components": [
            {
              "internalType": "uint128",
              "name": "start",
              "type": "uint128"
            },
            {
              "internalType": "uint128",
              "name": "end",
              "type": "uint128"
            }
          ],
          "internalType": "struct EpochRange",
          "name": "",
          "type": "tuple"
        }
      ],
      "stateMutability": "view",
      "type": "function"
    },
    {
      "inputs": [
        {
          "internalType": "uint256",
          "name": "txSeq",
          "type": "uint256"
        }
      ],
      "name": "getFlowRootByTxSeq",
      "outputs": [
        {
          "internalType": "bytes32",
          "name": "",
          "type": "bytes32"
        }
      ],
      "stateMutability": "view",
      "type": "function"
    },
    {
      "inputs": [
        {
          "internalType": "bytes32",
          "name": "role",
          "type": "bytes32"
        }
      ],
      "name": "getRoleAdmin",
      "outputs": [
        {
          "internalType": "bytes32",
          "name": "",
          "type": "bytes32"
        }
      ],
      "stateMutability": "view",
      "type": "function"
    },
    {
      "inputs": [
        {
          "internalType": "bytes32",
          "name": "role",
          "type": "bytes32"
        },
        {
          "internalType": "uint256",
          "name": "index",
          "type": "uint256"
        }
      ],
      "name": "getRoleMember",
      "outputs": [
        {
          "internalType": "address",
          "name": "",
          "type": "address"
        }
      ],
      "stateMutability": "view",
      "type": "function"
    },
    {
      "inputs": [
        {
          "internalType": "bytes32",
          "name": "role",
          "type": "bytes32"
        }
      ],
      "name": "getRoleMemberCount",
      "outputs": [
        {
          "internalType": "uint256",
          "name": "",
          "type": "uint256"
        }
      ],
      "stateMutability": "view",
      "type": "function"
    },
    {
      "inputs": [
        {
          "internalType": "bytes32",
          "name": "role",
          "type": "bytes32"
        },
        {
          "internalType": "address",
          "name": "account",
          "type": "address"
        }
      ],
      "name": "grantRole",
      "outputs": [],
      "stateMutability": "nonpayable",
      "type": "function"
    },
    {
      "inputs": [
        {
          "internalType": "bytes32",
          "name": "role",
          "type": "bytes32"
        },
        {
          "internalType": "address",
          "name": "account",
          "type": "address"
        }
      ],
      "name": "hasRole",
      "outputs": [
        {
          "internalType": "bool",
          "name": "",
          "type": "bool"
        }
      ],
      "stateMutability": "view",
      "type": "function"
    },
    {
      "inputs": [
        {
          "internalType": "address",
          "name": "market_",
          "type": "address"
        }
      ],
      "name": "initialize",
      "outputs": [],
      "stateMutability": "nonpayable",
      "type": "function"
    },
    {
      "inputs": [],
      "name": "initialized",
      "outputs": [
        {
          "internalType": "bool",
          "name": "",
          "type": "bool"
        }
      ],
      "stateMutability": "view",
      "type": "function"
    },
    {
      "inputs": [],
      "name": "makeContext",
      "outputs": [],
      "stateMutability": "nonpayable",
      "type": "function"
    },
    {
      "inputs": [
        {
          "internalType": "uint256",
          "name": "cnt",
          "type": "uint256"
        }
      ],
      "name": "makeContextFixedTimes",
      "outputs": [],
      "stateMutability": "nonpayable",
      "type": "function"
    },
    {
      "inputs": [],
      "name": "makeContextWithResult",
      "outputs": [
        {
          "components": [
            {
              "internalType": "uint256",
              "name": "epoch",
              "type": "uint256"
            },
            {
              "internalType": "uint256",
              "name": "mineStart",
              "type": "uint256"
            },
            {
              "internalType": "bytes32",
              "name": "flowRoot",
              "type": "bytes32"
            },
            {
              "internalType": "uint256",
              "name": "flowLength",
              "type": "uint256"
            },
            {
              "internalType": "bytes32",
              "name": "blockDigest",
              "type": "bytes32"
            },
            {
              "internalType": "bytes32",
              "name": "digest",
              "type": "bytes32"
            }
          ],
          "internalType": "struct MineContext",
          "name": "",
          "type": "tuple"
        }
      ],
      "stateMutability": "nonpayable",
      "type": "function"
    },
    {
      "inputs": [],
      "name": "market",
      "outputs": [
        {
          "internalType": "address payable",
          "name": "",
          "type": "address"
        }
      ],
      "stateMutability": "view",
      "type": "function"
    },
    {
      "inputs": [],
      "name": "numSubmissions",
      "outputs": [
        {
          "internalType": "uint256",
          "name": "",
          "type": "uint256"
        }
      ],
      "stateMutability": "view",
      "type": "function"
    },
    {
      "inputs": [],
      "name": "pause",
      "outputs": [],
      "stateMutability": "nonpayable",
      "type": "function"
    },
    {
      "inputs": [],
      "name": "paused",
      "outputs": [
        {
          "internalType": "bool",
          "name": "",
          "type": "bool"
        }
      ],
      "stateMutability": "view",
      "type": "function"
    },
    {
      "inputs": [
        {
          "internalType": "uint128",
          "name": "targetPosition",
          "type": "uint128"
        }
      ],
      "name": "queryContextAtPosition",
      "outputs": [
        {
          "components": [
            {
              "internalType": "uint128",
              "name": "start",
              "type": "uint128"
            },
            {
              "internalType": "uint128",
              "name": "end",
              "type": "uint128"
            },
            {
              "internalType": "bytes32",
              "name": "digest",
              "type": "bytes32"
            }
          ],
          "internalType": "struct EpochRangeWithContextDigest",
          "name": "range",
          "type": "tuple"
        }
      ],
      "stateMutability": "nonpayable",
      "type": "function"
    },
    {
      "inputs": [
        {
          "internalType": "bytes32",
          "name": "role",
          "type": "bytes32"
        },
        {
          "internalType": "address",
          "name": "account",
          "type": "address"
        }
      ],
      "name": "renounceRole",
      "outputs": [],
      "stateMutability": "nonpayable",
      "type": "function"
    },
    {
      "inputs": [
        {
          "internalType": "bytes32",
          "name": "role",
          "type": "bytes32"
        },
        {
          "internalType": "address",
          "name": "account",
          "type": "address"
        }
      ],
      "name": "revokeRole",
      "outputs": [],
      "stateMutability": "nonpayable",
      "type": "function"
    },
    {
      "inputs": [],
      "name": "rootHistory",
      "outputs": [
        {
          "internalType": "contract IDigestHistory",
          "name": "",
          "type": "address"
        }
      ],
      "stateMutability": "view",
      "type": "function"
    },
    {
      "inputs": [],
      "name": "submissionIndex",
      "outputs": [
        {
          "internalType": "uint256",
          "name": "",
          "type": "uint256"
        }
      ],
      "stateMutability": "view",
      "type": "function"
    },
    {
      "inputs": [
        {
          "components": [
            {
              "internalType": "uint256",
              "name": "length",
              "type": "uint256"
            },
            {
              "internalType": "bytes",
              "name": "tags",
              "type": "bytes"
            },
            {
              "components": [
                {
                  "internalType": "bytes32",
                  "name": "root",
                  "type": "bytes32"
                },
                {
                  "internalType": "uint256",
                  "name": "height",
                  "type": "uint256"
                }
              ],
              "internalType": "struct SubmissionNode[]",
              "name": "nodes",
              "type": "tuple[]"
            }
          ],
          "internalType": "struct Submission",
          "name": "submission",
          "type": "tuple"
        }
      ],
      "name": "submit",
      "outputs": [
        {
          "internalType": "uint256",
          "name": "",
          "type": "uint256"
        },
        {
          "internalType": "bytes32",
          "name": "",
          "type": "bytes32"
        },
        {
          "internalType": "uint256",
          "name": "",
          "type": "uint256"
        },
        {
          "internalType": "uint256",
          "name": "",
          "type": "uint256"
        }
      ],
      "stateMutability": "payable",
      "type": "function"
    },
    {
      "inputs": [
        {
          "internalType": "bytes4",
          "name": "interfaceId",
          "type": "bytes4"
        }
      ],
      "name": "supportsInterface",
      "outputs": [
        {
          "internalType": "bool",
          "name": "",
          "type": "bool"
        }
      ],
      "stateMutability": "view",
      "type": "function"
    },
    {
      "inputs": [],
      "name": "tree",
      "outputs": [
        {
          "internalType": "uint256",
          "name": "currentLength",
          "type": "uint256"
        },
        {
          "internalType": "uint256",
          "name": "unstagedHeight",
          "type": "uint256"
        }
      ],
      "stateMutability": "view",
      "type": "function"
    },
    {
      "inputs": [],
      "name": "unpause",
      "outputs": [],
      "stateMutability": "nonpayable",
      "type": "function"
    }
  ],
  "bytecode": "0x60e06040523480156200001157600080fd5b5060405162004210380380620042108339810160408190526200003491620000b1565b6000805460ff1916905560a0829052604051829082906103e8906200005990620000a3565b908152602001604051809103906000f0801580156200007c573d6000803e3d6000fd5b506001600160a01b0316608052620000958143620000d6565b60c05250620000fe92505050565b6106708062003ba083390190565b60008060408385031215620000c557600080fd5b505080516020909101519092909150565b80820180821115620000f857634e487b7160e01b600052601160045260246000fd5b92915050565b60805160a05160c051613a336200016d600039600081816102d7015281816107dc01528181610a9c01528181610b8301528181610ddc01528181610ef1015281816110a501526115370152600081816106f2015261107d01526000818161062901526111100152613a336000f3fe6080604052600436106101ee5760003560e01c80638456cb591161010d578063b8a409ac116100a0578063d547741f1161006f578063d547741f1461066b578063e63ab1e91461068b578063ef3e12dc146106ad578063f0682054146106e0578063fd54b2281461071457600080fd5b8063b8a409ac146105e1578063c4d66de8146105f7578063c7dd522114610617578063ca15c8731461064b57600080fd5b806393e405a0116100dc57806393e405a01461057e5780639e62a38e14610594578063a217fddf146105b7578063b464b53e146105cc57600080fd5b80638456cb5914610513578063900cf0cf146105285780639010d07c1461053e57806391d148541461055e57600080fd5b806336568abe116101855780636d7ad0fc116101545780636d7ad0fc1461040a57806377e19824146104375780637d5907081461044c57806380f55605146104db57600080fd5b806336568abe146103a857806338d45e10146103c85780633f4ba83a146103dd5780635c975abb146103f257600080fd5b8063231b0268116101c1578063231b0268146102c5578063248a9ca3146103075780632f2ff15d1461033857806331bae1741461035857600080fd5b806301ffc9a7146101f3578063127f0f0714610228578063158ef93e1461028957806318a641ef146102a3575b600080fd5b3480156101ff57600080fd5b5061021361020e366004613242565b610744565b60405190151581526020015b60405180910390f35b34801561023457600080fd5b5061023d61076f565b60405161021f9190600060c082019050825182526020830151602083015260408301516040830152606083015160608301526080830151608083015260a083015160a083015292915050565b34801561029557600080fd5b506003546102139060ff1681565b3480156102af57600080fd5b506102c36102be36600461326c565b6107da565b005b3480156102d157600080fd5b506102f97f000000000000000000000000000000000000000000000000000000000000000081565b60405190815260200161021f565b34801561031357600080fd5b506102f961032236600461326c565b6000908152600160208190526040909120015490565b34801561034457600080fd5b506102c361035336600461329c565b610852565b34801561036457600080fd5b506103786103733660046132c8565b61087d565b6040805182516001600160801b03908116825260208085015190911690820152918101519082015260600161021f565b3480156103b457600080fd5b506102c36103c336600461329c565b610a20565b3480156103d457600080fd5b506102c3610a9a565b3480156103e957600080fd5b506102c3610ae9565b3480156103fe57600080fd5b5060005460ff16610213565b34801561041657600080fd5b506102f961042536600461326c565b60009081526045602052604090205490565b34801561044357600080fd5b50603a546102f9565b34801561045857600080fd5b506104b461046736600461326c565b6040805180820190915260008082526020820152506000908152604360209081526040918290208251808401909352546001600160801b038082168452600160801b909104169082015290565b6040805182516001600160801b03908116825260209384015116928101929092520161021f565b3480156104e757600080fd5b506036546104fb906001600160a01b031681565b6040516001600160a01b03909116815260200161021f565b34801561051f57600080fd5b506102c3610b09565b34801561053457600080fd5b506102f9603b5481565b34801561054a57600080fd5b506104fb6105593660046132f1565b610b29565b34801561056a57600080fd5b5061021361057936600461329c565b610b48565b34801561058a57600080fd5b506102f9603c5481565b6105a76105a2366004613521565b610b73565b60405161021f949392919061360c565b3480156105c357600080fd5b506102f9600081565b3480156105d857600080fd5b5061023d610da8565b3480156105ed57600080fd5b506102f9603a5481565b34801561060357600080fd5b506102c361061236600461368b565b610e2f565b34801561062357600080fd5b506104fb7f000000000000000000000000000000000000000000000000000000000000000081565b34801561065757600080fd5b506102f961066636600461326c565b610ea4565b34801561067757600080fd5b506102c361068636600461329c565b610ebb565b34801561069757600080fd5b506102f96000805160206139de83398151915281565b6106c06106bb3660046136a6565b610ee1565b60408051948552602085019390935291830152606082015260800161021f565b3480156106ec57600080fd5b506102f97f000000000000000000000000000000000000000000000000000000000000000081565b34801561072057600080fd5b5060375460385461072f919082565b6040805192835260208301919091520161021f565b60006001600160e01b03198216635a05180f60e01b1480610769575061076982611043565b92915050565b6040805160c081018252600080825260208201819052918101829052606081018290526080810182905260a0810191909152506040805160c081018252603d548152603e546020820152603f548183015290546060820152604154608082015260425460a082015290565b7f00000000000000000000000000000000000000000000000000000000000000004310156108235760405162461bcd60e51b815260040161081a906136e2565b60405180910390fd5b60005b81811161084d57610835611078565b61083d575050565b6108468161372f565b9050610826565b505b50565b6000828152600160208190526040909120015461086e8161139c565b61087883836113a6565b505050565b60408051606081018252600080825260208201819052918101919091526108a2610a9a565b6037546001600160801b038316106109085760405162461bcd60e51b8152602060048201526024808201527f5175657269656420706f736974696f6e206578636565647320757070657220626044820152631bdd5b9960e21b606482015260840161081a565b6044546000905b818111156109d857600060026109258484613748565b61092f9190613771565b90506044818154811061094457610944613785565b600091825260209182902060408051606081018252600290930290910180546001600160801b038082168552600160801b9091048116948401859052600190910154918301919091529095508616106109a9576109a2816001613748565b92506109d2565b83600001516001600160801b0316856001600160801b0316106109ce57505050919050565b8091505b5061090f565b60405162461bcd60e51b815260206004820152601b60248201527f43616e206e6f742066696e642070726f70657220636f6e746578740000000000604482015260640161081a565b6001600160a01b0381163314610a905760405162461bcd60e51b815260206004820152602f60248201527f416363657373436f6e74726f6c3a2063616e206f6e6c792072656e6f756e636560448201526e103937b632b9903337b91039b2b63360891b606482015260840161081a565b61084d82826113c8565b7f0000000000000000000000000000000000000000000000000000000000000000431015610ada5760405162461bcd60e51b815260040161081a906136e2565b610ae2611078565b610ada575b565b6000805160206139de833981519152610b018161139c565b61084f6113ea565b6000805160206139de833981519152610b218161139c565b61084f61143c565b6000828152600260205260408120610b419083611479565b9392505050565b60009182526001602090815260408084206001600160a01b0393909316845291905290205460ff1690565b606080606080610b81611485565b7f0000000000000000000000000000000000000000000000000000000000000000431015610bc15760405162461bcd60e51b815260040161081a906136e2565b8451806001600160401b03811115610bdb57610bdb613313565b604051908082528060200260200182016040528015610c04578160200160208202803683370190505b509450806001600160401b03811115610c1f57610c1f613313565b604051908082528060200260200182016040528015610c48578160200160208202803683370190505b509350806001600160401b03811115610c6357610c63613313565b604051908082528060200260200182016040528015610c8c578160200160208202803683370190505b509250806001600160401b03811115610ca757610ca7613313565b604051908082528060200260200182016040528015610cd0578160200160208202803683370190505b50915060005b81811015610d9f57600080600080610d068b8681518110610cf957610cf9613785565b6020026020010151610ee1565b9350935093509350838a8681518110610d2157610d21613785565b60200260200101818152505082898681518110610d4057610d40613785565b60200260200101818152505081888681518110610d5f57610d5f613785565b60200260200101818152505080878681518110610d7e57610d7e613785565b6020026020010181815250505050505080610d989061372f565b9050610cd6565b50509193509193565b6040805160c081018252600080825260208201819052918101829052606081018290526080810182905260a08101919091527f0000000000000000000000000000000000000000000000000000000000000000431015610e1a5760405162461bcd60e51b815260040161081a906136e2565b610e22610a9a565b610e2a61076f565b905090565b60035460ff1615610e8e5760405162461bcd60e51b8152602060048201526024808201527f5a67496e697469616c697a61626c653a20616c726561647920696e697469616c6044820152631a5e995960e21b606482015260840161081a565b6003805460ff1916600117905561084f816114cb565b6000818152600260205260408120610769906115f1565b60008281526001602081905260409091200154610ed78161139c565b61087883836113c8565b600080600080610eef611485565b7f0000000000000000000000000000000000000000000000000000000000000000431015610f2f5760405162461bcd60e51b815260040161081a906136e2565b610f38856115fb565b610f795760405162461bcd60e51b815260206004820152601260248201527124b73b30b634b21039bab136b4b9b9b4b7b760711b604482015260640161081a565b6000610f8486611812565b9050610f8f81611870565b610f97610a9a565b6000610fa287611962565b90506000610faf88611aa2565b603a80549192506001906000610fc58385613748565b90915550610fd590506037611b7f565b604560008381526020019081526020016000208190555081336001600160a01b03167f167ce04d2aa1981994d3a31695da0d785373335b1078cec239a1a3a2c76755558386888e60405161102c94939291906137eb565b60405180910390a396509450925090509193509193565b60006001600160e01b03198216637965db0b60e01b148061076957506301ffc9a760e01b6001600160e01b0319831614610769565b6000807f0000000000000000000000000000000000000000000000000000000000000000603b54600101027f00000000000000000000000000000000000000000000000000000000000000000190504381106110d657600091505090565b6110e06037611bb7565b60006110ec6037611b7f565b604051632d287e4360e01b8152600481018290529091506000906001600160a01b037f00000000000000000000000000000000000000000000000000000000000000001690632d287e43906024016020604051808303816000875af1158015611159573d6000803e3d6000fd5b505050506040513d601f19601f8201168201806040525081019061117d919061387d565b9050603b54811461119057611190613896565b600080436111a086610100613748565b10156111d057507fc5d2460186f7233c927e7db2dcc703c0e500b653ca82273b7bfad8045d85a4709050806112df565b506037546040805186406020820181905291810186905260608101929092529060800160408051808303601f190181528282528051602091820120603c80546037805487870187526001600160801b039283168089529083168689018181526000878152604389528981209a519151918616600160801b928716830217909a558851606081018a529283529682019081529681018581526044805460018101825599529051965196831696909216909402949094177f9b22d3d61959b4d3528b1d8ba932c96fbe302b36a1aad1d95cab54f9e0a135ea60029096029586015592517f9b22d3d61959b4d3528b1d8ba932c96fbe302b36a1aad1d95cab54f9e0a135eb9094019390935554905591505b6001603b60008282546112f29190613748565b90915550506040805160c081018252603b5480825260208083018990528284018890526037546060808501829052608080860188905260a0909501889052603d849055603e8b9055603f8a905581865560418790556042889055603a5486518b815293840152948201529283018590529133917fbc8a3fd82465d43f1709e44ed882f7e1af0147274196ef1ec009f5d52ff4e993910160405180910390a360019550505050505090565b61084f8133611ce6565b6113b08282611d3f565b60008281526002602052604090206108789082611daa565b6113d28282611dbf565b60008281526002602052604090206108789082611e26565b6113f2611e3b565b6000805460ff191690557f5db9ee0a495bf2e6ff9c91a7834c1ba4fdd244a5e8aa4e537bd38aeae4b073aa335b6040516001600160a01b03909116815260200160405180910390a1565b611444611485565b6000805460ff191660011790557f62e78cea01bee320cd4e420270b5ea74000d11b0c9f74754ebdbfc544b05a25861141f3390565b6000610b418383611e84565b60005460ff1615610ae75760405162461bcd60e51b815260206004820152601060248201526f14185d5cd8589b194e881c185d5cd95960821b604482015260640161081a565b6001603781905560398054808301825560009182527fdc16fef70f8d5ddbc01ee3d903d1e69c18a3c7be080eb86a81e0578814ee58d30155603855603680546001600160a01b0319166001600160a01b0383161790556000603b8190556040805160c0810182529182527f0000000000000000000000000000000000000000000000000000000000000000602083015281016115676037611b7f565b815260016020808301919091527fc5d2460186f7233c927e7db2dcc703c0e500b653ca82273b7bfad8045d85a47060408084018290526060938401919091528351603d5590830151603e5582810151603f55908201519055608081015160415560a001516042556115d9600033611eae565b61084f6000805160206139de83398151915233611eae565b6000610769825490565b600081604001515160000361161257506000919050565b6040820151805160049190611629906001906138ac565b8151811061163957611639613785565b602002602001015160200151836040015160008151811061165c5761165c613785565b60200260200101516020015161167291906138ac565b1061167f57506000919050565b6040826040015160008151811061169857611698613785565b602002602001015160200151106116b157506000919050565b60005b60018360400151516116c691906138ac565b81101561173d57826040015181815181106116e3576116e3613785565b60200260200101516020015183604001518260016117019190613748565b8151811061171157611711613785565b6020026020010151602001511061172b5750600092915050565b806117358161372f565b9150506116b4565b50600061174983611812565b9050611757610100826138bf565b835111156117685750600092915050565b600060108210156117855761177e6001836138ac565b90506117eb565b8360400151516001036117a05761177e600483901c836138ac565b600484604001516000815181106117b9576117b9613785565b6020026020010151602001516117cf91906138ac565b6117da906001613748565b6117e8906001901b836138ac565b90505b6117f7610100826138bf565b845111611808575060009392505050565b5060019392505050565b600080805b836040015151811015611869578360400151818151811061183a5761183a613785565b6020026020010151602001516001901b826118559190613748565b9150806118618161372f565b915050611817565b5092915050565b603654604080516330f6284160e11b815290516000926001600160a01b0316916361ec50829160048083019260209291908290030181865afa1580156118ba573d6000803e3d6000fd5b505050506040513d601f19601f820116820180604052508101906118de919061387d565b905060006118ec82846138bf565b9050474782111561192157604051637c2e324160e11b815260048101849052602481018590526044810182905260640161081a565b6036546040516001600160a01b039091169083156108fc029084906000818181858888f1935050505015801561195b573d6000803e3d6000fd5b5050505050565b603780546000916119739084611eb8565b60005b836040015151811015611a0b5760008460400151828151811061199b5761199b613785565b60200260200101516000015190506000856040015183815181106119c1576119c1613785565b602002602001015160200151905060006119e783836037611fd69092919063ffffffff16565b9050836000036119f5578095505b5050508080611a039061372f565b915050611976565b506000611a1882846138ac565b9050600083603760000154611a2d91906138ac565b603654604051636d3759b560e11b81526004810186905260248101839052604481018590529192506001600160a01b03169063da6eb36a90606401600060405180830381600087803b158015611a8257600080fd5b505af1158015611a96573d6000803e3d6000fd5b50505050505050919050565b6000808260400151516001600160401b03811115611ac257611ac2613313565b604051908082528060200260200182016040528015611aeb578160200160208202803683370190505b50905060005b836040015151811015611b4f5783604001518181518110611b1457611b14613785565b602002602001015160000151828281518110611b3257611b32613785565b602090810291909101015280611b478161372f565b915050611af1565b5080604051602001611b6191906138de565b60405160208183030381529060405280519060200120915050919050565b60028101805460009190611b95906001906138ac565b81548110611ba557611ba5613785565b90600052602060002001549050919050565b6002810154600182015403611bc95750565b60028101805460018084015491926000929091611be5916138ac565b81548110611bf557611bf5613785565b906000526020600020015490506000611c1d60018560010154611c1891906138ac565b61214f565b60018501549091505b83811015611cdb57604080516020808201869052818301859052825180830384018152606090920190925280519101208554611c6690600290841c613914565b600003611ca257809350611c798261214f565b925080866002018381548110611c9157611c91613785565b600091825260209091200155611cc8565b856002018281548110611cb757611cb7613785565b906000526020600020015493508092505b5080611cd38161372f565b915050611c26565b505050600190910155565b611cf08282610b48565b61084d57611cfd81612d53565b611d08836020612d65565b604051602001611d19929190613928565b60408051601f198184030181529082905262461bcd60e51b825261081a9160040161399d565b611d498282610b48565b61084d5760008281526001602081815260408084206001600160a01b0386168086529252808420805460ff19169093179092559051339285917f2f8788117e7eff1d82e926ec794901d17c78024a50270940304540a733656f0d9190a45050565b6000610b41836001600160a01b038416612f00565b611dc98282610b48565b1561084d5760008281526001602090815260408083206001600160a01b0385168085529252808320805460ff1916905551339285917ff6391f5c32d9c69d2a47ea670b442974b53935d1edc7fd64eb21e047a839171b9190a45050565b6000610b41836001600160a01b038416612f4f565b60005460ff16610ae75760405162461bcd60e51b815260206004820152601460248201527314185d5cd8589b194e881b9bdd081c185d5cd95960621b604482015260640161081a565b6000826000018281548110611e9b57611e9b613785565b9060005260206000200154905092915050565b61084d82826113a6565b6000611ec382611812565b90506000611ef784600001548460400151600081518110611ee657611ee6613785565b602002602001015160200151613042565b9050610100611f08610400826138bf565b611f129190613771565b611f1c9082613914565b15801590611f785750610100611f34610400826138bf565b611f3e9190613771565b611f488383613748565b611f529190613771565b610100611f61610400826138bf565b611f6b9190613771565b611f759083613771565b14155b15611fd057610100611f8c610400826138bf565b611f969190613771565b611fa09082613914565b610100611faf610400826138bf565b611fb99190613771565b611fc39083613748565b611fcd91906138ac565b84555b50505050565b600080611fe7856000015484613042565b90506000611ff86001851b83613748565b600287015490915061200c906001906138ac565b6001901b81111561205e5761202086611bb7565b6120298661307a565b600286015461203a906001906138ac565b6001901b8111156120535761204e8661307a565b612029565b600286015460018701555b600286015461206d878661310d565b60008087875b8481101561213157612088600288831c613914565b6000036120c657818b60020182815481106120a5576120a5613785565b6000918252602090912001556120bc816001613748565b60018c0155612131565b8a60020181815481106120db576120db613785565b906000526020600020015493508192508383604051602001612107929190918252602082015260400190565b604051602081830303815290604052805190602001209150806121298161372f565b915050612073565b5061213f6001891b87613748565b9099555092979650505050505050565b60008160000361218057507fd397b3b043d87fcd6fad1291ff0bfd16401c274896d8c63a923727f077b8e0b5919050565b816001036121af57507ff73e6947d7d1628b9976a6e40d7b278a8a16405e96324a68df45b12a51b7cfde919050565b816002036121de57507fa1520264ae93cac619e22e8718fc4fa7ebdd23f493cad602434d2a58ff4868fb919050565b8160030361220d57507fde5747106ac1194a1fa9071dbd6cf19dc2bc7964497ef0afec7e4bdbcf08c47e919050565b8160040361223c57507f09c7082879180d28c789c05fafe7030871c76cedbe82c948b165d6a1d66ac15b919050565b8160050361226b57507faa7a02bcf29fba687f84123c808b5b48834ff5395abe98e622fadc14e4180c95919050565b8160060361229a57507f7608fd46b710b589e0f2ee5a13cd9c41d432858a30d524f84c6d5db37f66273a919050565b816007036122c957507fa5d9a2f7f3573ac9a1366bc484688b4daf934b87ea9b3bf2e703da8fd9f09708919050565b816008036122f857507f6c1779477f4c3fca26b4607398859a43b90a286ce8062500744bd4949981757f919050565b8160090361232757507f45c22df3d952c33d5edce122eed85e5cda3fd61939e7ad7b3e03b6927bb598ea919050565b81600a0361235657507fe68d02859bb6211cec64f52368b77d422de3b8eac34bf615942b814b643301b5919050565b81600b0361238557507f62d78399b954d51cb9728601738ad13ddc43b2300064660716bb661d2f4d686f919050565b81600c036123b457507f6e250d9abdbbb3993fce08de0395cdb56f0483e67d8762a798de011f6a50866a919050565b81600d036123e357507f1d1a3a74062fd94078617e33eb901eaf16a830f67c387d8eed342db2ac5e2cc5919050565b81600e0361241257507f19b3b3886526917eae8650223d0be20a0301be960eb339696e673ad8a804440f919050565b81600f0361244157507fee9e05df53f10e62a897e5140a3f58732dd849e69cd1d62b21ed80ead711a014919050565b8160100361247057507f2cc7aa6e611a113a34505dc1c96b220f14909b70e2c2c7b1a74655da21013c5e919050565b8160110361249f57507f949b52dfece7ca3bad3cb27f7750ecaee64cedb6243a275c35984e92956c530a919050565b816012036124ce57507fb2680d060b763b932c150434c3812ba9fbc50937e0ebcf5758de884be81bab65919050565b816013036124fd57507f523aebf4a085edbc9c8cdc99c83f46262e5f029b395ff7bf561a48a3f387e6b8919050565b8160140361252c57507fc9ab73827ab33c0cedb7ecf0ed2e6e32583c0fe887133a7f381ea4ba84d95b76919050565b8160150361255b57507f23eb397dec7e564ebe97f160a5e1081a77d9861f316807079b6be4731beb331e919050565b8160160361258a57507fdfa44a274c60f090df034aaf75539fd40e94cfd6362dd53d26ed20c8ad529563919050565b816017036125b957507f15b13ee358e1044a53381243c094e54bf7aceb9b5325a0313d6b85fd44e8b3a5919050565b816018036125e857507f1a7a93871e2daa0f1860aa91d4ece4ccd012dac5fe581176a21b155cfeca6d40919050565b8160190361261757507fb12665fd0b884a7c7d1e0294d369170d7e672d9e125eb87784556305f98292df919050565b81601a0361264657507f2a5543b0b2f8cf550524390291774f4d6c8c0a25ff5393b09c44d75c92a5bd8e919050565b81601b0361267557507ff9df1841a6e7164b67a1242f1c74975137085ffd9721831f6c469d3a4d5ba42e919050565b81601c036126a457507fba24736b1b48246c1f7803be967be43ca0dddc9c2c0687a2957952249bc89371919050565b81601d036126d357507ff3f706b73790c73ca0a8f0460ac3a2a102e280415586b520e70cd5e8264388b4919050565b81601e0361270257507fc1f5a9a9f357e1c37814688cf7290c87a264ed3d6174a12b978da1c586f53825919050565b81601f0361273157507f766f7702e19ce23d426cdad03e4292a5a42c4669420101fed74400ec7cda3ac6919050565b8160200361276057507f070fec213e105b3e4d9b0434ac2fc7ca721d35093dc741fb9419797003e2394a919050565b8160210361278f57507f9a7aade05b49e43f5fd3782571cc8c90eadacd5d660b53842b4e5b63d675ae0c919050565b816022036127be57507fb27b35a8236d0f9b6692820429c025ed58ed378dc98d316b762f0c865c68be6f919050565b816023036127ed57507fdc567ad38d9b90cc9bea4e0f82ec05eca10b3aa94eddc7b63c4fd20c001bb53b919050565b8160240361281c57507fb208dfc457c8b30661ae49544c8e57399818095aab8dd7a426fb8dd56bb8c559919050565b8160250361284b57507fc4a72e1ff84f7a22631f3f95c61c392f98f52050360215a9d7e75d79b0bcd2ca919050565b8160260361287a57507fbb093ec8c0d7defb1de668b5b5dd4f2619e5cd92d29cc144862364a83ab993a8919050565b816027036128a957507fe341796f2fe3975012c1e6badfa2e9c4523e43f911dc845082c3f4d7b4ff871d919050565b816028036128d857507f42d356a11a0b39243eca3c3263299cb6f8c3e9728af6d9d8b0ddb6d354f1890d919050565b8160290361290757507f0ce506e834e3a50a33f80074bc7fa16cf3c0712b36a41b69699177ea25de6c30919050565b81602a0361293657507fd8fa5bf130aeb7756b1ed09090cc80ed78dae0617978540f0fabd06dfb978938919050565b81602b0361296557507feed69a20fe36eb604f2153efa3b01c0e143cdf02229a1b8f741c9c2719059eb0919050565b81602c0361299457507f303c9c566ebf5bfe252796e5c131a99801226152a514688b5ca6883e99031d88919050565b81602d036129c357507fc7c3765ba96cfbccf3ae718393fa89791070cc8cd85f280b6ac46aea10d96042919050565b81602e036129f257507f1ca65b0a2b8034ee6bfb1fa4526832304e393af835c2c42b4dace58048746800919050565b81602f03612a2157507f957add5e02350fd47de3a8e1da38fd774ceb31214d5897ed6315740a83cd634a919050565b81603003612a5057507f787892cb439d5d358870774e163557cf02ec3cb87be6fde11abf1acee14eeaa4919050565b81603103612a7f57507f047c0962d4f5c8f60692c587de07739528c4d2059240d61dd34d2a547a438ee6919050565b81603203612aae57507fc18727efc9e4df63020dcd90edc17dfd2ad14f02328c912b13898e0b53735556919050565b81603303612add57507fe38b9218987e451effe1648c3c9851ad03b64b052a5a3f5ca30f4d7b1ecf7120919050565b81603403612b0c57507f0e48ecb1a5418e6218289acc8cf723e67ac6eae3ecb80f644336ab4365a2f2b2919050565b81603503612b3b57507fd60e66f5b8cd08d71a1a4d7798952a7afa5a6e93a886c587a46a5500ebef4a60919050565b81603603612b6a57507f5162aa9c31d9105f689cf6e71e19548bc9f0218b7d0f99ff7fa8bc2f19c68462919050565b81603703612b9957507f6fa8519b4b0e8fb97a9b618e97627d97b9b9d29d04521fd96472e9c502700568919050565b81603803612bc857507f41f5dcf0cdee270a2ad9a5f8130aaaab94b237463e09757c28b0321f09e24eb0919050565b81603903612bf757507f87a119239fa90732197108adfd029938b4743874d959d3da79b3a30f4832899e919050565b81603a03612c2657507f8e96dbaa5c72e84a5297b040ccc1a60750a3201166e3b7740d352837233608a1919050565b81603b03612c5557507f01605058d167ce967af8c475d2f6c341c3e0b437babf899c9da73a520aa4ecb5919050565b81603c03612c8457507f04529eb80532c5118949d700d8dfd2aa86850b1c6479b26276b9486784a145ff919050565b81603d03612cb357507fd191814ad13f27361ae20a46cbac8f6e76c10ebe9af0806d6720492ee2f296f0919050565b81603e03612ce257507fa28df63f78821060570da371c0be1312188346b92a7965cc4b980b26c134a4d7919050565b81603f03612d1157507fb48a92d40b61dc995ceecee4cded6415050dcece448b1e0b5e5b6a0e6981f3ef919050565b60405162461bcd60e51b8152602060048201526012602482015271125b99195e081bdd5d081bd988189bdd5b9960721b604482015260640161081a565b919050565b60606107696001600160a01b03831660145b60606000612d748360026138bf565b612d7f906002613748565b6001600160401b03811115612d9657612d96613313565b6040519080825280601f01601f191660200182016040528015612dc0576020820181803683370190505b509050600360fc1b81600081518110612ddb57612ddb613785565b60200101906001600160f81b031916908160001a905350600f60fb1b81600181518110612e0a57612e0a613785565b60200101906001600160f81b031916908160001a9053506000612e2e8460026138bf565b612e39906001613748565b90505b6001811115612eb1576f181899199a1a9b1b9c1cb0b131b232b360811b85600f1660108110612e6d57612e6d613785565b1a60f81b828281518110612e8357612e83613785565b60200101906001600160f81b031916908160001a90535060049490941c93612eaa816139b0565b9050612e3c565b508315610b415760405162461bcd60e51b815260206004820181905260248201527f537472696e67733a20686578206c656e67746820696e73756666696369656e74604482015260640161081a565b6000818152600183016020526040812054612f4757508154600181810184556000848152602080822090930184905584548482528286019093526040902091909155610769565b506000610769565b60008181526001830160205260408120548015613038576000612f736001836138ac565b8554909150600090612f87906001906138ac565b9050818114612fec576000866000018281548110612fa757612fa7613785565b9060005260206000200154905080876000018481548110612fca57612fca613785565b6000918252602080832090910192909255918252600188019052604090208390555b8554869080612ffd57612ffd6139c7565b600190038181906000526020600020016000905590558560010160008681526020019081526020016000206000905560019350505050610769565b6000915050610769565b600082808203613056576000915050610769565b6130616001826138ac565b831c9050613070600182613748565b90921b9392505050565b6002810180549060009061308f6001846138ac565b8154811061309f5761309f613785565b600091825260208220015491506130ba611c186001856138ac565b90508360020182826040516020016130dc929190918252602082015260400190565b60408051601f1981840301815291905280516020918201208254600181018455600093845291909220015550505050565b808260010154111561311d575050565b60028201805460018085015491926000929091613139916138ac565b8154811061314957613149613785565b90600052602060002001549050600061316c60018660010154611c1891906138ac565b60018601549091505b8381101561323a576040805160208082018690528183018590528251808303840181526060909201909252805191012086546131b590600290841c613914565b600003613201578093506131c88261214f565b92508582106131fc57808760020183815481106131e7576131e7613785565b60009182526020909120015550505050505050565b613227565b86600201828154811061321657613216613785565b906000526020600020015493508092505b50806132328161372f565b915050613175565b505050505050565b60006020828403121561325457600080fd5b81356001600160e01b031981168114610b4157600080fd5b60006020828403121561327e57600080fd5b5035919050565b80356001600160a01b0381168114612d4e57600080fd5b600080604083850312156132af57600080fd5b823591506132bf60208401613285565b90509250929050565b6000602082840312156132da57600080fd5b81356001600160801b0381168114610b4157600080fd5b6000806040838503121561330457600080fd5b50508035926020909101359150565b634e487b7160e01b600052604160045260246000fd5b604080519081016001600160401b038111828210171561334b5761334b613313565b60405290565b604051606081016001600160401b038111828210171561334b5761334b613313565b604051601f8201601f191681016001600160401b038111828210171561339b5761339b613313565b604052919050565b60006001600160401b038211156133bc576133bc613313565b5060051b60200190565b600082601f8301126133d757600080fd5b813560206133ec6133e7836133a3565b613373565b82815260069290921b8401810191818101908684111561340b57600080fd5b8286015b8481101561344a57604081890312156134285760008081fd5b613430613329565b81358152848201358582015283529183019160400161340f565b509695505050505050565b60006060828403121561346757600080fd5b61346f613351565b9050813581526020808301356001600160401b038082111561349057600080fd5b818501915085601f8301126134a457600080fd5b8135818111156134b6576134b6613313565b6134c8601f8201601f19168501613373565b81815287858386010111156134dc57600080fd5b8185850186830137600085838301015280858701525050604085013592508083111561350757600080fd5b5050613515848285016133c6565b60408301525092915050565b6000602080838503121561353457600080fd5b82356001600160401b038082111561354b57600080fd5b818501915085601f83011261355f57600080fd5b813561356d6133e7826133a3565b81815260059190911b8301840190848101908883111561358c57600080fd5b8585015b838110156135c4578035858111156135a85760008081fd5b6135b68b89838a0101613455565b845250918601918601613590565b5098975050505050505050565b600081518084526020808501945080840160005b83811015613601578151875295820195908201906001016135e5565b509495945050505050565b60808152600061361f60808301876135d1565b82810360208481019190915286518083528782019282019060005b818110156136565784518352938301939183019160010161363a565b5050848103604086015261366a81886135d1565b92505050828103606084015261368081856135d1565b979650505050505050565b60006020828403121561369d57600080fd5b610b4182613285565b6000602082840312156136b857600080fd5b81356001600160401b038111156136ce57600080fd5b6136da84828501613455565b949350505050565b6020808252601a908201527f436f6e747261637420686173206e6f74206c61756e636865642e000000000000604082015260600190565b634e487b7160e01b600052601160045260246000fd5b60006001820161374157613741613719565b5060010190565b8082018082111561076957610769613719565b634e487b7160e01b600052601260045260246000fd5b6000826137805761378061375b565b500490565b634e487b7160e01b600052603260045260246000fd5b60005b838110156137b657818101518382015260200161379e565b50506000910152565b600081518084526137d781602086016020860161379b565b601f01601f19169290920160200192915050565b84815260006020858184015260408581850152608060608501528451608085015281850151606060a086015261382460e08601826137bf565b86830151868203607f190160c0880152805180835290850192506000918501905b8083101561386e5783518051835286015186830152928501926001929092019190840190613845565b509a9950505050505050505050565b60006020828403121561388f57600080fd5b5051919050565b634e487b7160e01b600052600160045260246000fd5b8181038181111561076957610769613719565b60008160001904831182151516156138d9576138d9613719565b500290565b815160009082906020808601845b83811015613908578151855293820193908201906001016138ec565b50929695505050505050565b6000826139235761392361375b565b500690565b7f416363657373436f6e74726f6c3a206163636f756e742000000000000000000081526000835161396081601785016020880161379b565b7001034b99036b4b9b9b4b733903937b6329607d1b601791840191820152835161399181602884016020880161379b565b01602801949350505050565b602081526000610b4160208301846137bf565b6000816139bf576139bf613719565b506000190190565b634e487b7160e01b600052603160045260246000fdfe65d7a28e3265b37a6474929f336521b332c1681b933f6cb9f3376673440d862aa2646970667358221220c031dec607b7b3f7500b607e0c893fe77ae7a35ff9fb5be52be3e644ee5c745864736f6c63430008100033608060405234801561001057600080fd5b5060405161067038038061067083398101604081905261002f9161014a565b6100383361009a565b806001600160401b0381111561005057610050610163565b604051908082528060200260200182016040528015610079578160200160208202803683370190505b50805161008e916001916020909101906100ea565b50506000600255610179565b600080546001600160a01b038381166001600160a01b0319831681178455604051919092169283917f8be0079c531659141344cd1fd0a4f28419497f9722a3daafe3b4186f6b6457e09190a35050565b828054828255906000526020600020908101928215610125579160200282015b8281111561012557825182559160200191906001019061010a565b50610131929150610135565b5090565b5b808211156101315760008155600101610136565b60006020828403121561015c57600080fd5b5051919050565b634e487b7160e01b600052604160045260246000fd5b6104e8806101886000396000f3fe608060405234801561001057600080fd5b506004361061007d5760003560e01c80638da5cb5b1161005b5780638da5cb5b146100d557806396e494e8146100f0578063e0886f9014610103578063f2fde38b1461011657600080fd5b80631d1a696d146100825780632d287e43146100aa578063715018a6146100cb575b600080fd5b6100956100903660046103e3565b610129565b60405190151581526020015b60405180910390f35b6100bd6100b83660046103e3565b610194565b6040519081526020016100a1565b6100d36101ee565b005b6000546040516001600160a01b0390911681526020016100a1565b6100956100fe3660046103e3565b610202565b6100bd6101113660046103e3565b610237565b6100d36101243660046103fc565b610297565b60008061013d600254600180549050610310565b905060005b8181101561018a57836001828154811061015e5761015e610425565b906000526020600020015403610178575060019392505050565b8061018281610451565b915050610142565b5060009392505050565b6002546001546000919082906101aa908361046a565b905083600182815481106101c0576101c0610425565b90600052602060002001819055506001600260008282546101e1919061048c565b9091555091949350505050565b6101f661032a565b6102006000610384565b565b6001546002546000919083108015610230575080610222600254836103d4565b61022c919061049f565b8310155b9392505050565b600061024282610202565b6102675760405163b52d71f360e01b8152600481018390526024015b60405180910390fd5b60018054610275908461046a565b8154811061028557610285610425565b90600052602060002001549050919050565b61029f61032a565b6001600160a01b0381166103045760405162461bcd60e51b815260206004820152602660248201527f4f776e61626c653a206e6577206f776e657220697320746865207a65726f206160448201526564647265737360d01b606482015260840161025e565b61030d81610384565b50565b600081831061031f5781610321565b825b90505b92915050565b6000546001600160a01b031633146102005760405162461bcd60e51b815260206004820181905260248201527f4f776e61626c653a2063616c6c6572206973206e6f7420746865206f776e6572604482015260640161025e565b600080546001600160a01b038381166001600160a01b0319831681178455604051919092169283917f8be0079c531659141344cd1fd0a4f28419497f9722a3daafe3b4186f6b6457e09190a35050565b600081831161031f5781610321565b6000602082840312156103f557600080fd5b5035919050565b60006020828403121561040e57600080fd5b81356001600160a01b038116811461023057600080fd5b634e487b7160e01b600052603260045260246000fd5b634e487b7160e01b600052601160045260246000fd5b6000600182016104635761046361043b565b5060010190565b60008261048757634e487b7160e01b600052601260045260246000fd5b500690565b808201808211156103245761032461043b565b818103818111156103245761032461043b56fea2646970667358221220e8ca9fd7cf1cda9c87af618488dd664329a5f2e0ac050a78694b39389150ab1e64736f6c63430008100033",
  "linkReferences": {},
  "deployedLinkReferences": {}
}