{
  "_format": "hh-sol-artifact-1",
  "contractName": "FixedPrice",
  "sourceName": "contracts/market/FixedPrice.sol",
  "abi": [
    {
      "inputs": [
        {
          "internalType": "uint256",
          "name": "beforeLength",
          "type": "uint256"
        },
        {
          "internalType": "uint256",
          "name": "uploadSectors",
          "type": "uint256"
        },
        {
          "internalType": "uint256",
          "name": "paddingSectors",
          "type": "uint256"
        }
      ],
      "name": "chargeFee",
      "outputs": [],
      "stateMutability": "nonpayable",
      "type": "function"
    },
    {
      "inputs": [],
      "name": "flow",
      "outputs": [
        {
          "internalType": "address",
          "name": "",
          "type": "address"
        }
      ],
      "stateMutability": "view",
      "type": "function"
    },
    {
      "inputs": [
        {
          "internalType": "uint256",
          "name": "lifetimeMonthes",
          "type": "uint256"
        },
        {
          "internalType": "address",
          "name": "flow_",
          "type": "address"
        },
        {
          "internalType": "address",
          "name": "reward_",
          "type": "address"
        }
      ],
      "name": "initialize",
      "outputs": [],
      "stateMutability": "nonpayable",
      "type": "function"
    },
    {
      "inputs": [],
      "name": "initialized",
      "outputs": [
        {
          "internalType": "bool",
          "name": "",
          "type": "bool"
        }
      ],
      "stateMutability": "view",
      "type": "function"
    },
    {
      "inputs": [],
      "name": "pricePerSector",
      "outputs": [
        {
          "internalType": "uint256",
          "name": "",
          "type": "uint256"
        }
      ],
      "stateMutability": "view",
      "type": "function"
    },
    {
      "inputs": [],
      "name": "reward",
      "outputs": [
        {
          "internalType": "address",
          "name": "",
          "type": "address"
        }
      ],
      "stateMutability": "view",
      "type": "function"
    },
    {
      "stateMutability": "payable",
      "type": "receive"
    }
  ],
  "bytecode": "0x608060405234801561001057600080fd5b5061057c806100206000396000f3fe6080604052600436106100595760003560e01c8063158ef93e14610065578063228cb73314610094578063343aad82146100cc57806361ec5082146100ec578063b4988fd014610110578063da6eb36a1461013257600080fd5b3661006057005b600080fd5b34801561007157600080fd5b5060005461007f9060ff1681565b60405190151581526020015b60405180910390f35b3480156100a057600080fd5b506035546100b4906001600160a01b031681565b6040516001600160a01b03909116815260200161008b565b3480156100d857600080fd5b506034546100b4906001600160a01b031681565b3480156100f857600080fd5b5061010260335481565b60405190815260200161008b565b34801561011c57600080fd5b5061013061012b36600461045b565b610152565b005b34801561013e57600080fd5b5061013061014d366004610497565b61024c565b60005460ff16156101b55760405162461bcd60e51b815260206004820152602260248201527f496e697469616c697a61626c653a20616c726561647920696e697469616c697a604482015261195960f21b60648201526084015b60405180910390fd5b6000805460ff19166001179055600c6101d0610400806104d9565b6101dc906104006104d9565b670de0b6b3a76400006101f2600a6101006104d9565b6101fc91906104d9565b61020691906104f8565b61021091906104f8565b61021a90846104d9565b603355603480546001600160a01b039384166001600160a01b0319918216179091556035805492909316911617905550565b6034546001600160a01b0316336001600160a01b0316146102af5760405162461bcd60e51b815260206004820152601f60248201527f53656e64657220646f6573206e6f742068617665207065726d697373696f6e0060448201526064016101ac565b60006102bb828461051a565b90506000836033546102cd91906104d9565b9050478111156103155760405162461bcd60e51b81526020600482015260136024820152724e6f7420656e6f75676820706169642066656560681b60448201526064016101ac565b60006103218247610533565b905060008361033086856104d9565b61033a91906104f8565b905060006103488285610533565b905085156103b7576035546040516259e96760e81b8152600481018a9052602481018890526001600160a01b03909116906359e967009084906044016000604051808303818588803b15801561039d57600080fd5b505af11580156103b1573d6000803e3d6000fd5b50505050505b6035546001600160a01b03166359e967006103d2838661051a565b6103dc898c61051a565b8a6040518463ffffffff1660e01b8152600401610403929190918252602082015260400190565b6000604051808303818588803b15801561041c57600080fd5b505af1158015610430573d6000803e3d6000fd5b50505050505050505050505050565b80356001600160a01b038116811461045657600080fd5b919050565b60008060006060848603121561047057600080fd5b833592506104806020850161043f565b915061048e6040850161043f565b90509250925092565b6000806000606084860312156104ac57600080fd5b505081359360208301359350604090920135919050565b634e487b7160e01b600052601160045260246000fd5b60008160001904831182151516156104f3576104f36104c3565b500290565b60008261051557634e487b7160e01b600052601260045260246000fd5b500490565b8082018082111561052d5761052d6104c3565b92915050565b8181038181111561052d5761052d6104c356fea26469706673582212207856f59ed7ef23f0c92ccfb266162bebd399dae56fd6a45b082c139f7e3b553064736f6c63430008100033",
  "linkReferences": {},
  "deployedLinkReferences": {}
}