{
  "_format": "hh-sol-artifact-1",
  "contractName": "Flow",
  "sourceName": "contracts/dataFlow/Flow.sol",
  "abi": [
    {
      "inputs": [
        {
          "internalType": "uint256",
          "name": "blocksPerEpoch_",
          "type": "uint256"
        },
        {
          "internalType": "uint256",
          "name": "deployDelay_",
          "type": "uint256"
        }
      ],
      "stateMutability": "nonpayable",
      "type": "constructor"
    },
    {
      "inputs": [],
      "name": "InvalidSubmission",
      "type": "error"
    },
    {
      "anonymous": false,
      "inputs": [
        {
          "indexed": true,
          "internalType": "address",
          "name": "sender",
          "type": "address"
        },
        {
          "indexed": true,
          "internalType": "uint256",
          "name": "index",
          "type": "uint256"
        },
        {
          "indexed": false,
          "internalType": "bytes32",
          "name": "startMerkleRoot",
          "type": "bytes32"
        },
        {
          "indexed": false,
          "internalType": "uint256",
          "name": "submissionIndex",
          "type": "uint256"
        },
        {
          "indexed": false,
          "internalType": "uint256",
          "name": "flowLength",
          "type": "uint256"
        },
        {
          "indexed": false,
          "internalType": "bytes32",
          "name": "context",
          "type": "bytes32"
        }
      ],
      "name": "NewEpoch",
      "type": "event"
    },
    {
      "anonymous": false,
      "inputs": [
        {
          "indexed": false,
          "internalType": "address",
          "name": "account",
          "type": "address"
        }
      ],
      "name": "Paused",
      "type": "event"
    },
    {
      "anonymous": false,
      "inputs": [
        {
          "indexed": true,
          "internalType": "bytes32",
          "name": "role",
          "type": "bytes32"
        },
        {
          "indexed": true,
          "internalType": "bytes32",
          "name": "previousAdminRole",
          "type": "bytes32"
        },
        {
          "indexed": true,
          "internalType": "bytes32",
          "name": "newAdminRole",
          "type": "bytes32"
        }
      ],
      "name": "RoleAdminChanged",
      "type": "event"
    },
    {
      "anonymous": false,
      "inputs": [
        {
          "indexed": true,
          "internalType": "bytes32",
          "name": "role",
          "type": "bytes32"
        },
        {
          "indexed": true,
          "internalType": "address",
          "name": "account",
          "type": "address"
        },
        {
          "indexed": true,
          "internalType": "address",
          "name": "sender",
          "type": "address"
        }
      ],
      "name": "RoleGranted",
      "type": "event"
    },
    {
      "anonymous": false,
      "inputs": [
        {
          "indexed": true,
          "internalType": "bytes32",
          "name": "role",
          "type": "bytes32"
        },
        {
          "indexed": true,
          "internalType": "address",
          "name": "account",
          "type": "address"
        },
        {
          "indexed": true,
          "internalType": "address",
          "name": "sender",
          "type": "address"
        }
      ],
      "name": "RoleRevoked",
      "type": "event"
    },
    {
      "anonymous": false,
      "inputs": [
        {
          "indexed": true,
          "internalType": "address",
          "name": "sender",
          "type": "address"
        },
        {
          "indexed": true,
          "internalType": "bytes32",
          "name": "identity",
          "type": "bytes32"
        },
        {
          "indexed": false,
          "internalType": "uint256",
          "name": "submissionIndex",
          "type": "uint256"
        },
        {
          "indexed": false,
          "internalType": "uint256",
          "name": "startPos",
          "type": "uint256"
        },
        {
          "indexed": false,
          "internalType": "uint256",
          "name": "length",
          "type": "uint256"
        },
        {
          "components": [
            {
              "internalType": "uint256",
              "name": "length",
              "type": "uint256"
            },
            {
              "internalType": "bytes",
              "name": "tags",
              "type": "bytes"
            },
            {
              "components": [
                {
                  "internalType": "bytes32",
                  "name": "root",
                  "type": "bytes32"
                },
                {
                  "internalType": "uint256",
                  "name": "height",
                  "type": "uint256"
                }
              ],
              "internalType": "struct SubmissionNode[]",
              "name": "nodes",
              "type": "tuple[]"
            }
          ],
          "indexed": false,
          "internalType": "struct Submission",
          "name": "submission",
          "type": "tuple"
        }
      ],
      "name": "Submit",
      "type": "event"
    },
    {
      "anonymous": false,
      "inputs": [
        {
          "indexed": false,
          "internalType": "address",
          "name": "account",
          "type": "address"
        }
      ],
      "name": "Unpaused",
      "type": "event"
    },
    {
      "inputs": [],
      "name": "DEFAULT_ADMIN_ROLE",
      "outputs": [
        {
          "internalType": "bytes32",
          "name": "",
          "type": "bytes32"
        }
      ],
      "stateMutability": "view",
      "type": "function"
    },
    {
      "inputs": [],
      "name": "PAUSER_ROLE",
      "outputs": [
        {
          "internalType": "bytes32",
          "name": "",
          "type": "bytes32"
        }
      ],
      "stateMutability": "view",
      "type": "function"
    },
    {
      "inputs": [
        {
          "components": [
            {
              "internalType": "uint256",
              "name": "length",
              "type": "uint256"
            },
            {
              "internalType": "bytes",
              "name": "tags",
              "type": "bytes"
            },
            {
              "components": [
                {
                  "internalType": "bytes32",
                  "name": "root",
                  "type": "bytes32"
                },
                {
                  "internalType": "uint256",
                  "name": "height",
                  "type": "uint256"
                }
              ],
              "internalType": "struct SubmissionNode[]",
              "name": "nodes",
              "type": "tuple[]"
            }
          ],
          "internalType": "struct Submission[]",
          "name": "submissions",
          "type": "tuple[]"
        }
      ],
      "name": "batchSubmit",
      "outputs": [
        {
          "internalType": "uint256[]",
          "name": "indexes",
          "type": "uint256[]"
        },
        {
          "internalType": "bytes32[]",
          "name": "digests",
          "type": "bytes32[]"
        },
        {
          "internalType": "uint256[]",
          "name": "startIndexes",
          "type": "uint256[]"
        },
        {
          "internalType": "uint256[]",
          "name": "lengths",
          "type": "uint256[]"
        }
      ],
      "stateMutability": "payable",
      "type": "function"
    },
    {
      "inputs": [],
      "name": "blocksPerEpoch",
      "outputs": [
        {
          "internalType": "uint256",
          "name": "",
          "type": "uint256"
        }
      ],
      "stateMutability": "view",
      "type": "function"
    },
    {
      "inputs": [],
      "name": "epoch",
      "outputs": [
        {
          "internalType": "uint256",
          "name": "",
          "type": "uint256"
        }
      ],
      "stateMutability": "view",
      "type": "function"
    },
    {
      "inputs": [],
      "name": "epochStartPosition",
      "outputs": [
        {
          "internalType": "uint256",
          "name": "",
          "type": "uint256"
        }
      ],
      "stateMutability": "view",
      "type": "function"
    },
    {
      "inputs": [],
      "name": "firstBlock",
      "outputs": [
        {
          "internalType": "uint256",
          "name": "",
          "type": "uint256"
        }
      ],
      "stateMutability": "view",
      "type": "function"
    },
    {
      "inputs": [],
      "name": "getContext",
      "outputs": [
        {
          "components": [
            {
              "internalType": "uint256",
              "name": "epoch",
              "type": "uint256"
            },
            {
              "internalType": "uint256",
              "name": "mineStart",
              "type": "uint256"
            },
            {
              "internalType": "bytes32",
              "name": "flowRoot",
              "type": "bytes32"
            },
            {
              "internalType": "uint256",
              "name": "flowLength",
              "type": "uint256"
            },
            {
              "internalType": "bytes32",
              "name": "blockDigest",
              "type": "bytes32"
            },
            {
              "internalType": "bytes32",
              "name": "digest",
              "type": "bytes32"
            }
          ],
          "internalType": "struct MineContext",
          "name": "",
          "type": "tuple"
        }
      ],
      "stateMutability": "view",
      "type": "function"
    },
    {
      "inputs": [
        {
          "internalType": "bytes32",
          "name": "digest",
          "type": "bytes32"
        }
      ],
      "name": "getEpochRange",
      "outputs": [
        {
          "components": [
            {
              "internalType": "uint128",
              "name": "start",
              "type": "uint128"
            },
            {
              "internalType": "uint128",
              "name": "end",
              "type": "uint128"
            }
          ],
          "internalType": "struct EpochRange",
          "name": "",
          "type": "tuple"
        }
      ],
      "stateMutability": "view",
      "type": "function"
    },
    {
      "inputs": [
        {
          "internalType": "uint256",
          "name": "txSeq",
          "type": "uint256"
        }
      ],
      "name": "getFlowRootByTxSeq",
      "outputs": [
        {
          "internalType": "bytes32",
          "name": "",
          "type": "bytes32"
        }
      ],
      "stateMutability": "view",
      "type": "function"
    },
    {
      "inputs": [
        {
          "internalType": "bytes32",
          "name": "role",
          "type": "bytes32"
        }
      ],
      "name": "getRoleAdmin",
      "outputs": [
        {
          "internalType": "bytes32",
          "name": "",
          "type": "bytes32"
        }
      ],
      "stateMutability": "view",
      "type": "function"
    },
    {
      "inputs": [
        {
          "internalType": "bytes32",
          "name": "role",
          "type": "bytes32"
        },
        {
          "internalType": "uint256",
          "name": "index",
          "type": "uint256"
        }
      ],
      "name": "getRoleMember",
      "outputs": [
        {
          "internalType": "address",
          "name": "",
          "type": "address"
        }
      ],
      "stateMutability": "view",
      "type": "function"
    },
    {
      "inputs": [
        {
          "internalType": "bytes32",
          "name": "role",
          "type": "bytes32"
        }
      ],
      "name": "getRoleMemberCount",
      "outputs": [
        {
          "internalType": "uint256",
          "name": "",
          "type": "uint256"
        }
      ],
      "stateMutability": "view",
      "type": "function"
    },
    {
      "inputs": [
        {
          "internalType": "bytes32",
          "name": "role",
          "type": "bytes32"
        },
        {
          "internalType": "address",
          "name": "account",
          "type": "address"
        }
      ],
      "name": "grantRole",
      "outputs": [],
      "stateMutability": "nonpayable",
      "type": "function"
    },
    {
      "inputs": [
        {
          "internalType": "bytes32",
          "name": "role",
          "type": "bytes32"
        },
        {
          "internalType": "address",
          "name": "account",
          "type": "address"
        }
      ],
      "name": "hasRole",
      "outputs": [
        {
          "internalType": "bool",
          "name": "",
          "type": "bool"
        }
      ],
      "stateMutability": "view",
      "type": "function"
    },
    {
      "inputs": [
        {
          "internalType": "address",
          "name": "market_",
          "type": "address"
        }
      ],
      "name": "initialize",
      "outputs": [],
      "stateMutability": "nonpayable",
      "type": "function"
    },
    {
      "inputs": [],
      "name": "initialized",
      "outputs": [
        {
          "internalType": "bool",
          "name": "",
          "type": "bool"
        }
      ],
      "stateMutability": "view",
      "type": "function"
    },
    {
      "inputs": [],
      "name": "makeContext",
      "outputs": [],
      "stateMutability": "nonpayable",
      "type": "function"
    },
    {
      "inputs": [
        {
          "internalType": "uint256",
          "name": "cnt",
          "type": "uint256"
        }
      ],
      "name": "makeContextFixedTimes",
      "outputs": [],
      "stateMutability": "nonpayable",
      "type": "function"
    },
    {
      "inputs": [],
      "name": "makeContextWithResult",
      "outputs": [
        {
          "components": [
            {
              "internalType": "uint256",
              "name": "epoch",
              "type": "uint256"
            },
            {
              "internalType": "uint256",
              "name": "mineStart",
              "type": "uint256"
            },
            {
              "internalType": "bytes32",
              "name": "flowRoot",
              "type": "bytes32"
            },
            {
              "internalType": "uint256",
              "name": "flowLength",
              "type": "uint256"
            },
            {
              "internalType": "bytes32",
              "name": "blockDigest",
              "type": "bytes32"
            },
            {
              "internalType": "bytes32",
              "name": "digest",
              "type": "bytes32"
            }
          ],
          "internalType": "struct MineContext",
          "name": "",
          "type": "tuple"
        }
      ],
      "stateMutability": "nonpayable",
      "type": "function"
    },
    {
      "inputs": [],
      "name": "market",
      "outputs": [
        {
          "internalType": "address payable",
          "name": "",
          "type": "address"
        }
      ],
      "stateMutability": "view",
      "type": "function"
    },
    {
      "inputs": [],
      "name": "numSubmissions",
      "outputs": [
        {
          "internalType": "uint256",
          "name": "",
          "type": "uint256"
        }
      ],
      "stateMutability": "view",
      "type": "function"
    },
    {
      "inputs": [],
      "name": "pause",
      "outputs": [],
      "stateMutability": "nonpayable",
      "type": "function"
    },
    {
      "inputs": [],
      "name": "paused",
      "outputs": [
        {
          "internalType": "bool",
          "name": "",
          "type": "bool"
        }
      ],
      "stateMutability": "view",
      "type": "function"
    },
    {
      "inputs": [
        {
          "internalType": "uint128",
          "name": "targetPosition",
          "type": "uint128"
        }
      ],
      "name": "queryContextAtPosition",
      "outputs": [
        {
          "components": [
            {
              "internalType": "uint128",
              "name": "start",
              "type": "uint128"
            },
            {
              "internalType": "uint128",
              "name": "end",
              "type": "uint128"
            },
            {
              "internalType": "bytes32",
              "name": "digest",
              "type": "bytes32"
            }
          ],
          "internalType": "struct EpochRangeWithContextDigest",
          "name": "range",
          "type": "tuple"
        }
      ],
      "stateMutability": "nonpayable",
      "type": "function"
    },
    {
      "inputs": [
        {
          "internalType": "bytes32",
          "name": "role",
          "type": "bytes32"
        },
        {
          "internalType": "address",
          "name": "account",
          "type": "address"
        }
      ],
      "name": "renounceRole",
      "outputs": [],
      "stateMutability": "nonpayable",
      "type": "function"
    },
    {
      "inputs": [
        {
          "internalType": "bytes32",
          "name": "role",
          "type": "bytes32"
        },
        {
          "internalType": "address",
          "name": "account",
          "type": "address"
        }
      ],
      "name": "revokeRole",
      "outputs": [],
      "stateMutability": "nonpayable",
      "type": "function"
    },
    {
      "inputs": [],
      "name": "rootHistory",
      "outputs": [
        {
          "internalType": "contract IDigestHistory",
          "name": "",
          "type": "address"
        }
      ],
      "stateMutability": "view",
      "type": "function"
    },
    {
      "inputs": [],
      "name": "submissionIndex",
      "outputs": [
        {
          "internalType": "uint256",
          "name": "",
          "type": "uint256"
        }
      ],
      "stateMutability": "view",
      "type": "function"
    },
    {
      "inputs": [
        {
          "components": [
            {
              "internalType": "uint256",
              "name": "length",
              "type": "uint256"
            },
            {
              "internalType": "bytes",
              "name": "tags",
              "type": "bytes"
            },
            {
              "components": [
                {
                  "internalType": "bytes32",
                  "name": "root",
                  "type": "bytes32"
                },
                {
                  "internalType": "uint256",
                  "name": "height",
                  "type": "uint256"
                }
              ],
              "internalType": "struct SubmissionNode[]",
              "name": "nodes",
              "type": "tuple[]"
            }
          ],
          "internalType": "struct Submission",
          "name": "submission",
          "type": "tuple"
        }
      ],
      "name": "submit",
      "outputs": [
        {
          "internalType": "uint256",
          "name": "",
          "type": "uint256"
        },
        {
          "internalType": "bytes32",
          "name": "",
          "type": "bytes32"
        },
        {
          "internalType": "uint256",
          "name": "",
          "type": "uint256"
        },
        {
          "internalType": "uint256",
          "name": "",
          "type": "uint256"
        }
      ],
      "stateMutability": "payable",
      "type": "function"
    },
    {
      "inputs": [
        {
          "internalType": "bytes4",
          "name": "interfaceId",
          "type": "bytes4"
        }
      ],
      "name": "supportsInterface",
      "outputs": [
        {
          "internalType": "bool",
          "name": "",
          "type": "bool"
        }
      ],
      "stateMutability": "view",
      "type": "function"
    },
    {
      "inputs": [],
      "name": "tree",
      "outputs": [
        {
          "internalType": "uint256",
          "name": "currentLength",
          "type": "uint256"
        },
        {
          "internalType": "uint256",
          "name": "unstagedHeight",
          "type": "uint256"
        }
      ],
      "stateMutability": "view",
      "type": "function"
    },
    {
      "inputs": [],
      "name": "unpause",
      "outputs": [],
      "stateMutability": "nonpayable",
      "type": "function"
    }
  ],
  "bytecode": "0x60e06040523480156200001157600080fd5b5060405162004119380380620041198339810160408190526200003491620000ab565b6000805460ff1916905560a08290526040516103e89062000055906200009d565b908152602001604051809103906000f08015801562000078573d6000803e3d6000fd5b506001600160a01b0316608052620000918143620000d0565b60c05250620000f89050565b6106708062003aa983390190565b60008060408385031215620000bf57600080fd5b505080516020909101519092909150565b80820180821115620000f257634e487b7160e01b600052601160045260246000fd5b92915050565b60805160a05160c05161394262000167600039600081816102d7015281816107dc01528181610a9c01528181610b8301528181610ddc01528181610ef1015281816110a601526115380152600081816106f2015261107e015260008181610629015261111101526139426000f3fe6080604052600436106101ee5760003560e01c80638456cb591161010d578063b8a409ac116100a0578063d547741f1161006f578063d547741f1461066b578063e63ab1e91461068b578063ef3e12dc146106ad578063f0682054146106e0578063fd54b2281461071457600080fd5b8063b8a409ac146105e1578063c4d66de8146105f7578063c7dd522114610617578063ca15c8731461064b57600080fd5b806393e405a0116100dc57806393e405a01461057e5780639e62a38e14610594578063a217fddf146105b7578063b464b53e146105cc57600080fd5b80638456cb5914610513578063900cf0cf146105285780639010d07c1461053e57806391d148541461055e57600080fd5b806336568abe116101855780636d7ad0fc116101545780636d7ad0fc1461040a57806377e19824146104375780637d5907081461044c57806380f55605146104db57600080fd5b806336568abe146103a857806338d45e10146103c85780633f4ba83a146103dd5780635c975abb146103f257600080fd5b8063231b0268116101c1578063231b0268146102c5578063248a9ca3146103075780632f2ff15d1461033857806331bae1741461035857600080fd5b806301ffc9a7146101f3578063127f0f0714610228578063158ef93e1461028957806318a641ef146102a3575b600080fd5b3480156101ff57600080fd5b5061021361020e366004613151565b610744565b60405190151581526020015b60405180910390f35b34801561023457600080fd5b5061023d61076f565b60405161021f9190600060c082019050825182526020830151602083015260408301516040830152606083015160608301526080830151608083015260a083015160a083015292915050565b34801561029557600080fd5b506003546102139060ff1681565b3480156102af57600080fd5b506102c36102be36600461317b565b6107da565b005b3480156102d157600080fd5b506102f97f000000000000000000000000000000000000000000000000000000000000000081565b60405190815260200161021f565b34801561031357600080fd5b506102f961032236600461317b565b6000908152600160208190526040909120015490565b34801561034457600080fd5b506102c36103533660046131ab565b610852565b34801561036457600080fd5b506103786103733660046131d7565b61087d565b6040805182516001600160801b03908116825260208085015190911690820152918101519082015260600161021f565b3480156103b457600080fd5b506102c36103c33660046131ab565b610a20565b3480156103d457600080fd5b506102c3610a9a565b3480156103e957600080fd5b506102c3610ae9565b3480156103fe57600080fd5b5060005460ff16610213565b34801561041657600080fd5b506102f961042536600461317b565b60009081526045602052604090205490565b34801561044357600080fd5b50603a546102f9565b34801561045857600080fd5b506104b461046736600461317b565b6040805180820190915260008082526020820152506000908152604360209081526040918290208251808401909352546001600160801b038082168452600160801b909104169082015290565b6040805182516001600160801b03908116825260209384015116928101929092520161021f565b3480156104e757600080fd5b506036546104fb906001600160a01b031681565b6040516001600160a01b03909116815260200161021f565b34801561051f57600080fd5b506102c3610b09565b34801561053457600080fd5b506102f9603b5481565b34801561054a57600080fd5b506104fb610559366004613200565b610b29565b34801561056a57600080fd5b506102136105793660046131ab565b610b48565b34801561058a57600080fd5b506102f9603c5481565b6105a76105a2366004613430565b610b73565b60405161021f949392919061351b565b3480156105c357600080fd5b506102f9600081565b3480156105d857600080fd5b5061023d610da8565b3480156105ed57600080fd5b506102f9603a5481565b34801561060357600080fd5b506102c361061236600461359a565b610e2f565b34801561062357600080fd5b506104fb7f000000000000000000000000000000000000000000000000000000000000000081565b34801561065757600080fd5b506102f961066636600461317b565b610ea4565b34801561067757600080fd5b506102c36106863660046131ab565b610ebb565b34801561069757600080fd5b506102f96000805160206138ed83398151915281565b6106c06106bb3660046135b5565b610ee1565b60408051948552602085019390935291830152606082015260800161021f565b3480156106ec57600080fd5b506102f97f000000000000000000000000000000000000000000000000000000000000000081565b34801561072057600080fd5b5060375460385461072f919082565b6040805192835260208301919091520161021f565b60006001600160e01b03198216635a05180f60e01b1480610769575061076982611044565b92915050565b6040805160c081018252600080825260208201819052918101829052606081018290526080810182905260a0810191909152506040805160c081018252603d548152603e546020820152603f548183015290546060820152604154608082015260425460a082015290565b7f00000000000000000000000000000000000000000000000000000000000000004310156108235760405162461bcd60e51b815260040161081a906135f1565b60405180910390fd5b60005b81811161084d57610835611079565b61083d575050565b6108468161363e565b9050610826565b505b50565b6000828152600160208190526040909120015461086e8161139d565b61087883836113a7565b505050565b60408051606081018252600080825260208201819052918101919091526108a2610a9a565b6037546001600160801b038316106109085760405162461bcd60e51b8152602060048201526024808201527f5175657269656420706f736974696f6e206578636565647320757070657220626044820152631bdd5b9960e21b606482015260840161081a565b6044546000905b818111156109d857600060026109258484613657565b61092f9190613680565b90506044818154811061094457610944613694565b600091825260209182902060408051606081018252600290930290910180546001600160801b038082168552600160801b9091048116948401859052600190910154918301919091529095508616106109a9576109a2816001613657565b92506109d2565b83600001516001600160801b0316856001600160801b0316106109ce57505050919050565b8091505b5061090f565b60405162461bcd60e51b815260206004820152601b60248201527f43616e206e6f742066696e642070726f70657220636f6e746578740000000000604482015260640161081a565b6001600160a01b0381163314610a905760405162461bcd60e51b815260206004820152602f60248201527f416363657373436f6e74726f6c3a2063616e206f6e6c792072656e6f756e636560448201526e103937b632b9903337b91039b2b63360891b606482015260840161081a565b61084d82826113c9565b7f0000000000000000000000000000000000000000000000000000000000000000431015610ada5760405162461bcd60e51b815260040161081a906135f1565b610ae2611079565b610ada575b565b6000805160206138ed833981519152610b018161139d565b61084f6113eb565b6000805160206138ed833981519152610b218161139d565b61084f61143d565b6000828152600260205260408120610b41908361147a565b9392505050565b60009182526001602090815260408084206001600160a01b0393909316845291905290205460ff1690565b606080606080610b81611486565b7f0000000000000000000000000000000000000000000000000000000000000000431015610bc15760405162461bcd60e51b815260040161081a906135f1565b8451806001600160401b03811115610bdb57610bdb613222565b604051908082528060200260200182016040528015610c04578160200160208202803683370190505b509450806001600160401b03811115610c1f57610c1f613222565b604051908082528060200260200182016040528015610c48578160200160208202803683370190505b509350806001600160401b03811115610c6357610c63613222565b604051908082528060200260200182016040528015610c8c578160200160208202803683370190505b509250806001600160401b03811115610ca757610ca7613222565b604051908082528060200260200182016040528015610cd0578160200160208202803683370190505b50915060005b81811015610d9f57600080600080610d068b8681518110610cf957610cf9613694565b6020026020010151610ee1565b9350935093509350838a8681518110610d2157610d21613694565b60200260200101818152505082898681518110610d4057610d40613694565b60200260200101818152505081888681518110610d5f57610d5f613694565b60200260200101818152505080878681518110610d7e57610d7e613694565b6020026020010181815250505050505080610d989061363e565b9050610cd6565b50509193509193565b6040805160c081018252600080825260208201819052918101829052606081018290526080810182905260a08101919091527f0000000000000000000000000000000000000000000000000000000000000000431015610e1a5760405162461bcd60e51b815260040161081a906135f1565b610e22610a9a565b610e2a61076f565b905090565b60035460ff1615610e8e5760405162461bcd60e51b8152602060048201526024808201527f5a67496e697469616c697a61626c653a20616c726561647920696e697469616c6044820152631a5e995960e21b606482015260840161081a565b6003805460ff1916600117905561084f816114cc565b6000818152600260205260408120610769906115f2565b60008281526001602081905260409091200154610ed78161139d565b61087883836113c9565b600080600080610eef611486565b7f0000000000000000000000000000000000000000000000000000000000000000431015610f2f5760405162461bcd60e51b815260040161081a906135f1565b610f38856115fc565b610f795760405162461bcd60e51b815260206004820152601260248201527124b73b30b634b21039bab136b4b9b9b4b7b760711b604482015260640161081a565b6000610f8486611813565b9050610f8e610a9a565b6000610f9987611871565b90506000610fa6886119b1565b603a80549192506001906000610fbc8385613657565b90915550610fcc90506037611a8e565b610fd66037611bbd565b604560008381526020019081526020016000208190555081336001600160a01b03167f167ce04d2aa1981994d3a31695da0d785373335b1078cec239a1a3a2c76755558386888e60405161102d94939291906136fa565b60405180910390a396509450925090509193509193565b60006001600160e01b03198216637965db0b60e01b148061076957506301ffc9a760e01b6001600160e01b0319831614610769565b6000807f0000000000000000000000000000000000000000000000000000000000000000603b54600101027f00000000000000000000000000000000000000000000000000000000000000000190504381106110d757600091505090565b6110e16037611a8e565b60006110ed6037611bbd565b604051632d287e4360e01b8152600481018290529091506000906001600160a01b037f00000000000000000000000000000000000000000000000000000000000000001690632d287e43906024016020604051808303816000875af115801561115a573d6000803e3d6000fd5b505050506040513d601f19601f8201168201806040525081019061117e919061378c565b9050603b548114611191576111916137a5565b600080436111a186610100613657565b10156111d157507fc5d2460186f7233c927e7db2dcc703c0e500b653ca82273b7bfad8045d85a4709050806112e0565b506037546040805186406020820181905291810186905260608101929092529060800160408051808303601f190181528282528051602091820120603c80546037805487870187526001600160801b039283168089529083168689018181526000878152604389528981209a519151918616600160801b928716830217909a558851606081018a529283529682019081529681018581526044805460018101825599529051965196831696909216909402949094177f9b22d3d61959b4d3528b1d8ba932c96fbe302b36a1aad1d95cab54f9e0a135ea60029096029586015592517f9b22d3d61959b4d3528b1d8ba932c96fbe302b36a1aad1d95cab54f9e0a135eb9094019390935554905591505b6001603b60008282546112f39190613657565b90915550506040805160c081018252603b5480825260208083018990528284018890526037546060808501829052608080860188905260a0909501889052603d849055603e8b9055603f8a905581865560418790556042889055603a5486518b815293840152948201529283018590529133917fbc8a3fd82465d43f1709e44ed882f7e1af0147274196ef1ec009f5d52ff4e993910160405180910390a360019550505050505090565b61084f8133611bf5565b6113b18282611c4e565b60008281526002602052604090206108789082611cb9565b6113d38282611cce565b60008281526002602052604090206108789082611d35565b6113f3611d4a565b6000805460ff191690557f5db9ee0a495bf2e6ff9c91a7834c1ba4fdd244a5e8aa4e537bd38aeae4b073aa335b6040516001600160a01b03909116815260200160405180910390a1565b611445611486565b6000805460ff191660011790557f62e78cea01bee320cd4e420270b5ea74000d11b0c9f74754ebdbfc544b05a2586114203390565b6000610b418383611d93565b60005460ff1615610ae75760405162461bcd60e51b815260206004820152601060248201526f14185d5cd8589b194e881c185d5cd95960821b604482015260640161081a565b6001603781905560398054808301825560009182527fdc16fef70f8d5ddbc01ee3d903d1e69c18a3c7be080eb86a81e0578814ee58d30155603855603680546001600160a01b0319166001600160a01b0383161790556000603b8190556040805160c0810182529182527f0000000000000000000000000000000000000000000000000000000000000000602083015281016115686037611bbd565b815260016020808301919091527fc5d2460186f7233c927e7db2dcc703c0e500b653ca82273b7bfad8045d85a47060408084018290526060938401919091528351603d5590830151603e5582810151603f55908201519055608081015160415560a001516042556115da600033611dbd565b61084f6000805160206138ed83398151915233611dbd565b6000610769825490565b600081604001515160000361161357506000919050565b604082015180516004919061162a906001906137bb565b8151811061163a5761163a613694565b602002602001015160200151836040015160008151811061165d5761165d613694565b60200260200101516020015161167391906137bb565b1061168057506000919050565b6040826040015160008151811061169957611699613694565b602002602001015160200151106116b257506000919050565b60005b60018360400151516116c791906137bb565b81101561173e57826040015181815181106116e4576116e4613694565b60200260200101516020015183604001518260016117029190613657565b8151811061171257611712613694565b6020026020010151602001511061172c5750600092915050565b806117368161363e565b9150506116b5565b50600061174a83611813565b9050611758610100826137ce565b835111156117695750600092915050565b600060108210156117865761177f6001836137bb565b90506117ec565b8360400151516001036117a15761177f600483901c836137bb565b600484604001516000815181106117ba576117ba613694565b6020026020010151602001516117d091906137bb565b6117db906001613657565b6117e9906001901b836137bb565b90505b6117f8610100826137ce565b845111611809575060009392505050565b5060019392505050565b600080805b83604001515181101561186a578360400151818151811061183b5761183b613694565b6020026020010151602001516001901b826118569190613657565b9150806118628161363e565b915050611818565b5092915050565b603780546000916118829084611dc7565b60005b83604001515181101561191a576000846040015182815181106118aa576118aa613694565b60200260200101516000015190506000856040015183815181106118d0576118d0613694565b602002602001015160200151905060006118f683836037611ee59092919063ffffffff16565b905083600003611904578095505b50505080806119129061363e565b915050611885565b50600061192782846137bb565b905060008360376000015461193c91906137bb565b603654604051636d3759b560e11b81526004810186905260248101839052604481018590529192506001600160a01b03169063da6eb36a90606401600060405180830381600087803b15801561199157600080fd5b505af11580156119a5573d6000803e3d6000fd5b50505050505050919050565b6000808260400151516001600160401b038111156119d1576119d1613222565b6040519080825280602002602001820160405280156119fa578160200160208202803683370190505b50905060005b836040015151811015611a5e5783604001518181518110611a2357611a23613694565b602002602001015160000151828281518110611a4157611a41613694565b602090810291909101015280611a568161363e565b915050611a00565b5080604051602001611a7091906137ed565b60405160208183030381529060405280519060200120915050919050565b6002810154600182015403611aa05750565b60028101805460018084015491926000929091611abc916137bb565b81548110611acc57611acc613694565b906000526020600020015490506000611af460018560010154611aef91906137bb565b61205e565b60018501549091505b83811015611bb257604080516020808201869052818301859052825180830384018152606090920190925280519101208554611b3d90600290841c613823565b600003611b7957809350611b508261205e565b925080866002018381548110611b6857611b68613694565b600091825260209091200155611b9f565b856002018281548110611b8e57611b8e613694565b906000526020600020015493508092505b5080611baa8161363e565b915050611afd565b505050600190910155565b60028101805460009190611bd3906001906137bb565b81548110611be357611be3613694565b90600052602060002001549050919050565b611bff8282610b48565b61084d57611c0c81612c62565b611c17836020612c74565b604051602001611c28929190613837565b60408051601f198184030181529082905262461bcd60e51b825261081a916004016138ac565b611c588282610b48565b61084d5760008281526001602081815260408084206001600160a01b0386168086529252808420805460ff19169093179092559051339285917f2f8788117e7eff1d82e926ec794901d17c78024a50270940304540a733656f0d9190a45050565b6000610b41836001600160a01b038416612e0f565b611cd88282610b48565b1561084d5760008281526001602090815260408083206001600160a01b0385168085529252808320805460ff1916905551339285917ff6391f5c32d9c69d2a47ea670b442974b53935d1edc7fd64eb21e047a839171b9190a45050565b6000610b41836001600160a01b038416612e5e565b60005460ff16610ae75760405162461bcd60e51b815260206004820152601460248201527314185d5cd8589b194e881b9bdd081c185d5cd95960621b604482015260640161081a565b6000826000018281548110611daa57611daa613694565b9060005260206000200154905092915050565b61084d82826113a7565b6000611dd282611813565b90506000611e0684600001548460400151600081518110611df557611df5613694565b602002602001015160200151612f51565b9050610100611e17610400826137ce565b611e219190613680565b611e2b9082613823565b15801590611e875750610100611e43610400826137ce565b611e4d9190613680565b611e578383613657565b611e619190613680565b610100611e70610400826137ce565b611e7a9190613680565b611e849083613680565b14155b15611edf57610100611e9b610400826137ce565b611ea59190613680565b611eaf9082613823565b610100611ebe610400826137ce565b611ec89190613680565b611ed29083613657565b611edc91906137bb565b84555b50505050565b600080611ef6856000015484612f51565b90506000611f076001851b83613657565b6002870154909150611f1b906001906137bb565b6001901b811115611f6d57611f2f86611a8e565b611f3886612f89565b6002860154611f49906001906137bb565b6001901b811115611f6257611f5d86612f89565b611f38565b600286015460018701555b6002860154611f7c878661301c565b60008087875b8481101561204057611f97600288831c613823565b600003611fd557818b6002018281548110611fb457611fb4613694565b600091825260209091200155611fcb816001613657565b60018c0155612040565b8a6002018181548110611fea57611fea613694565b906000526020600020015493508192508383604051602001612016929190918252602082015260400190565b604051602081830303815290604052805190602001209150806120388161363e565b915050611f82565b5061204e6001891b87613657565b9099555092979650505050505050565b60008160000361208f57507fd397b3b043d87fcd6fad1291ff0bfd16401c274896d8c63a923727f077b8e0b5919050565b816001036120be57507ff73e6947d7d1628b9976a6e40d7b278a8a16405e96324a68df45b12a51b7cfde919050565b816002036120ed57507fa1520264ae93cac619e22e8718fc4fa7ebdd23f493cad602434d2a58ff4868fb919050565b8160030361211c57507fde5747106ac1194a1fa9071dbd6cf19dc2bc7964497ef0afec7e4bdbcf08c47e919050565b8160040361214b57507f09c7082879180d28c789c05fafe7030871c76cedbe82c948b165d6a1d66ac15b919050565b8160050361217a57507faa7a02bcf29fba687f84123c808b5b48834ff5395abe98e622fadc14e4180c95919050565b816006036121a957507f7608fd46b710b589e0f2ee5a13cd9c41d432858a30d524f84c6d5db37f66273a919050565b816007036121d857507fa5d9a2f7f3573ac9a1366bc484688b4daf934b87ea9b3bf2e703da8fd9f09708919050565b8160080361220757507f6c1779477f4c3fca26b4607398859a43b90a286ce8062500744bd4949981757f919050565b8160090361223657507f45c22df3d952c33d5edce122eed85e5cda3fd61939e7ad7b3e03b6927bb598ea919050565b81600a0361226557507fe68d02859bb6211cec64f52368b77d422de3b8eac34bf615942b814b643301b5919050565b81600b0361229457507f62d78399b954d51cb9728601738ad13ddc43b2300064660716bb661d2f4d686f919050565b81600c036122c357507f6e250d9abdbbb3993fce08de0395cdb56f0483e67d8762a798de011f6a50866a919050565b81600d036122f257507f1d1a3a74062fd94078617e33eb901eaf16a830f67c387d8eed342db2ac5e2cc5919050565b81600e0361232157507f19b3b3886526917eae8650223d0be20a0301be960eb339696e673ad8a804440f919050565b81600f0361235057507fee9e05df53f10e62a897e5140a3f58732dd849e69cd1d62b21ed80ead711a014919050565b8160100361237f57507f2cc7aa6e611a113a34505dc1c96b220f14909b70e2c2c7b1a74655da21013c5e919050565b816011036123ae57507f949b52dfece7ca3bad3cb27f7750ecaee64cedb6243a275c35984e92956c530a919050565b816012036123dd57507fb2680d060b763b932c150434c3812ba9fbc50937e0ebcf5758de884be81bab65919050565b8160130361240c57507f523aebf4a085edbc9c8cdc99c83f46262e5f029b395ff7bf561a48a3f387e6b8919050565b8160140361243b57507fc9ab73827ab33c0cedb7ecf0ed2e6e32583c0fe887133a7f381ea4ba84d95b76919050565b8160150361246a57507f23eb397dec7e564ebe97f160a5e1081a77d9861f316807079b6be4731beb331e919050565b8160160361249957507fdfa44a274c60f090df034aaf75539fd40e94cfd6362dd53d26ed20c8ad529563919050565b816017036124c857507f15b13ee358e1044a53381243c094e54bf7aceb9b5325a0313d6b85fd44e8b3a5919050565b816018036124f757507f1a7a93871e2daa0f1860aa91d4ece4ccd012dac5fe581176a21b155cfeca6d40919050565b8160190361252657507fb12665fd0b884a7c7d1e0294d369170d7e672d9e125eb87784556305f98292df919050565b81601a0361255557507f2a5543b0b2f8cf550524390291774f4d6c8c0a25ff5393b09c44d75c92a5bd8e919050565b81601b0361258457507ff9df1841a6e7164b67a1242f1c74975137085ffd9721831f6c469d3a4d5ba42e919050565b81601c036125b357507fba24736b1b48246c1f7803be967be43ca0dddc9c2c0687a2957952249bc89371919050565b81601d036125e257507ff3f706b73790c73ca0a8f0460ac3a2a102e280415586b520e70cd5e8264388b4919050565b81601e0361261157507fc1f5a9a9f357e1c37814688cf7290c87a264ed3d6174a12b978da1c586f53825919050565b81601f0361264057507f766f7702e19ce23d426cdad03e4292a5a42c4669420101fed74400ec7cda3ac6919050565b8160200361266f57507f070fec213e105b3e4d9b0434ac2fc7ca721d35093dc741fb9419797003e2394a919050565b8160210361269e57507f9a7aade05b49e43f5fd3782571cc8c90eadacd5d660b53842b4e5b63d675ae0c919050565b816022036126cd57507fb27b35a8236d0f9b6692820429c025ed58ed378dc98d316b762f0c865c68be6f919050565b816023036126fc57507fdc567ad38d9b90cc9bea4e0f82ec05eca10b3aa94eddc7b63c4fd20c001bb53b919050565b8160240361272b57507fb208dfc457c8b30661ae49544c8e57399818095aab8dd7a426fb8dd56bb8c559919050565b8160250361275a57507fc4a72e1ff84f7a22631f3f95c61c392f98f52050360215a9d7e75d79b0bcd2ca919050565b8160260361278957507fbb093ec8c0d7defb1de668b5b5dd4f2619e5cd92d29cc144862364a83ab993a8919050565b816027036127b857507fe341796f2fe3975012c1e6badfa2e9c4523e43f911dc845082c3f4d7b4ff871d919050565b816028036127e757507f42d356a11a0b39243eca3c3263299cb6f8c3e9728af6d9d8b0ddb6d354f1890d919050565b8160290361281657507f0ce506e834e3a50a33f80074bc7fa16cf3c0712b36a41b69699177ea25de6c30919050565b81602a0361284557507fd8fa5bf130aeb7756b1ed09090cc80ed78dae0617978540f0fabd06dfb978938919050565b81602b0361287457507feed69a20fe36eb604f2153efa3b01c0e143cdf02229a1b8f741c9c2719059eb0919050565b81602c036128a357507f303c9c566ebf5bfe252796e5c131a99801226152a514688b5ca6883e99031d88919050565b81602d036128d257507fc7c3765ba96cfbccf3ae718393fa89791070cc8cd85f280b6ac46aea10d96042919050565b81602e0361290157507f1ca65b0a2b8034ee6bfb1fa4526832304e393af835c2c42b4dace58048746800919050565b81602f0361293057507f957add5e02350fd47de3a8e1da38fd774ceb31214d5897ed6315740a83cd634a919050565b8160300361295f57507f787892cb439d5d358870774e163557cf02ec3cb87be6fde11abf1acee14eeaa4919050565b8160310361298e57507f047c0962d4f5c8f60692c587de07739528c4d2059240d61dd34d2a547a438ee6919050565b816032036129bd57507fc18727efc9e4df63020dcd90edc17dfd2ad14f02328c912b13898e0b53735556919050565b816033036129ec57507fe38b9218987e451effe1648c3c9851ad03b64b052a5a3f5ca30f4d7b1ecf7120919050565b81603403612a1b57507f0e48ecb1a5418e6218289acc8cf723e67ac6eae3ecb80f644336ab4365a2f2b2919050565b81603503612a4a57507fd60e66f5b8cd08d71a1a4d7798952a7afa5a6e93a886c587a46a5500ebef4a60919050565b81603603612a7957507f5162aa9c31d9105f689cf6e71e19548bc9f0218b7d0f99ff7fa8bc2f19c68462919050565b81603703612aa857507f6fa8519b4b0e8fb97a9b618e97627d97b9b9d29d04521fd96472e9c502700568919050565b81603803612ad757507f41f5dcf0cdee270a2ad9a5f8130aaaab94b237463e09757c28b0321f09e24eb0919050565b81603903612b0657507f87a119239fa90732197108adfd029938b4743874d959d3da79b3a30f4832899e919050565b81603a03612b3557507f8e96dbaa5c72e84a5297b040ccc1a60750a3201166e3b7740d352837233608a1919050565b81603b03612b6457507f01605058d167ce967af8c475d2f6c341c3e0b437babf899c9da73a520aa4ecb5919050565b81603c03612b9357507f04529eb80532c5118949d700d8dfd2aa86850b1c6479b26276b9486784a145ff919050565b81603d03612bc257507fd191814ad13f27361ae20a46cbac8f6e76c10ebe9af0806d6720492ee2f296f0919050565b81603e03612bf157507fa28df63f78821060570da371c0be1312188346b92a7965cc4b980b26c134a4d7919050565b81603f03612c2057507fb48a92d40b61dc995ceecee4cded6415050dcece448b1e0b5e5b6a0e6981f3ef919050565b60405162461bcd60e51b8152602060048201526012602482015271125b99195e081bdd5d081bd988189bdd5b9960721b604482015260640161081a565b919050565b60606107696001600160a01b03831660145b60606000612c838360026137ce565b612c8e906002613657565b6001600160401b03811115612ca557612ca5613222565b6040519080825280601f01601f191660200182016040528015612ccf576020820181803683370190505b509050600360fc1b81600081518110612cea57612cea613694565b60200101906001600160f81b031916908160001a905350600f60fb1b81600181518110612d1957612d19613694565b60200101906001600160f81b031916908160001a9053506000612d3d8460026137ce565b612d48906001613657565b90505b6001811115612dc0576f181899199a1a9b1b9c1cb0b131b232b360811b85600f1660108110612d7c57612d7c613694565b1a60f81b828281518110612d9257612d92613694565b60200101906001600160f81b031916908160001a90535060049490941c93612db9816138bf565b9050612d4b565b508315610b415760405162461bcd60e51b815260206004820181905260248201527f537472696e67733a20686578206c656e67746820696e73756666696369656e74604482015260640161081a565b6000818152600183016020526040812054612e5657508154600181810184556000848152602080822090930184905584548482528286019093526040902091909155610769565b506000610769565b60008181526001830160205260408120548015612f47576000612e826001836137bb565b8554909150600090612e96906001906137bb565b9050818114612efb576000866000018281548110612eb657612eb6613694565b9060005260206000200154905080876000018481548110612ed957612ed9613694565b6000918252602080832090910192909255918252600188019052604090208390555b8554869080612f0c57612f0c6138d6565b600190038181906000526020600020016000905590558560010160008681526020019081526020016000206000905560019350505050610769565b6000915050610769565b600082808203612f65576000915050610769565b612f706001826137bb565b831c9050612f7f600182613657565b90921b9392505050565b60028101805490600090612f9e6001846137bb565b81548110612fae57612fae613694565b60009182526020822001549150612fc9611aef6001856137bb565b9050836002018282604051602001612feb929190918252602082015260400190565b60408051601f1981840301815291905280516020918201208254600181018455600093845291909220015550505050565b808260010154111561302c575050565b60028201805460018085015491926000929091613048916137bb565b8154811061305857613058613694565b90600052602060002001549050600061307b60018660010154611aef91906137bb565b60018601549091505b83811015613149576040805160208082018690528183018590528251808303840181526060909201909252805191012086546130c490600290841c613823565b600003613110578093506130d78261205e565b925085821061310b57808760020183815481106130f6576130f6613694565b60009182526020909120015550505050505050565b613136565b86600201828154811061312557613125613694565b906000526020600020015493508092505b50806131418161363e565b915050613084565b505050505050565b60006020828403121561316357600080fd5b81356001600160e01b031981168114610b4157600080fd5b60006020828403121561318d57600080fd5b5035919050565b80356001600160a01b0381168114612c5d57600080fd5b600080604083850312156131be57600080fd5b823591506131ce60208401613194565b90509250929050565b6000602082840312156131e957600080fd5b81356001600160801b0381168114610b4157600080fd5b6000806040838503121561321357600080fd5b50508035926020909101359150565b634e487b7160e01b600052604160045260246000fd5b604080519081016001600160401b038111828210171561325a5761325a613222565b60405290565b604051606081016001600160401b038111828210171561325a5761325a613222565b604051601f8201601f191681016001600160401b03811182821017156132aa576132aa613222565b604052919050565b60006001600160401b038211156132cb576132cb613222565b5060051b60200190565b600082601f8301126132e657600080fd5b813560206132fb6132f6836132b2565b613282565b82815260069290921b8401810191818101908684111561331a57600080fd5b8286015b8481101561335957604081890312156133375760008081fd5b61333f613238565b81358152848201358582015283529183019160400161331e565b509695505050505050565b60006060828403121561337657600080fd5b61337e613260565b9050813581526020808301356001600160401b038082111561339f57600080fd5b818501915085601f8301126133b357600080fd5b8135818111156133c5576133c5613222565b6133d7601f8201601f19168501613282565b81815287858386010111156133eb57600080fd5b8185850186830137600085838301015280858701525050604085013592508083111561341657600080fd5b5050613424848285016132d5565b60408301525092915050565b6000602080838503121561344357600080fd5b82356001600160401b038082111561345a57600080fd5b818501915085601f83011261346e57600080fd5b813561347c6132f6826132b2565b81815260059190911b8301840190848101908883111561349b57600080fd5b8585015b838110156134d3578035858111156134b75760008081fd5b6134c58b89838a0101613364565b84525091860191860161349f565b5098975050505050505050565b600081518084526020808501945080840160005b83811015613510578151875295820195908201906001016134f4565b509495945050505050565b60808152600061352e60808301876134e0565b82810360208481019190915286518083528782019282019060005b8181101561356557845183529383019391830191600101613549565b5050848103604086015261357981886134e0565b92505050828103606084015261358f81856134e0565b979650505050505050565b6000602082840312156135ac57600080fd5b610b4182613194565b6000602082840312156135c757600080fd5b81356001600160401b038111156135dd57600080fd5b6135e984828501613364565b949350505050565b6020808252601a908201527f436f6e747261637420686173206e6f74206c61756e636865642e000000000000604082015260600190565b634e487b7160e01b600052601160045260246000fd5b60006001820161365057613650613628565b5060010190565b8082018082111561076957610769613628565b634e487b7160e01b600052601260045260246000fd5b60008261368f5761368f61366a565b500490565b634e487b7160e01b600052603260045260246000fd5b60005b838110156136c55781810151838201526020016136ad565b50506000910152565b600081518084526136e68160208601602086016136aa565b601f01601f19169290920160200192915050565b84815260006020858184015260408581850152608060608501528451608085015281850151606060a086015261373360e08601826136ce565b86830151868203607f190160c0880152805180835290850192506000918501905b8083101561377d5783518051835286015186830152928501926001929092019190840190613754565b509a9950505050505050505050565b60006020828403121561379e57600080fd5b5051919050565b634e487b7160e01b600052600160045260246000fd5b8181038181111561076957610769613628565b60008160001904831182151516156137e8576137e8613628565b500290565b815160009082906020808601845b83811015613817578151855293820193908201906001016137fb565b50929695505050505050565b6000826138325761383261366a565b500690565b7f416363657373436f6e74726f6c3a206163636f756e742000000000000000000081526000835161386f8160178501602088016136aa565b7001034b99036b4b9b9b4b733903937b6329607d1b60179184019182015283516138a08160288401602088016136aa565b01602801949350505050565b602081526000610b4160208301846136ce565b6000816138ce576138ce613628565b506000190190565b634e487b7160e01b600052603160045260246000fdfe65d7a28e3265b37a6474929f336521b332c1681b933f6cb9f3376673440d862aa264697066735822122027b2eafa1e882a2780fad612e6d0adcae3ed6cf464bb25a18c567786cdfc250264736f6c63430008100033608060405234801561001057600080fd5b5060405161067038038061067083398101604081905261002f9161014a565b6100383361009a565b806001600160401b0381111561005057610050610163565b604051908082528060200260200182016040528015610079578160200160208202803683370190505b50805161008e916001916020909101906100ea565b50506000600255610179565b600080546001600160a01b038381166001600160a01b0319831681178455604051919092169283917f8be0079c531659141344cd1fd0a4f28419497f9722a3daafe3b4186f6b6457e09190a35050565b828054828255906000526020600020908101928215610125579160200282015b8281111561012557825182559160200191906001019061010a565b50610131929150610135565b5090565b5b808211156101315760008155600101610136565b60006020828403121561015c57600080fd5b5051919050565b634e487b7160e01b600052604160045260246000fd5b6104e8806101886000396000f3fe608060405234801561001057600080fd5b506004361061007d5760003560e01c80638da5cb5b1161005b5780638da5cb5b146100d557806396e494e8146100f0578063e0886f9014610103578063f2fde38b1461011657600080fd5b80631d1a696d146100825780632d287e43146100aa578063715018a6146100cb575b600080fd5b6100956100903660046103e3565b610129565b60405190151581526020015b60405180910390f35b6100bd6100b83660046103e3565b610194565b6040519081526020016100a1565b6100d36101ee565b005b6000546040516001600160a01b0390911681526020016100a1565b6100956100fe3660046103e3565b610202565b6100bd6101113660046103e3565b610237565b6100d36101243660046103fc565b610297565b60008061013d600254600180549050610310565b905060005b8181101561018a57836001828154811061015e5761015e610425565b906000526020600020015403610178575060019392505050565b8061018281610451565b915050610142565b5060009392505050565b6002546001546000919082906101aa908361046a565b905083600182815481106101c0576101c0610425565b90600052602060002001819055506001600260008282546101e1919061048c565b9091555091949350505050565b6101f661032a565b6102006000610384565b565b6001546002546000919083108015610230575080610222600254836103d4565b61022c919061049f565b8310155b9392505050565b600061024282610202565b6102675760405163b52d71f360e01b8152600481018390526024015b60405180910390fd5b60018054610275908461046a565b8154811061028557610285610425565b90600052602060002001549050919050565b61029f61032a565b6001600160a01b0381166103045760405162461bcd60e51b815260206004820152602660248201527f4f776e61626c653a206e6577206f776e657220697320746865207a65726f206160448201526564647265737360d01b606482015260840161025e565b61030d81610384565b50565b600081831061031f5781610321565b825b90505b92915050565b6000546001600160a01b031633146102005760405162461bcd60e51b815260206004820181905260248201527f4f776e61626c653a2063616c6c6572206973206e6f7420746865206f776e6572604482015260640161025e565b600080546001600160a01b038381166001600160a01b0319831681178455604051919092169283917f8be0079c531659141344cd1fd0a4f28419497f9722a3daafe3b4186f6b6457e09190a35050565b600081831161031f5781610321565b6000602082840312156103f557600080fd5b5035919050565b60006020828403121561040e57600080fd5b81356001600160a01b038116811461023057600080fd5b634e487b7160e01b600052603260045260246000fd5b634e487b7160e01b600052601160045260246000fd5b6000600182016104635761046361043b565b5060010190565b60008261048757634e487b7160e01b600052601260045260246000fd5b500690565b808201808211156103245761032461043b565b818103818111156103245761032461043b56fea2646970667358221220e8ca9fd7cf1cda9c87af618488dd664329a5f2e0ac050a78694b39389150ab1e64736f6c63430008100033",
  "linkReferences": {},
  "deployedLinkReferences": {}
}