{
  "_format": "hh-sol-artifact-1",
  "contractName": "Flow",
  "sourceName": "contracts/dataFlow/Flow.sol",
  "abi": [
    {
      "inputs": [
        {
          "internalType": "uint256",
          "name": "deployDelay_",
          "type": "uint256"
        }
      ],
      "stateMutability": "nonpayable",
      "type": "constructor"
    },
    {
      "inputs": [],
      "name": "InvalidSubmission",
      "type": "error"
    },
    {
      "anonymous": false,
      "inputs": [
        {
          "indexed": true,
          "internalType": "address",
          "name": "sender",
          "type": "address"
        },
        {
          "indexed": true,
          "internalType": "uint256",
          "name": "index",
          "type": "uint256"
        },
        {
          "indexed": false,
          "internalType": "bytes32",
          "name": "startMerkleRoot",
          "type": "bytes32"
        },
        {
          "indexed": false,
          "internalType": "uint256",
          "name": "submissionIndex",
          "type": "uint256"
        },
        {
          "indexed": false,
          "internalType": "uint256",
          "name": "flowLength",
          "type": "uint256"
        },
        {
          "indexed": false,
          "internalType": "bytes32",
          "name": "context",
          "type": "bytes32"
        }
      ],
      "name": "NewEpoch",
      "type": "event"
    },
    {
      "anonymous": false,
      "inputs": [
        {
          "indexed": false,
          "internalType": "address",
          "name": "account",
          "type": "address"
        }
      ],
      "name": "Paused",
      "type": "event"
    },
    {
      "anonymous": false,
      "inputs": [
        {
          "indexed": true,
          "internalType": "bytes32",
          "name": "role",
          "type": "bytes32"
        },
        {
          "indexed": true,
          "internalType": "bytes32",
          "name": "previousAdminRole",
          "type": "bytes32"
        },
        {
          "indexed": true,
          "internalType": "bytes32",
          "name": "newAdminRole",
          "type": "bytes32"
        }
      ],
      "name": "RoleAdminChanged",
      "type": "event"
    },
    {
      "anonymous": false,
      "inputs": [
        {
          "indexed": true,
          "internalType": "bytes32",
          "name": "role",
          "type": "bytes32"
        },
        {
          "indexed": true,
          "internalType": "address",
          "name": "account",
          "type": "address"
        },
        {
          "indexed": true,
          "internalType": "address",
          "name": "sender",
          "type": "address"
        }
      ],
      "name": "RoleGranted",
      "type": "event"
    },
    {
      "anonymous": false,
      "inputs": [
        {
          "indexed": true,
          "internalType": "bytes32",
          "name": "role",
          "type": "bytes32"
        },
        {
          "indexed": true,
          "internalType": "address",
          "name": "account",
          "type": "address"
        },
        {
          "indexed": true,
          "internalType": "address",
          "name": "sender",
          "type": "address"
        }
      ],
      "name": "RoleRevoked",
      "type": "event"
    },
    {
      "anonymous": false,
      "inputs": [
        {
          "indexed": true,
          "internalType": "address",
          "name": "sender",
          "type": "address"
        },
        {
          "indexed": true,
          "internalType": "bytes32",
          "name": "identity",
          "type": "bytes32"
        },
        {
          "indexed": false,
          "internalType": "uint256",
          "name": "submissionIndex",
          "type": "uint256"
        },
        {
          "indexed": false,
          "internalType": "uint256",
          "name": "startPos",
          "type": "uint256"
        },
        {
          "indexed": false,
          "internalType": "uint256",
          "name": "length",
          "type": "uint256"
        },
        {
          "components": [
            {
              "internalType": "uint256",
              "name": "length",
              "type": "uint256"
            },
            {
              "internalType": "bytes",
              "name": "tags",
              "type": "bytes"
            },
            {
              "components": [
                {
                  "internalType": "bytes32",
                  "name": "root",
                  "type": "bytes32"
                },
                {
                  "internalType": "uint256",
                  "name": "height",
                  "type": "uint256"
                }
              ],
              "internalType": "struct SubmissionNode[]",
              "name": "nodes",
              "type": "tuple[]"
            }
          ],
          "indexed": false,
          "internalType": "struct Submission",
          "name": "submission",
          "type": "tuple"
        }
      ],
      "name": "Submit",
      "type": "event"
    },
    {
      "anonymous": false,
      "inputs": [
        {
          "indexed": false,
          "internalType": "address",
          "name": "account",
          "type": "address"
        }
      ],
      "name": "Unpaused",
      "type": "event"
    },
    {
      "inputs": [],
      "name": "DEFAULT_ADMIN_ROLE",
      "outputs": [
        {
          "internalType": "bytes32",
          "name": "",
          "type": "bytes32"
        }
      ],
      "stateMutability": "view",
      "type": "function"
    },
    {
      "inputs": [],
      "name": "PAUSER_ROLE",
      "outputs": [
        {
          "internalType": "bytes32",
          "name": "",
          "type": "bytes32"
        }
      ],
      "stateMutability": "view",
      "type": "function"
    },
    {
      "inputs": [
        {
          "components": [
            {
              "internalType": "uint256",
              "name": "length",
              "type": "uint256"
            },
            {
              "internalType": "bytes",
              "name": "tags",
              "type": "bytes"
            },
            {
              "components": [
                {
                  "internalType": "bytes32",
                  "name": "root",
                  "type": "bytes32"
                },
                {
                  "internalType": "uint256",
                  "name": "height",
                  "type": "uint256"
                }
              ],
              "internalType": "struct SubmissionNode[]",
              "name": "nodes",
              "type": "tuple[]"
            }
          ],
          "internalType": "struct Submission[]",
          "name": "submissions",
          "type": "tuple[]"
        }
      ],
      "name": "batchSubmit",
      "outputs": [
        {
          "internalType": "uint256[]",
          "name": "indexes",
          "type": "uint256[]"
        },
        {
          "internalType": "bytes32[]",
          "name": "digests",
          "type": "bytes32[]"
        },
        {
          "internalType": "uint256[]",
          "name": "startIndexes",
          "type": "uint256[]"
        },
        {
          "internalType": "uint256[]",
          "name": "lengths",
          "type": "uint256[]"
        }
      ],
      "stateMutability": "payable",
      "type": "function"
    },
    {
      "inputs": [],
      "name": "blocksPerEpoch",
      "outputs": [
        {
          "internalType": "uint256",
          "name": "",
          "type": "uint256"
        }
      ],
      "stateMutability": "view",
      "type": "function"
    },
    {
      "inputs": [],
      "name": "computeFlowRoot",
      "outputs": [
        {
          "internalType": "bytes32",
          "name": "",
          "type": "bytes32"
        }
      ],
      "stateMutability": "nonpayable",
      "type": "function"
    },
    {
      "inputs": [],
      "name": "deployDelay",
      "outputs": [
        {
          "internalType": "uint256",
          "name": "",
          "type": "uint256"
        }
      ],
      "stateMutability": "view",
      "type": "function"
    },
    {
      "inputs": [],
      "name": "epoch",
      "outputs": [
        {
          "internalType": "uint256",
          "name": "",
          "type": "uint256"
        }
      ],
      "stateMutability": "view",
      "type": "function"
    },
    {
      "inputs": [],
      "name": "epochStartPosition",
      "outputs": [
        {
          "internalType": "uint256",
          "name": "",
          "type": "uint256"
        }
      ],
      "stateMutability": "view",
      "type": "function"
    },
    {
      "inputs": [],
      "name": "firstBlock",
      "outputs": [
        {
          "internalType": "uint256",
          "name": "",
          "type": "uint256"
        }
      ],
      "stateMutability": "view",
      "type": "function"
    },
    {
      "inputs": [],
      "name": "getContext",
      "outputs": [
        {
          "components": [
            {
              "internalType": "uint256",
              "name": "epoch",
              "type": "uint256"
            },
            {
              "internalType": "uint256",
              "name": "mineStart",
              "type": "uint256"
            },
            {
              "internalType": "bytes32",
              "name": "flowRoot",
              "type": "bytes32"
            },
            {
              "internalType": "uint256",
              "name": "flowLength",
              "type": "uint256"
            },
            {
              "internalType": "bytes32",
              "name": "blockDigest",
              "type": "bytes32"
            },
            {
              "internalType": "bytes32",
              "name": "digest",
              "type": "bytes32"
            }
          ],
          "internalType": "struct MineContext",
          "name": "",
          "type": "tuple"
        }
      ],
      "stateMutability": "view",
      "type": "function"
    },
    {
      "inputs": [
        {
          "internalType": "bytes32",
          "name": "digest",
          "type": "bytes32"
        }
      ],
      "name": "getEpochRange",
      "outputs": [
        {
          "components": [
            {
              "internalType": "uint128",
              "name": "start",
              "type": "uint128"
            },
            {
              "internalType": "uint128",
              "name": "end",
              "type": "uint128"
            }
          ],
          "internalType": "struct EpochRange",
          "name": "",
          "type": "tuple"
        }
      ],
      "stateMutability": "view",
      "type": "function"
    },
    {
      "inputs": [
        {
          "internalType": "uint256",
          "name": "txSeq",
          "type": "uint256"
        }
      ],
      "name": "getFlowRootByTxSeq",
      "outputs": [
        {
          "internalType": "bytes32",
          "name": "",
          "type": "bytes32"
        }
      ],
      "stateMutability": "view",
      "type": "function"
    },
    {
      "inputs": [
        {
          "internalType": "bytes32",
          "name": "role",
          "type": "bytes32"
        }
      ],
      "name": "getRoleAdmin",
      "outputs": [
        {
          "internalType": "bytes32",
          "name": "",
          "type": "bytes32"
        }
      ],
      "stateMutability": "view",
      "type": "function"
    },
    {
      "inputs": [
        {
          "internalType": "bytes32",
          "name": "role",
          "type": "bytes32"
        },
        {
          "internalType": "uint256",
          "name": "index",
          "type": "uint256"
        }
      ],
      "name": "getRoleMember",
      "outputs": [
        {
          "internalType": "address",
          "name": "",
          "type": "address"
        }
      ],
      "stateMutability": "view",
      "type": "function"
    },
    {
      "inputs": [
        {
          "internalType": "bytes32",
          "name": "role",
          "type": "bytes32"
        }
      ],
      "name": "getRoleMemberCount",
      "outputs": [
        {
          "internalType": "uint256",
          "name": "",
          "type": "uint256"
        }
      ],
      "stateMutability": "view",
      "type": "function"
    },
    {
      "inputs": [
        {
          "internalType": "bytes32",
          "name": "role",
          "type": "bytes32"
        },
        {
          "internalType": "address",
          "name": "account",
          "type": "address"
        }
      ],
      "name": "grantRole",
      "outputs": [],
      "stateMutability": "nonpayable",
      "type": "function"
    },
    {
      "inputs": [
        {
          "internalType": "bytes32",
          "name": "role",
          "type": "bytes32"
        },
        {
          "internalType": "address",
          "name": "account",
          "type": "address"
        }
      ],
      "name": "hasRole",
      "outputs": [
        {
          "internalType": "bool",
          "name": "",
          "type": "bool"
        }
      ],
      "stateMutability": "view",
      "type": "function"
    },
    {
      "inputs": [
        {
          "internalType": "address",
          "name": "market_",
          "type": "address"
        },
        {
          "internalType": "uint256",
          "name": "blocksPerEpoch_",
          "type": "uint256"
        }
      ],
      "name": "initialize",
      "outputs": [],
      "stateMutability": "nonpayable",
      "type": "function"
    },
    {
      "inputs": [],
      "name": "initialized",
      "outputs": [
        {
          "internalType": "bool",
          "name": "",
          "type": "bool"
        }
      ],
      "stateMutability": "view",
      "type": "function"
    },
    {
      "inputs": [],
      "name": "makeContext",
      "outputs": [],
      "stateMutability": "nonpayable",
      "type": "function"
    },
    {
      "inputs": [
        {
          "internalType": "uint256",
          "name": "cnt",
          "type": "uint256"
        }
      ],
      "name": "makeContextFixedTimes",
      "outputs": [],
      "stateMutability": "nonpayable",
      "type": "function"
    },
    {
      "inputs": [],
      "name": "makeContextWithResult",
      "outputs": [
        {
          "components": [
            {
              "internalType": "uint256",
              "name": "epoch",
              "type": "uint256"
            },
            {
              "internalType": "uint256",
              "name": "mineStart",
              "type": "uint256"
            },
            {
              "internalType": "bytes32",
              "name": "flowRoot",
              "type": "bytes32"
            },
            {
              "internalType": "uint256",
              "name": "flowLength",
              "type": "uint256"
            },
            {
              "internalType": "bytes32",
              "name": "blockDigest",
              "type": "bytes32"
            },
            {
              "internalType": "bytes32",
              "name": "digest",
              "type": "bytes32"
            }
          ],
          "internalType": "struct MineContext",
          "name": "",
          "type": "tuple"
        }
      ],
      "stateMutability": "nonpayable",
      "type": "function"
    },
    {
      "inputs": [],
      "name": "market",
      "outputs": [
        {
          "internalType": "address payable",
          "name": "",
          "type": "address"
        }
      ],
      "stateMutability": "view",
      "type": "function"
    },
    {
      "inputs": [],
      "name": "numSubmissions",
      "outputs": [
        {
          "internalType": "uint256",
          "name": "",
          "type": "uint256"
        }
      ],
      "stateMutability": "view",
      "type": "function"
    },
    {
      "inputs": [],
      "name": "pause",
      "outputs": [],
      "stateMutability": "nonpayable",
      "type": "function"
    },
    {
      "inputs": [],
      "name": "paused",
      "outputs": [
        {
          "internalType": "bool",
          "name": "",
          "type": "bool"
        }
      ],
      "stateMutability": "view",
      "type": "function"
    },
    {
      "inputs": [
        {
          "internalType": "uint128",
          "name": "targetPosition",
          "type": "uint128"
        }
      ],
      "name": "queryContextAtPosition",
      "outputs": [
        {
          "components": [
            {
              "internalType": "uint128",
              "name": "start",
              "type": "uint128"
            },
            {
              "internalType": "uint128",
              "name": "end",
              "type": "uint128"
            },
            {
              "internalType": "bytes32",
              "name": "digest",
              "type": "bytes32"
            }
          ],
          "internalType": "struct EpochRangeWithContextDigest",
          "name": "range",
          "type": "tuple"
        }
      ],
      "stateMutability": "nonpayable",
      "type": "function"
    },
    {
      "inputs": [
        {
          "internalType": "bytes32",
          "name": "role",
          "type": "bytes32"
        },
        {
          "internalType": "address",
          "name": "account",
          "type": "address"
        }
      ],
      "name": "renounceRole",
      "outputs": [],
      "stateMutability": "nonpayable",
      "type": "function"
    },
    {
      "inputs": [
        {
          "internalType": "bytes32",
          "name": "role",
          "type": "bytes32"
        },
        {
          "internalType": "address",
          "name": "account",
          "type": "address"
        }
      ],
      "name": "revokeRole",
      "outputs": [],
      "stateMutability": "nonpayable",
      "type": "function"
    },
    {
      "inputs": [],
      "name": "rootHistory",
      "outputs": [
        {
          "internalType": "contract IDigestHistory",
          "name": "",
          "type": "address"
        }
      ],
      "stateMutability": "view",
      "type": "function"
    },
    {
      "inputs": [
        {
          "internalType": "uint256",
          "name": "blocksPerEpoch_",
          "type": "uint256"
        },
        {
          "internalType": "uint256",
          "name": "firstBlock_",
          "type": "uint256"
        },
        {
          "internalType": "address",
          "name": "rootHistory_",
          "type": "address"
        }
      ],
      "name": "setParams",
      "outputs": [],
      "stateMutability": "nonpayable",
      "type": "function"
    },
    {
      "inputs": [],
      "name": "submissionIndex",
      "outputs": [
        {
          "internalType": "uint256",
          "name": "",
          "type": "uint256"
        }
      ],
      "stateMutability": "view",
      "type": "function"
    },
    {
      "inputs": [
        {
          "components": [
            {
              "internalType": "uint256",
              "name": "length",
              "type": "uint256"
            },
            {
              "internalType": "bytes",
              "name": "tags",
              "type": "bytes"
            },
            {
              "components": [
                {
                  "internalType": "bytes32",
                  "name": "root",
                  "type": "bytes32"
                },
                {
                  "internalType": "uint256",
                  "name": "height",
                  "type": "uint256"
                }
              ],
              "internalType": "struct SubmissionNode[]",
              "name": "nodes",
              "type": "tuple[]"
            }
          ],
          "internalType": "struct Submission",
          "name": "submission",
          "type": "tuple"
        }
      ],
      "name": "submit",
      "outputs": [
        {
          "internalType": "uint256",
          "name": "",
          "type": "uint256"
        },
        {
          "internalType": "bytes32",
          "name": "",
          "type": "bytes32"
        },
        {
          "internalType": "uint256",
          "name": "",
          "type": "uint256"
        },
        {
          "internalType": "uint256",
          "name": "",
          "type": "uint256"
        }
      ],
      "stateMutability": "payable",
      "type": "function"
    },
    {
      "inputs": [
        {
          "internalType": "bytes4",
          "name": "interfaceId",
          "type": "bytes4"
        }
      ],
      "name": "supportsInterface",
      "outputs": [
        {
          "internalType": "bool",
          "name": "",
          "type": "bool"
        }
      ],
      "stateMutability": "view",
      "type": "function"
    },
    {
      "inputs": [],
      "name": "tree",
      "outputs": [
        {
          "internalType": "uint256",
          "name": "currentLength",
          "type": "uint256"
        },
        {
          "internalType": "uint256",
          "name": "unstagedHeight",
          "type": "uint256"
        }
      ],
      "stateMutability": "view",
      "type": "function"
    },
    {
      "inputs": [],
      "name": "unpause",
      "outputs": [],
      "stateMutability": "nonpayable",
      "type": "function"
    }
  ],
  "bytecode": "0x60a06040523480156200001157600080fd5b506040516200446438038062004464833981016040819052620000349162000047565b6000805460ff1916905560805262000061565b6000602082840312156200005a57600080fd5b5051919050565b6080516143e0620000846000396000818161063d0152610fc201526143e06000f3fe6080604052600436106200023b5760003560e01c8063900cf0cf116200012f578063c7dd522111620000ad578063e63ab1e91162000078578063e63ab1e91462000760578063ebdec6d31462000785578063ef3e12dc14620007aa578063f068205414620007e2578063fd54b22814620007fa57600080fd5b8063c7dd522114620006cf578063ca15c87314620006f1578063cd6dc6871462000716578063d547741f146200073b57600080fd5b80639bbbfdbb11620000fa5780639bbbfdbb14620006295780639e62a38e146200065f578063a217fddf1462000688578063b464b53e146200069f578063b8a409ac14620006b757600080fd5b8063900cf0cf14620005af5780639010d07c14620005c757806391d1485414620005ec57806393e405a0146200061157600080fd5b806336568abe11620001bd5780636d7ad0fc11620001885780636d7ad0fc146200048057806377e1982414620004b15780637d59070814620004c857806380f55605146200055c5780638456cb59146200059757600080fd5b806336568abe146200041157806338d45e1014620004365780633f4ba83a146200044e5780635c975abb146200046657600080fd5b80631deb0fca116200020a5780631deb0fca1462000322578063231b02681462000349578063248a9ca314620003615780632f2ff15d146200039657806331bae17414620003bb57600080fd5b806301ffc9a71462000240578063127f0f07146200027a578063158ef93e14620002df57806318a641ef14620002fb575b600080fd5b3480156200024d57600080fd5b50620002656200025f366004620034d5565b6200082d565b60405190151581526020015b60405180910390f35b3480156200028757600080fd5b50620002926200085b565b604051620002719190600060c082019050825182526020830151602083015260408301516040830152606083015160608301526080830151608083015260a083015160a083015292915050565b348015620002ec57600080fd5b50600354620002659060ff1681565b3480156200030857600080fd5b50620003206200031a36600462003501565b620008c6565b005b3480156200032f57600080fd5b506200033a6200092a565b60405190815260200162000271565b3480156200035657600080fd5b506200033a60465481565b3480156200036e57600080fd5b506200033a6200038036600462003501565b6000908152600160208190526040909120015490565b348015620003a357600080fd5b5062000320620003b536600462003533565b62000949565b348015620003c857600080fd5b50620003e0620003da36600462003562565b62000978565b6040805182516001600160801b03908116825260208085015190911690820152918101519082015260600162000271565b3480156200041e57600080fd5b50620003206200043036600462003533565b62000b2e565b3480156200044357600080fd5b506200032062000bac565b3480156200045b57600080fd5b506200032062000be3565b3480156200047357600080fd5b5060005460ff1662000265565b3480156200048d57600080fd5b506200033a6200049f36600462003501565b60009081526045602052604090205490565b348015620004be57600080fd5b50603a546200033a565b348015620004d557600080fd5b5062000534620004e736600462003501565b6040805180820190915260008082526020820152506000908152604360209081526040918290208251808401909352546001600160801b038082168452600160801b909104169082015290565b6040805182516001600160801b03908116825260209384015116928101929092520162000271565b3480156200056957600080fd5b506036546200057e906001600160a01b031681565b6040516001600160a01b03909116815260200162000271565b348015620005a457600080fd5b506200032062000c08565b348015620005bc57600080fd5b506200033a603b5481565b348015620005d457600080fd5b506200057e620005e63660046200358d565b62000c2d565b348015620005f957600080fd5b50620002656200060b36600462003533565b62000c4e565b3480156200061e57600080fd5b506200033a603c5481565b3480156200063657600080fd5b506200033a7f000000000000000000000000000000000000000000000000000000000000000081565b6200067662000670366004620037e3565b62000c79565b604051620002719493929190620038dc565b3480156200069557600080fd5b506200033a600081565b348015620006ac57600080fd5b506200029262000eba565b348015620006c457600080fd5b506200033a603a5481565b348015620006dc57600080fd5b506047546200057e906001600160a01b031681565b348015620006fe57600080fd5b506200033a6200071036600462003501565b62000f25565b3480156200072357600080fd5b50620003206200073536600462003963565b62000f3e565b3480156200074857600080fd5b50620003206200075a36600462003533565b62001023565b3480156200076d57600080fd5b506200033a6000805160206200438b83398151915281565b3480156200079257600080fd5b5062000320620007a436600462003990565b6200104d565b620007c1620007bb366004620039c8565b6200105a565b60408051948552602085019390935291830152606082015260800162000271565b348015620007ef57600080fd5b506200033a60485481565b3480156200080757600080fd5b5060375460385462000817919082565b6040805192835260208301919091520162000271565b60006001600160e01b03198216635a05180f60e01b14806200085557506200085582620011b8565b92915050565b6040805160c081018252600080825260208201819052918101829052606081018290526080810182905260a0810191909152506040805160c081018252603d548152603e546020820152603f548183015290546060820152604154608082015260425460a082015290565b604654431015620008f45760405162461bcd60e51b8152600401620008eb9062003a08565b60405180910390fd5b60005b818111620009255762000909620011ef565b62000912575050565b6200091d8162003a55565b9050620008f7565b505b50565b6000620009386037620014bc565b62000944603762001605565b905090565b60008281526001602081905260409091200154620009678162001642565b6200097383836200164e565b505050565b60408051606081018252600080825260208201819052918101919091526200099f62000bac565b6037546001600160801b0383161062000a075760405162461bcd60e51b8152602060048201526024808201527f5175657269656420706f736974696f6e206578636565647320757070657220626044820152631bdd5b9960e21b6064820152608401620008eb565b6044546000905b8181111562000ae5576000600262000a27848462003a71565b62000a33919062003a9d565b90506044818154811062000a4b5762000a4b62003ab4565b600091825260209182902060408051606081018252600290930290910180546001600160801b038082168552600160801b90910481169484018590526001909101549183019190915290955086161062000ab45762000aac81600162003a71565b925062000ade565b83600001516001600160801b0316856001600160801b03161062000ada57505050919050565b8091505b5062000a0e565b60405162461bcd60e51b815260206004820152601b60248201527f43616e206e6f742066696e642070726f70657220636f6e7465787400000000006044820152606401620008eb565b6001600160a01b038116331462000ba05760405162461bcd60e51b815260206004820152602f60248201527f416363657373436f6e74726f6c3a2063616e206f6e6c792072656e6f756e636560448201526e103937b632b9903337b91039b2b63360891b6064820152608401620008eb565b62000925828262001674565b60465443101562000bd15760405162461bcd60e51b8152600401620008eb9062003a08565b62000bdb620011ef565b62000bd1575b565b6000805160206200438b83398151915262000bfe8162001642565b620009276200169a565b6000805160206200438b83398151915262000c238162001642565b62000927620016ee565b600082815260026020526040812062000c4790836200172e565b9392505050565b60009182526001602090815260408084206001600160a01b0393909316845291905290205460ff1690565b60608060608062000c896200173c565b60465443101562000cae5760405162461bcd60e51b8152600401620008eb9062003a08565b8451806001600160401b0381111562000ccb5762000ccb620035b0565b60405190808252806020026020018201604052801562000cf5578160200160208202803683370190505b509450806001600160401b0381111562000d135762000d13620035b0565b60405190808252806020026020018201604052801562000d3d578160200160208202803683370190505b509350806001600160401b0381111562000d5b5762000d5b620035b0565b60405190808252806020026020018201604052801562000d85578160200160208202803683370190505b509250806001600160401b0381111562000da35762000da3620035b0565b60405190808252806020026020018201604052801562000dcd578160200160208202803683370190505b50915060005b8181101562000eb15760008060008062000e098b868151811062000dfb5762000dfb62003ab4565b60200260200101516200105a565b9350935093509350838a868151811062000e275762000e2762003ab4565b6020026020010181815250508289868151811062000e495762000e4962003ab4565b6020026020010181815250508188868151811062000e6b5762000e6b62003ab4565b6020026020010181815250508087868151811062000e8d5762000e8d62003ab4565b602002602001018181525050505050508062000ea99062003a55565b905062000dd3565b50509193509193565b6040805160c081018252600080825260208201819052918101829052606081018290526080810182905260a081019190915260465443101562000f115760405162461bcd60e51b8152600401620008eb9062003a08565b62000f1b62000bac565b620009446200085b565b6000818152600260205260408120620008559062001784565b60035460ff161562000f9f5760405162461bcd60e51b8152602060048201526024808201527f5a67496e697469616c697a61626c653a20616c726561647920696e697469616c6044820152631a5e995960e21b6064820152608401620008eb565b6003805460ff1916600117905562000fb7826200178f565b620009258162000fe87f00000000000000000000000000000000000000000000000000000000000000004362003a71565b6103e860405162000ff990620034c7565b908152602001604051809103906000f0801580156200101c573d6000803e3d6000fd5b506200189e565b60008281526001602081905260409091200154620010418162001642565b62000973838362001674565b620009738383836200189e565b6000806000806200106a6200173c565b6046544310156200108f5760405162461bcd60e51b8152600401620008eb9062003a08565b6200109a856200195c565b620010dd5760405162461bcd60e51b815260206004820152601260248201527124b73b30b634b21039bab136b4b9b9b4b7b760711b6044820152606401620008eb565b6000620010ea8662001baa565b9050620010f662000bac565b6000620011038762001c11565b90506000620011128862001d66565b603a805491925060019060006200112a838562003a71565b909155506200113c90506037620014bc565b62001148603762001605565b604560008381526020019081526020016000208190555081336001600160a01b03167f167ce04d2aa1981994d3a31695da0d785373335b1078cec239a1a3a2c76755558386888e604051620011a1949392919062003b1e565b60405180910390a396509450925090509193509193565b60006001600160e01b03198216637965db0b60e01b14806200085557506301ffc9a760e01b6001600160e01b031983161462000855565b6000620011fb6200173c565b6000604854603b54600101026046540190504381106200121d57600091505090565b620012296037620014bc565b600062001237603762001605565b604754604051632d287e4360e01b8152600481018390529192506001600160a01b031690632d287e43906024016020604051808303816000875af115801562001284573d6000803e3d6000fd5b505050506040513d601f19601f82011682018060405250810190620012aa919062003bb4565b5060008043620012bd8561010062003a71565b1015620012ef57507fc5d2460186f7233c927e7db2dcc703c0e500b653ca82273b7bfad8045d85a470905080620013fe565b506037546040805185406020820181905291810185905260608101929092529060800160408051808303601f190181528282528051602091820120603c80546037805487870187526001600160801b039283168089529083168689018181526000878152604389528981209a519151918616600160801b928716830217909a558851606081018a529283529682019081529681018581526044805460018101825599529051965196831696909216909402949094177f9b22d3d61959b4d3528b1d8ba932c96fbe302b36a1aad1d95cab54f9e0a135ea60029096029586015592517f9b22d3d61959b4d3528b1d8ba932c96fbe302b36a1aad1d95cab54f9e0a135eb9094019390935554905591505b6001603b600082825462001413919062003a71565b90915550506040805160c081018252603b5480825260208083018890528284018790526037546060808501829052608080860188905260a0909501889052603d849055603e8a9055603f89905581865560418790556042889055603a5486518a815293840152948201529283018590529133917fbc8a3fd82465d43f1709e44ed882f7e1af0147274196ef1ec009f5d52ff4e993910160405180910390a3600194505050505090565b6002810154600182015403620014cf5750565b60028101805460018084015491926000929091620014ed9162003bce565b8154811062001500576200150062003ab4565b9060005260206000200154905060006200152c6001856001015462001526919062003bce565b62001e53565b60018501549091505b83811015620015fa576040805160208082018690528183018590528251808303840181526060909201909252805191012085546200157890600290841c62003be4565b600003620015bb578093506200158e8262001e53565b925080866002018381548110620015a957620015a962003ab4565b600091825260209091200155620015e4565b856002018281548110620015d357620015d362003ab4565b906000526020600020015493508092505b5080620015f18162003a55565b91505062001535565b505050600190910155565b600281018054600091906200161d9060019062003bce565b8154811062001630576200163062003ab4565b90600052602060002001549050919050565b62000927813362002a98565b6200165a828262002afc565b600082815260026020526040902062000973908262002b6a565b62001680828262002b81565b600082815260026020526040902062000973908262002beb565b620016a462002c02565b6000805460ff191690557f5db9ee0a495bf2e6ff9c91a7834c1ba4fdd244a5e8aa4e537bd38aeae4b073aa335b6040516001600160a01b03909116815260200160405180910390a1565b620016f86200173c565b6000805460ff191660011790557f62e78cea01bee320cd4e420270b5ea74000d11b0c9f74754ebdbfc544b05a258620016d13390565b600062000c47838362002c4d565b60005460ff161562000be15760405162461bcd60e51b815260206004820152601060248201526f14185d5cd8589b194e881c185d5cd95960821b6044820152606401620008eb565b600062000855825490565b6001603781905560398054808301825560009182527fdc16fef70f8d5ddbc01ee3d903d1e69c18a3c7be080eb86a81e0578814ee58d30155603855603680546001600160a01b0319166001600160a01b0383161790556000603b8190556040805160c081018252918252604654602083015281016200180f603762001605565b815260016020808301919091527fc5d2460186f7233c927e7db2dcc703c0e500b653ca82273b7bfad8045d85a47060408084018290526060938401919091528351603d5590830151603e5582810151603f55908201519055608081015160415560a001516042556200188360003362002c7a565b620009276000805160206200438b8339815191523362002c7a565b604854600003620018af5760488390555b604654600003620018c05760468290555b6047546001600160a01b031662000973576001600160a01b0381166200193a576103e8604051620018f190620034c7565b908152602001604051809103906000f08015801562001914573d6000803e3d6000fd5b50604780546001600160a01b0319166001600160a01b0392909216919091179055505050565b604780546001600160a01b0383166001600160a01b0319909116179055505050565b60008160400151516000036200197457506000919050565b60408201518051600491906200198d9060019062003bce565b81518110620019a057620019a062003ab4565b6020026020010151602001518360400151600081518110620019c657620019c662003ab4565b602002602001015160200151620019de919062003bce565b10620019ec57506000919050565b6040826040015160008151811062001a085762001a0862003ab4565b6020026020010151602001511062001a2257506000919050565b60005b600183604001515162001a39919062003bce565b81101562001abd578260400151818151811062001a5a5762001a5a62003ab4565b602002602001015160200151836040015182600162001a7a919062003a71565b8151811062001a8d5762001a8d62003ab4565b6020026020010151602001511062001aa85750600092915050565b8062001ab48162003a55565b91505062001a25565b50600062001acb8362001baa565b905062001adb6101008262003bfb565b8351111562001aed5750600092915050565b6000601082101562001b0e5762001b0660018362003bce565b905062001b80565b83604001515160010362001b2c5762001b06600483901c8362003bce565b6004846040015160008151811062001b485762001b4862003ab4565b60200260200101516020015162001b60919062003bce565b62001b6d90600162003a71565b62001b7d906001901b8362003bce565b90505b62001b8e6101008262003bfb565b84511162001ba0575060009392505050565b5060019392505050565b600080805b83604001515181101562001c0a578360400151818151811062001bd65762001bd662003ab4565b6020026020010151602001516001901b8262001bf3919062003a71565b91508062001c018162003a55565b91505062001baf565b5092915050565b6037805460009162001c24908462002c86565b60005b83604001515181101562001cc95760008460400151828151811062001c505762001c5062003ab4565b602002602001015160000151905060008560400151838151811062001c795762001c7962003ab4565b6020026020010151602001519050600062001ca18383603762002ddd9092919063ffffffff16565b90508360000362001cb0578095505b505050808062001cc09062003a55565b91505062001c27565b50600062001cd8828462003bce565b905060008360376000015462001cef919062003bce565b603654604051636d3759b560e11b81526004810186905260248101839052604481018590529192506001600160a01b03169063da6eb36a90606401600060405180830381600087803b15801562001d4557600080fd5b505af115801562001d5a573d6000803e3d6000fd5b50505050505050919050565b6000808260400151516001600160401b0381111562001d895762001d89620035b0565b60405190808252806020026020018201604052801562001db3578160200160208202803683370190505b50905060005b83604001515181101562001e21578360400151818151811062001de05762001de062003ab4565b60200260200101516000015182828151811062001e015762001e0162003ab4565b60209081029190910101528062001e188162003a55565b91505062001db9565b508060405160200162001e35919062003c1d565b60405160208183030381529060405280519060200120915050919050565b60008160000362001e8557507fd397b3b043d87fcd6fad1291ff0bfd16401c274896d8c63a923727f077b8e0b5919050565b8160010362001eb557507ff73e6947d7d1628b9976a6e40d7b278a8a16405e96324a68df45b12a51b7cfde919050565b8160020362001ee557507fa1520264ae93cac619e22e8718fc4fa7ebdd23f493cad602434d2a58ff4868fb919050565b8160030362001f1557507fde5747106ac1194a1fa9071dbd6cf19dc2bc7964497ef0afec7e4bdbcf08c47e919050565b8160040362001f4557507f09c7082879180d28c789c05fafe7030871c76cedbe82c948b165d6a1d66ac15b919050565b8160050362001f7557507faa7a02bcf29fba687f84123c808b5b48834ff5395abe98e622fadc14e4180c95919050565b8160060362001fa557507f7608fd46b710b589e0f2ee5a13cd9c41d432858a30d524f84c6d5db37f66273a919050565b8160070362001fd557507fa5d9a2f7f3573ac9a1366bc484688b4daf934b87ea9b3bf2e703da8fd9f09708919050565b816008036200200557507f6c1779477f4c3fca26b4607398859a43b90a286ce8062500744bd4949981757f919050565b816009036200203557507f45c22df3d952c33d5edce122eed85e5cda3fd61939e7ad7b3e03b6927bb598ea919050565b81600a036200206557507fe68d02859bb6211cec64f52368b77d422de3b8eac34bf615942b814b643301b5919050565b81600b036200209557507f62d78399b954d51cb9728601738ad13ddc43b2300064660716bb661d2f4d686f919050565b81600c03620020c557507f6e250d9abdbbb3993fce08de0395cdb56f0483e67d8762a798de011f6a50866a919050565b81600d03620020f557507f1d1a3a74062fd94078617e33eb901eaf16a830f67c387d8eed342db2ac5e2cc5919050565b81600e036200212557507f19b3b3886526917eae8650223d0be20a0301be960eb339696e673ad8a804440f919050565b81600f036200215557507fee9e05df53f10e62a897e5140a3f58732dd849e69cd1d62b21ed80ead711a014919050565b816010036200218557507f2cc7aa6e611a113a34505dc1c96b220f14909b70e2c2c7b1a74655da21013c5e919050565b81601103620021b557507f949b52dfece7ca3bad3cb27f7750ecaee64cedb6243a275c35984e92956c530a919050565b81601203620021e557507fb2680d060b763b932c150434c3812ba9fbc50937e0ebcf5758de884be81bab65919050565b816013036200221557507f523aebf4a085edbc9c8cdc99c83f46262e5f029b395ff7bf561a48a3f387e6b8919050565b816014036200224557507fc9ab73827ab33c0cedb7ecf0ed2e6e32583c0fe887133a7f381ea4ba84d95b76919050565b816015036200227557507f23eb397dec7e564ebe97f160a5e1081a77d9861f316807079b6be4731beb331e919050565b81601603620022a557507fdfa44a274c60f090df034aaf75539fd40e94cfd6362dd53d26ed20c8ad529563919050565b81601703620022d557507f15b13ee358e1044a53381243c094e54bf7aceb9b5325a0313d6b85fd44e8b3a5919050565b816018036200230557507f1a7a93871e2daa0f1860aa91d4ece4ccd012dac5fe581176a21b155cfeca6d40919050565b816019036200233557507fb12665fd0b884a7c7d1e0294d369170d7e672d9e125eb87784556305f98292df919050565b81601a036200236557507f2a5543b0b2f8cf550524390291774f4d6c8c0a25ff5393b09c44d75c92a5bd8e919050565b81601b036200239557507ff9df1841a6e7164b67a1242f1c74975137085ffd9721831f6c469d3a4d5ba42e919050565b81601c03620023c557507fba24736b1b48246c1f7803be967be43ca0dddc9c2c0687a2957952249bc89371919050565b81601d03620023f557507ff3f706b73790c73ca0a8f0460ac3a2a102e280415586b520e70cd5e8264388b4919050565b81601e036200242557507fc1f5a9a9f357e1c37814688cf7290c87a264ed3d6174a12b978da1c586f53825919050565b81601f036200245557507f766f7702e19ce23d426cdad03e4292a5a42c4669420101fed74400ec7cda3ac6919050565b816020036200248557507f070fec213e105b3e4d9b0434ac2fc7ca721d35093dc741fb9419797003e2394a919050565b81602103620024b557507f9a7aade05b49e43f5fd3782571cc8c90eadacd5d660b53842b4e5b63d675ae0c919050565b81602203620024e557507fb27b35a8236d0f9b6692820429c025ed58ed378dc98d316b762f0c865c68be6f919050565b816023036200251557507fdc567ad38d9b90cc9bea4e0f82ec05eca10b3aa94eddc7b63c4fd20c001bb53b919050565b816024036200254557507fb208dfc457c8b30661ae49544c8e57399818095aab8dd7a426fb8dd56bb8c559919050565b816025036200257557507fc4a72e1ff84f7a22631f3f95c61c392f98f52050360215a9d7e75d79b0bcd2ca919050565b81602603620025a557507fbb093ec8c0d7defb1de668b5b5dd4f2619e5cd92d29cc144862364a83ab993a8919050565b81602703620025d557507fe341796f2fe3975012c1e6badfa2e9c4523e43f911dc845082c3f4d7b4ff871d919050565b816028036200260557507f42d356a11a0b39243eca3c3263299cb6f8c3e9728af6d9d8b0ddb6d354f1890d919050565b816029036200263557507f0ce506e834e3a50a33f80074bc7fa16cf3c0712b36a41b69699177ea25de6c30919050565b81602a036200266557507fd8fa5bf130aeb7756b1ed09090cc80ed78dae0617978540f0fabd06dfb978938919050565b81602b036200269557507feed69a20fe36eb604f2153efa3b01c0e143cdf02229a1b8f741c9c2719059eb0919050565b81602c03620026c557507f303c9c566ebf5bfe252796e5c131a99801226152a514688b5ca6883e99031d88919050565b81602d03620026f557507fc7c3765ba96cfbccf3ae718393fa89791070cc8cd85f280b6ac46aea10d96042919050565b81602e036200272557507f1ca65b0a2b8034ee6bfb1fa4526832304e393af835c2c42b4dace58048746800919050565b81602f036200275557507f957add5e02350fd47de3a8e1da38fd774ceb31214d5897ed6315740a83cd634a919050565b816030036200278557507f787892cb439d5d358870774e163557cf02ec3cb87be6fde11abf1acee14eeaa4919050565b81603103620027b557507f047c0962d4f5c8f60692c587de07739528c4d2059240d61dd34d2a547a438ee6919050565b81603203620027e557507fc18727efc9e4df63020dcd90edc17dfd2ad14f02328c912b13898e0b53735556919050565b816033036200281557507fe38b9218987e451effe1648c3c9851ad03b64b052a5a3f5ca30f4d7b1ecf7120919050565b816034036200284557507f0e48ecb1a5418e6218289acc8cf723e67ac6eae3ecb80f644336ab4365a2f2b2919050565b816035036200287557507fd60e66f5b8cd08d71a1a4d7798952a7afa5a6e93a886c587a46a5500ebef4a60919050565b81603603620028a557507f5162aa9c31d9105f689cf6e71e19548bc9f0218b7d0f99ff7fa8bc2f19c68462919050565b81603703620028d557507f6fa8519b4b0e8fb97a9b618e97627d97b9b9d29d04521fd96472e9c502700568919050565b816038036200290557507f41f5dcf0cdee270a2ad9a5f8130aaaab94b237463e09757c28b0321f09e24eb0919050565b816039036200293557507f87a119239fa90732197108adfd029938b4743874d959d3da79b3a30f4832899e919050565b81603a036200296557507f8e96dbaa5c72e84a5297b040ccc1a60750a3201166e3b7740d352837233608a1919050565b81603b036200299557507f01605058d167ce967af8c475d2f6c341c3e0b437babf899c9da73a520aa4ecb5919050565b81603c03620029c557507f04529eb80532c5118949d700d8dfd2aa86850b1c6479b26276b9486784a145ff919050565b81603d03620029f557507fd191814ad13f27361ae20a46cbac8f6e76c10ebe9af0806d6720492ee2f296f0919050565b81603e0362002a2557507fa28df63f78821060570da371c0be1312188346b92a7965cc4b980b26c134a4d7919050565b81603f0362002a5557507fb48a92d40b61dc995ceecee4cded6415050dcece448b1e0b5e5b6a0e6981f3ef919050565b60405162461bcd60e51b8152602060048201526012602482015271125b99195e081bdd5d081bd988189bdd5b9960721b6044820152606401620008eb565b919050565b62002aa4828262000c4e565b620009255762002ab48162002f7c565b62002ac183602062002f8f565b60405160200162002ad492919062003c55565b60408051601f198184030181529082905262461bcd60e51b8252620008eb9160040162003cce565b62002b08828262000c4e565b620009255760008281526001602081815260408084206001600160a01b0386168086529252808420805460ff19169093179092559051339285917f2f8788117e7eff1d82e926ec794901d17c78024a50270940304540a733656f0d9190a45050565b600062000c47836001600160a01b03841662003148565b62002b8d828262000c4e565b15620009255760008281526001602090815260408083206001600160a01b0385168085529252808320805460ff1916905551339285917ff6391f5c32d9c69d2a47ea670b442974b53935d1edc7fd64eb21e047a839171b9190a45050565b600062000c47836001600160a01b0384166200319a565b60005460ff1662000be15760405162461bcd60e51b815260206004820152601460248201527314185d5cd8589b194e881b9bdd081c185d5cd95960621b6044820152606401620008eb565b600082600001828154811062002c675762002c6762003ab4565b9060005260206000200154905092915050565b6200092582826200164e565b600062002c938262001baa565b9050600062002ccc8460000154846040015160008151811062002cba5762002cba62003ab4565b6020026020010151602001516200329e565b905061010062002cdf6104008262003bfb565b62002ceb919062003a9d565b62002cf7908262003be4565b1580159062002d70575061010062002d126104008262003bfb565b62002d1e919062003a9d565b600162002d2c848462003a71565b62002d38919062003bce565b62002d44919062003a9d565b61010062002d556104008262003bfb565b62002d61919062003a9d565b62002d6d908362003a9d565b14155b1562002dd75761010062002d876104008262003bfb565b62002d93919062003a9d565b62002d9f908262003be4565b61010062002db06104008262003bfb565b62002dbc919062003a9d565b62002dc8908362003a71565b62002dd4919062003bce565b84555b50505050565b60008062002df08560000154846200329e565b9050600062002e036001851b8362003a71565b600287015490915062002e199060019062003bce565b6001901b81111562002e765762002e3086620014bc565b62002e3b86620032dc565b600286015462002e4e9060019062003bce565b6001901b81111562002e6b5762002e6586620032dc565b62002e3b565b600286015460018701555b600286015462002e87878662003378565b60008087875b8481101562002f5c5762002ea5600288831c62003be4565b60000362002eea57818b600201828154811062002ec65762002ec662003ab4565b60009182526020909120015562002edf81600162003a71565b60018c015562002f5c565b8a600201818154811062002f025762002f0262003ab4565b90600052602060002001549350819250838360405160200162002f2f929190918252602082015260400190565b6040516020818303038152906040528051906020012091508062002f538162003a55565b91505062002e8d565b5062002f6c6001891b8762003a71565b9099555092979650505050505050565b6060620008556001600160a01b03831660145b6060600062002fa083600262003bfb565b62002fad90600262003a71565b6001600160401b0381111562002fc75762002fc7620035b0565b6040519080825280601f01601f19166020018201604052801562002ff2576020820181803683370190505b509050600360fc1b8160008151811062003010576200301062003ab4565b60200101906001600160f81b031916908160001a905350600f60fb1b8160018151811062003042576200304262003ab4565b60200101906001600160f81b031916908160001a90535060006200306884600262003bfb565b6200307590600162003a71565b90505b6001811115620030f7576f181899199a1a9b1b9c1cb0b131b232b360811b85600f1660108110620030ad57620030ad62003ab4565b1a60f81b828281518110620030c657620030c662003ab4565b60200101906001600160f81b031916908160001a90535060049490941c93620030ef8162003ce3565b905062003078565b50831562000c475760405162461bcd60e51b815260206004820181905260248201527f537472696e67733a20686578206c656e67746820696e73756666696369656e746044820152606401620008eb565b6000818152600183016020526040812054620031915750815460018181018455600084815260208082209093018490558454848252828601909352604090209190915562000855565b50600062000855565b6000818152600183016020526040812054801562003293576000620031c160018362003bce565b8554909150600090620031d79060019062003bce565b905081811462003243576000866000018281548110620031fb57620031fb62003ab4565b906000526020600020015490508087600001848154811062003221576200322162003ab4565b6000918252602080832090910192909255918252600188019052604090208390555b855486908062003257576200325762003cfd565b60019003818190600052602060002001600090559055856001016000868152602001908152602001600020600090556001935050505062000855565b600091505062000855565b600082808203620032b457600091505062000855565b620032c160018262003bce565b831c9050620032d260018262003a71565b90921b9392505050565b60028101805490600090620032f360018462003bce565b8154811062003306576200330662003ab4565b60009182526020822001549150620033246200152660018562003bce565b905083600201828260405160200162003347929190918252602082015260400190565b60408051601f1981840301815291905280516020918201208254600181018455600093845291909220015550505050565b808260010154111562003389575050565b60028201805460018085015491926000929091620033a79162003bce565b81548110620033ba57620033ba62003ab4565b906000526020600020015490506000620033e06001866001015462001526919062003bce565b60018601549091505b83811015620034bf576040805160208082018690528183018590528251808303840181526060909201909252805191012086546200342c90600290841c62003be4565b6000036200348057809350620034428262001e53565b92508582106200347a578087600201838154811062003465576200346562003ab4565b60009182526020909120015550505050505050565b620034a9565b86600201828154811062003498576200349862003ab4565b906000526020600020015493508092505b5080620034b68162003a55565b915050620033e9565b505050505050565b6106778062003d1483390190565b600060208284031215620034e857600080fd5b81356001600160e01b03198116811462000c4757600080fd5b6000602082840312156200351457600080fd5b5035919050565b80356001600160a01b038116811462002a9357600080fd5b600080604083850312156200354757600080fd5b8235915062003559602084016200351b565b90509250929050565b6000602082840312156200357557600080fd5b81356001600160801b038116811462000c4757600080fd5b60008060408385031215620035a157600080fd5b50508035926020909101359150565b634e487b7160e01b600052604160045260246000fd5b604080519081016001600160401b0381118282101715620035eb57620035eb620035b0565b60405290565b604051606081016001600160401b0381118282101715620035eb57620035eb620035b0565b604051601f8201601f191681016001600160401b0381118282101715620036415762003641620035b0565b604052919050565b60006001600160401b03821115620036655762003665620035b0565b5060051b60200190565b600082601f8301126200368157600080fd5b813560206200369a620036948362003649565b62003616565b82815260069290921b84018101918181019086841115620036ba57600080fd5b8286015b84811015620036fe5760408189031215620036d95760008081fd5b620036e3620035c6565b813581528482013585820152835291830191604001620036be565b509695505050505050565b6000606082840312156200371c57600080fd5b62003726620035f1565b9050813581526020808301356001600160401b03808211156200374857600080fd5b818501915085601f8301126200375d57600080fd5b813581811115620037725762003772620035b0565b62003786601f8201601f1916850162003616565b81815287858386010111156200379b57600080fd5b81858501868301376000858383010152808587015250506040850135925080831115620037c757600080fd5b5050620037d7848285016200366f565b60408301525092915050565b60006020808385031215620037f757600080fd5b82356001600160401b03808211156200380f57600080fd5b818501915085601f8301126200382457600080fd5b813562003835620036948262003649565b81815260059190911b830184019084810190888311156200385557600080fd5b8585015b838110156200389257803585811115620038735760008081fd5b620038838b89838a010162003709565b84525091860191860162003859565b5098975050505050505050565b600081518084526020808501945080840160005b83811015620038d157815187529582019590820190600101620038b3565b509495945050505050565b608081526000620038f160808301876200389f565b82810360208481019190915286518083528782019282019060005b818110156200392a578451835293830193918301916001016200390c565b505084810360408601526200394081886200389f565b9250505082810360608401526200395881856200389f565b979650505050505050565b600080604083850312156200397757600080fd5b62003982836200351b565b946020939093013593505050565b600080600060608486031215620039a657600080fd5b8335925060208401359150620039bf604085016200351b565b90509250925092565b600060208284031215620039db57600080fd5b81356001600160401b03811115620039f257600080fd5b62003a008482850162003709565b949350505050565b6020808252601a908201527f436f6e747261637420686173206e6f74206c61756e636865642e000000000000604082015260600190565b634e487b7160e01b600052601160045260246000fd5b60006001820162003a6a5762003a6a62003a3f565b5060010190565b8082018082111562000855576200085562003a3f565b634e487b7160e01b600052601260045260246000fd5b60008262003aaf5762003aaf62003a87565b500490565b634e487b7160e01b600052603260045260246000fd5b60005b8381101562003ae757818101518382015260200162003acd565b50506000910152565b6000815180845262003b0a81602086016020860162003aca565b601f01601f19169290920160200192915050565b84815260006020858184015260408581850152608060608501528451608085015281850151606060a086015262003b5960e086018262003af0565b86830151868203607f190160c0880152805180835290850192506000918501905b8083101562003ba5578351805183528601518683015292850192600192909201919084019062003b7a565b509a9950505050505050505050565b60006020828403121562003bc757600080fd5b5051919050565b8181038181111562000855576200085562003a3f565b60008262003bf65762003bf662003a87565b500690565b600081600019048311821515161562003c185762003c1862003a3f565b500290565b815160009082906020808601845b8381101562003c495781518552938201939082019060010162003c2b565b50929695505050505050565b7f416363657373436f6e74726f6c3a206163636f756e742000000000000000000081526000835162003c8f81601785016020880162003aca565b7001034b99036b4b9b9b4b733903937b6329607d1b601791840191820152835162003cc281602884016020880162003aca565b01602801949350505050565b60208152600062000c47602083018462003af0565b60008162003cf55762003cf562003a3f565b506000190190565b634e487b7160e01b600052603160045260246000fdfe608060405234801561001057600080fd5b5060405161067738038061067783398101604081905261002f9161014a565b6100383361009a565b806001600160401b0381111561005057610050610163565b604051908082528060200260200182016040528015610079578160200160208202803683370190505b50805161008e916001916020909101906100ea565b50506000600255610179565b600080546001600160a01b038381166001600160a01b0319831681178455604051919092169283917f8be0079c531659141344cd1fd0a4f28419497f9722a3daafe3b4186f6b6457e09190a35050565b828054828255906000526020600020908101928215610125579160200282015b8281111561012557825182559160200191906001019061010a565b50610131929150610135565b5090565b5b808211156101315760008155600101610136565b60006020828403121561015c57600080fd5b5051919050565b634e487b7160e01b600052604160045260246000fd5b6104ef806101886000396000f3fe608060405234801561001057600080fd5b506004361061007d5760003560e01c80638da5cb5b1161005b5780638da5cb5b146100d557806396e494e8146100f0578063e0886f9014610103578063f2fde38b1461011657600080fd5b80631d1a696d146100825780632d287e43146100aa578063715018a6146100cb575b600080fd5b6100956100903660046103ea565b610129565b60405190151581526020015b60405180910390f35b6100bd6100b83660046103ea565b610194565b6040519081526020016100a1565b6100d36101f5565b005b6000546040516001600160a01b0390911681526020016100a1565b6100956100fe3660046103ea565b610209565b6100bd6101113660046103ea565b61023e565b6100d3610124366004610403565b61029e565b60008061013d600254600180549050610317565b905060005b8181101561018a57836001828154811061015e5761015e61042c565b906000526020600020015403610178575060019392505050565b8061018281610458565b915050610142565b5060009392505050565b600061019e610331565b6002546001546000906101b19083610471565b905083600182815481106101c7576101c761042c565b90600052602060002001819055506001600260008282546101e89190610493565b9091555091949350505050565b6101fd610331565b610207600061038b565b565b6001546002546000919083108015610237575080610229600254836103db565b61023391906104a6565b8310155b9392505050565b600061024982610209565b61026e5760405163b52d71f360e01b8152600481018390526024015b60405180910390fd5b6001805461027c9084610471565b8154811061028c5761028c61042c565b90600052602060002001549050919050565b6102a6610331565b6001600160a01b03811661030b5760405162461bcd60e51b815260206004820152602660248201527f4f776e61626c653a206e6577206f776e657220697320746865207a65726f206160448201526564647265737360d01b6064820152608401610265565b6103148161038b565b50565b60008183106103265781610328565b825b90505b92915050565b6000546001600160a01b031633146102075760405162461bcd60e51b815260206004820181905260248201527f4f776e61626c653a2063616c6c6572206973206e6f7420746865206f776e65726044820152606401610265565b600080546001600160a01b038381166001600160a01b0319831681178455604051919092169283917f8be0079c531659141344cd1fd0a4f28419497f9722a3daafe3b4186f6b6457e09190a35050565b60008183116103265781610328565b6000602082840312156103fc57600080fd5b5035919050565b60006020828403121561041557600080fd5b81356001600160a01b038116811461023757600080fd5b634e487b7160e01b600052603260045260246000fd5b634e487b7160e01b600052601160045260246000fd5b60006001820161046a5761046a610442565b5060010190565b60008261048e57634e487b7160e01b600052601260045260246000fd5b500690565b8082018082111561032b5761032b610442565b8181038181111561032b5761032b61044256fea2646970667358221220ab4227e667a8cb673b86154f616db16af24f601e334d164960a5df4e7cbdcec464736f6c6343000810003365d7a28e3265b37a6474929f336521b332c1681b933f6cb9f3376673440d862aa2646970667358221220615b0dde46015bf49074fa72a78a10f3d8c0d4d883c68d4e4de31bc217fa055564736f6c63430008100033",
  "linkReferences": {},
  "deployedLinkReferences": {}
}