{
  "_format": "hh-sol-artifact-1",
  "contractName": "Flow",
  "sourceName": "contracts/dataFlow/Flow.sol",
  "abi": [
    {
      "inputs": [
        {
          "internalType": "uint256",
          "name": "blocksPerEpoch_",
          "type": "uint256"
        },
        {
          "internalType": "uint256",
          "name": "deployDelay_",
          "type": "uint256"
        }
      ],
      "stateMutability": "nonpayable",
      "type": "constructor"
    },
    {
      "inputs": [],
      "name": "InvalidSubmission",
      "type": "error"
    },
    {
      "anonymous": false,
      "inputs": [
        {
          "indexed": true,
          "internalType": "address",
          "name": "sender",
          "type": "address"
        },
        {
          "indexed": true,
          "internalType": "uint256",
          "name": "index",
          "type": "uint256"
        },
        {
          "indexed": false,
          "internalType": "bytes32",
          "name": "startMerkleRoot",
          "type": "bytes32"
        },
        {
          "indexed": false,
          "internalType": "uint256",
          "name": "submissionIndex",
          "type": "uint256"
        },
        {
          "indexed": false,
          "internalType": "uint256",
          "name": "flowLength",
          "type": "uint256"
        },
        {
          "indexed": false,
          "internalType": "bytes32",
          "name": "context",
          "type": "bytes32"
        }
      ],
      "name": "NewEpoch",
      "type": "event"
    },
    {
      "anonymous": false,
      "inputs": [
        {
          "indexed": false,
          "internalType": "address",
          "name": "account",
          "type": "address"
        }
      ],
      "name": "Paused",
      "type": "event"
    },
    {
      "anonymous": false,
      "inputs": [
        {
          "indexed": true,
          "internalType": "bytes32",
          "name": "role",
          "type": "bytes32"
        },
        {
          "indexed": true,
          "internalType": "bytes32",
          "name": "previousAdminRole",
          "type": "bytes32"
        },
        {
          "indexed": true,
          "internalType": "bytes32",
          "name": "newAdminRole",
          "type": "bytes32"
        }
      ],
      "name": "RoleAdminChanged",
      "type": "event"
    },
    {
      "anonymous": false,
      "inputs": [
        {
          "indexed": true,
          "internalType": "bytes32",
          "name": "role",
          "type": "bytes32"
        },
        {
          "indexed": true,
          "internalType": "address",
          "name": "account",
          "type": "address"
        },
        {
          "indexed": true,
          "internalType": "address",
          "name": "sender",
          "type": "address"
        }
      ],
      "name": "RoleGranted",
      "type": "event"
    },
    {
      "anonymous": false,
      "inputs": [
        {
          "indexed": true,
          "internalType": "bytes32",
          "name": "role",
          "type": "bytes32"
        },
        {
          "indexed": true,
          "internalType": "address",
          "name": "account",
          "type": "address"
        },
        {
          "indexed": true,
          "internalType": "address",
          "name": "sender",
          "type": "address"
        }
      ],
      "name": "RoleRevoked",
      "type": "event"
    },
    {
      "anonymous": false,
      "inputs": [
        {
          "indexed": true,
          "internalType": "address",
          "name": "sender",
          "type": "address"
        },
        {
          "indexed": true,
          "internalType": "bytes32",
          "name": "identity",
          "type": "bytes32"
        },
        {
          "indexed": false,
          "internalType": "uint256",
          "name": "submissionIndex",
          "type": "uint256"
        },
        {
          "indexed": false,
          "internalType": "uint256",
          "name": "startPos",
          "type": "uint256"
        },
        {
          "indexed": false,
          "internalType": "uint256",
          "name": "length",
          "type": "uint256"
        },
        {
          "components": [
            {
              "internalType": "uint256",
              "name": "length",
              "type": "uint256"
            },
            {
              "internalType": "bytes",
              "name": "tags",
              "type": "bytes"
            },
            {
              "components": [
                {
                  "internalType": "bytes32",
                  "name": "root",
                  "type": "bytes32"
                },
                {
                  "internalType": "uint256",
                  "name": "height",
                  "type": "uint256"
                }
              ],
              "internalType": "struct SubmissionNode[]",
              "name": "nodes",
              "type": "tuple[]"
            }
          ],
          "indexed": false,
          "internalType": "struct Submission",
          "name": "submission",
          "type": "tuple"
        }
      ],
      "name": "Submit",
      "type": "event"
    },
    {
      "anonymous": false,
      "inputs": [
        {
          "indexed": false,
          "internalType": "address",
          "name": "account",
          "type": "address"
        }
      ],
      "name": "Unpaused",
      "type": "event"
    },
    {
      "inputs": [],
      "name": "DEFAULT_ADMIN_ROLE",
      "outputs": [
        {
          "internalType": "bytes32",
          "name": "",
          "type": "bytes32"
        }
      ],
      "stateMutability": "view",
      "type": "function"
    },
    {
      "inputs": [],
      "name": "PAUSER_ROLE",
      "outputs": [
        {
          "internalType": "bytes32",
          "name": "",
          "type": "bytes32"
        }
      ],
      "stateMutability": "view",
      "type": "function"
    },
    {
      "inputs": [
        {
          "components": [
            {
              "internalType": "uint256",
              "name": "length",
              "type": "uint256"
            },
            {
              "internalType": "bytes",
              "name": "tags",
              "type": "bytes"
            },
            {
              "components": [
                {
                  "internalType": "bytes32",
                  "name": "root",
                  "type": "bytes32"
                },
                {
                  "internalType": "uint256",
                  "name": "height",
                  "type": "uint256"
                }
              ],
              "internalType": "struct SubmissionNode[]",
              "name": "nodes",
              "type": "tuple[]"
            }
          ],
          "internalType": "struct Submission[]",
          "name": "submissions",
          "type": "tuple[]"
        }
      ],
      "name": "batchSubmit",
      "outputs": [
        {
          "internalType": "uint256[]",
          "name": "indexes",
          "type": "uint256[]"
        },
        {
          "internalType": "bytes32[]",
          "name": "digests",
          "type": "bytes32[]"
        },
        {
          "internalType": "uint256[]",
          "name": "startIndexes",
          "type": "uint256[]"
        },
        {
          "internalType": "uint256[]",
          "name": "lengths",
          "type": "uint256[]"
        }
      ],
      "stateMutability": "payable",
      "type": "function"
    },
    {
      "inputs": [],
      "name": "blocksPerEpoch",
      "outputs": [
        {
          "internalType": "uint256",
          "name": "",
          "type": "uint256"
        }
      ],
      "stateMutability": "view",
      "type": "function"
    },
    {
      "inputs": [],
      "name": "computeFlowRoot",
      "outputs": [
        {
          "internalType": "bytes32",
          "name": "",
          "type": "bytes32"
        }
      ],
      "stateMutability": "nonpayable",
      "type": "function"
    },
    {
      "inputs": [],
      "name": "epoch",
      "outputs": [
        {
          "internalType": "uint256",
          "name": "",
          "type": "uint256"
        }
      ],
      "stateMutability": "view",
      "type": "function"
    },
    {
      "inputs": [],
      "name": "epochStartPosition",
      "outputs": [
        {
          "internalType": "uint256",
          "name": "",
          "type": "uint256"
        }
      ],
      "stateMutability": "view",
      "type": "function"
    },
    {
      "inputs": [],
      "name": "firstBlock",
      "outputs": [
        {
          "internalType": "uint256",
          "name": "",
          "type": "uint256"
        }
      ],
      "stateMutability": "view",
      "type": "function"
    },
    {
      "inputs": [],
      "name": "getContext",
      "outputs": [
        {
          "components": [
            {
              "internalType": "uint256",
              "name": "epoch",
              "type": "uint256"
            },
            {
              "internalType": "uint256",
              "name": "mineStart",
              "type": "uint256"
            },
            {
              "internalType": "bytes32",
              "name": "flowRoot",
              "type": "bytes32"
            },
            {
              "internalType": "uint256",
              "name": "flowLength",
              "type": "uint256"
            },
            {
              "internalType": "bytes32",
              "name": "blockDigest",
              "type": "bytes32"
            },
            {
              "internalType": "bytes32",
              "name": "digest",
              "type": "bytes32"
            }
          ],
          "internalType": "struct MineContext",
          "name": "",
          "type": "tuple"
        }
      ],
      "stateMutability": "view",
      "type": "function"
    },
    {
      "inputs": [
        {
          "internalType": "bytes32",
          "name": "digest",
          "type": "bytes32"
        }
      ],
      "name": "getEpochRange",
      "outputs": [
        {
          "components": [
            {
              "internalType": "uint128",
              "name": "start",
              "type": "uint128"
            },
            {
              "internalType": "uint128",
              "name": "end",
              "type": "uint128"
            }
          ],
          "internalType": "struct EpochRange",
          "name": "",
          "type": "tuple"
        }
      ],
      "stateMutability": "view",
      "type": "function"
    },
    {
      "inputs": [
        {
          "internalType": "uint256",
          "name": "txSeq",
          "type": "uint256"
        }
      ],
      "name": "getFlowRootByTxSeq",
      "outputs": [
        {
          "internalType": "bytes32",
          "name": "",
          "type": "bytes32"
        }
      ],
      "stateMutability": "view",
      "type": "function"
    },
    {
      "inputs": [
        {
          "internalType": "bytes32",
          "name": "role",
          "type": "bytes32"
        }
      ],
      "name": "getRoleAdmin",
      "outputs": [
        {
          "internalType": "bytes32",
          "name": "",
          "type": "bytes32"
        }
      ],
      "stateMutability": "view",
      "type": "function"
    },
    {
      "inputs": [
        {
          "internalType": "bytes32",
          "name": "role",
          "type": "bytes32"
        },
        {
          "internalType": "uint256",
          "name": "index",
          "type": "uint256"
        }
      ],
      "name": "getRoleMember",
      "outputs": [
        {
          "internalType": "address",
          "name": "",
          "type": "address"
        }
      ],
      "stateMutability": "view",
      "type": "function"
    },
    {
      "inputs": [
        {
          "internalType": "bytes32",
          "name": "role",
          "type": "bytes32"
        }
      ],
      "name": "getRoleMemberCount",
      "outputs": [
        {
          "internalType": "uint256",
          "name": "",
          "type": "uint256"
        }
      ],
      "stateMutability": "view",
      "type": "function"
    },
    {
      "inputs": [
        {
          "internalType": "bytes32",
          "name": "role",
          "type": "bytes32"
        },
        {
          "internalType": "address",
          "name": "account",
          "type": "address"
        }
      ],
      "name": "grantRole",
      "outputs": [],
      "stateMutability": "nonpayable",
      "type": "function"
    },
    {
      "inputs": [
        {
          "internalType": "bytes32",
          "name": "role",
          "type": "bytes32"
        },
        {
          "internalType": "address",
          "name": "account",
          "type": "address"
        }
      ],
      "name": "hasRole",
      "outputs": [
        {
          "internalType": "bool",
          "name": "",
          "type": "bool"
        }
      ],
      "stateMutability": "view",
      "type": "function"
    },
    {
      "inputs": [
        {
          "internalType": "address",
          "name": "market_",
          "type": "address"
        }
      ],
      "name": "initialize",
      "outputs": [],
      "stateMutability": "nonpayable",
      "type": "function"
    },
    {
      "inputs": [],
      "name": "initialized",
      "outputs": [
        {
          "internalType": "bool",
          "name": "",
          "type": "bool"
        }
      ],
      "stateMutability": "view",
      "type": "function"
    },
    {
      "inputs": [],
      "name": "makeContext",
      "outputs": [],
      "stateMutability": "nonpayable",
      "type": "function"
    },
    {
      "inputs": [
        {
          "internalType": "uint256",
          "name": "cnt",
          "type": "uint256"
        }
      ],
      "name": "makeContextFixedTimes",
      "outputs": [],
      "stateMutability": "nonpayable",
      "type": "function"
    },
    {
      "inputs": [],
      "name": "makeContextWithResult",
      "outputs": [
        {
          "components": [
            {
              "internalType": "uint256",
              "name": "epoch",
              "type": "uint256"
            },
            {
              "internalType": "uint256",
              "name": "mineStart",
              "type": "uint256"
            },
            {
              "internalType": "bytes32",
              "name": "flowRoot",
              "type": "bytes32"
            },
            {
              "internalType": "uint256",
              "name": "flowLength",
              "type": "uint256"
            },
            {
              "internalType": "bytes32",
              "name": "blockDigest",
              "type": "bytes32"
            },
            {
              "internalType": "bytes32",
              "name": "digest",
              "type": "bytes32"
            }
          ],
          "internalType": "struct MineContext",
          "name": "",
          "type": "tuple"
        }
      ],
      "stateMutability": "nonpayable",
      "type": "function"
    },
    {
      "inputs": [],
      "name": "market",
      "outputs": [
        {
          "internalType": "address payable",
          "name": "",
          "type": "address"
        }
      ],
      "stateMutability": "view",
      "type": "function"
    },
    {
      "inputs": [],
      "name": "numSubmissions",
      "outputs": [
        {
          "internalType": "uint256",
          "name": "",
          "type": "uint256"
        }
      ],
      "stateMutability": "view",
      "type": "function"
    },
    {
      "inputs": [],
      "name": "pause",
      "outputs": [],
      "stateMutability": "nonpayable",
      "type": "function"
    },
    {
      "inputs": [],
      "name": "paused",
      "outputs": [
        {
          "internalType": "bool",
          "name": "",
          "type": "bool"
        }
      ],
      "stateMutability": "view",
      "type": "function"
    },
    {
      "inputs": [
        {
          "internalType": "uint128",
          "name": "targetPosition",
          "type": "uint128"
        }
      ],
      "name": "queryContextAtPosition",
      "outputs": [
        {
          "components": [
            {
              "internalType": "uint128",
              "name": "start",
              "type": "uint128"
            },
            {
              "internalType": "uint128",
              "name": "end",
              "type": "uint128"
            },
            {
              "internalType": "bytes32",
              "name": "digest",
              "type": "bytes32"
            }
          ],
          "internalType": "struct EpochRangeWithContextDigest",
          "name": "range",
          "type": "tuple"
        }
      ],
      "stateMutability": "nonpayable",
      "type": "function"
    },
    {
      "inputs": [
        {
          "internalType": "bytes32",
          "name": "role",
          "type": "bytes32"
        },
        {
          "internalType": "address",
          "name": "account",
          "type": "address"
        }
      ],
      "name": "renounceRole",
      "outputs": [],
      "stateMutability": "nonpayable",
      "type": "function"
    },
    {
      "inputs": [
        {
          "internalType": "bytes32",
          "name": "role",
          "type": "bytes32"
        },
        {
          "internalType": "address",
          "name": "account",
          "type": "address"
        }
      ],
      "name": "revokeRole",
      "outputs": [],
      "stateMutability": "nonpayable",
      "type": "function"
    },
    {
      "inputs": [],
      "name": "rootHistory",
      "outputs": [
        {
          "internalType": "contract IDigestHistory",
          "name": "",
          "type": "address"
        }
      ],
      "stateMutability": "view",
      "type": "function"
    },
    {
      "inputs": [],
      "name": "submissionIndex",
      "outputs": [
        {
          "internalType": "uint256",
          "name": "",
          "type": "uint256"
        }
      ],
      "stateMutability": "view",
      "type": "function"
    },
    {
      "inputs": [
        {
          "components": [
            {
              "internalType": "uint256",
              "name": "length",
              "type": "uint256"
            },
            {
              "internalType": "bytes",
              "name": "tags",
              "type": "bytes"
            },
            {
              "components": [
                {
                  "internalType": "bytes32",
                  "name": "root",
                  "type": "bytes32"
                },
                {
                  "internalType": "uint256",
                  "name": "height",
                  "type": "uint256"
                }
              ],
              "internalType": "struct SubmissionNode[]",
              "name": "nodes",
              "type": "tuple[]"
            }
          ],
          "internalType": "struct Submission",
          "name": "submission",
          "type": "tuple"
        }
      ],
      "name": "submit",
      "outputs": [
        {
          "internalType": "uint256",
          "name": "",
          "type": "uint256"
        },
        {
          "internalType": "bytes32",
          "name": "",
          "type": "bytes32"
        },
        {
          "internalType": "uint256",
          "name": "",
          "type": "uint256"
        },
        {
          "internalType": "uint256",
          "name": "",
          "type": "uint256"
        }
      ],
      "stateMutability": "payable",
      "type": "function"
    },
    {
      "inputs": [
        {
          "internalType": "bytes4",
          "name": "interfaceId",
          "type": "bytes4"
        }
      ],
      "name": "supportsInterface",
      "outputs": [
        {
          "internalType": "bool",
          "name": "",
          "type": "bool"
        }
      ],
      "stateMutability": "view",
      "type": "function"
    },
    {
      "inputs": [],
      "name": "tree",
      "outputs": [
        {
          "internalType": "uint256",
          "name": "currentLength",
          "type": "uint256"
        },
        {
          "internalType": "uint256",
          "name": "unstagedHeight",
          "type": "uint256"
        }
      ],
      "stateMutability": "view",
      "type": "function"
    },
    {
      "inputs": [],
      "name": "unpause",
      "outputs": [],
      "stateMutability": "nonpayable",
      "type": "function"
    }
  ],
  "bytecode": "0x60e06040523480156200001157600080fd5b506040516200415b3803806200415b8339810160408190526200003491620000ab565b6000805460ff1916905560a08290526040516103e89062000055906200009d565b908152602001604051809103906000f08015801562000078573d6000803e3d6000fd5b506001600160a01b0316608052620000918143620000d0565b60c05250620000f89050565b6106708062003aeb83390190565b60008060408385031215620000bf57600080fd5b505080516020909101519092909150565b80820180821115620000f257634e487b7160e01b600052601160045260246000fd5b92915050565b60805160a05160c0516139846200016760003960008181610305015281816107fc01528181610ad701528181610bbe01528181610e1701528181610f27015281816110dc01526116d501526000818161071201526110b4015260008181610649015261114701526139846000f3fe6080604052600436106101f95760003560e01c80638456cb591161010d578063b8a409ac116100a0578063d547741f1161006f578063d547741f1461068b578063e63ab1e9146106ab578063ef3e12dc146106cd578063f068205414610700578063fd54b2281461073457600080fd5b8063b8a409ac14610601578063c4d66de814610617578063c7dd522114610637578063ca15c8731461066b57600080fd5b806393e405a0116100dc57806393e405a01461059e5780639e62a38e146105b4578063a217fddf146105d7578063b464b53e146105ec57600080fd5b80638456cb5914610533578063900cf0cf146105485780639010d07c1461055e57806391d148541461057e57600080fd5b806331bae174116101905780635c975abb1161015f5780635c975abb146104125780636d7ad0fc1461042a57806377e19824146104575780637d5907081461046c57806380f55605146104fb57600080fd5b806331bae1741461037857806336568abe146103c857806338d45e10146103e85780633f4ba83a146103fd57600080fd5b80631deb0fca116101cc5780631deb0fca146102d0578063231b0268146102f3578063248a9ca3146103275780632f2ff15d1461035857600080fd5b806301ffc9a7146101fe578063127f0f0714610233578063158ef93e1461029457806318a641ef146102ae575b600080fd5b34801561020a57600080fd5b5061021e610219366004613193565b610764565b60405190151581526020015b60405180910390f35b34801561023f57600080fd5b5061024861078f565b60405161022a9190600060c082019050825182526020830151602083015260408301516040830152606083015160608301526080830151608083015260a083015160a083015292915050565b3480156102a057600080fd5b5060035461021e9060ff1681565b3480156102ba57600080fd5b506102ce6102c93660046131bd565b6107fa565b005b3480156102dc57600080fd5b506102e5610872565b60405190815260200161022a565b3480156102ff57600080fd5b506102e57f000000000000000000000000000000000000000000000000000000000000000081565b34801561033357600080fd5b506102e56103423660046131bd565b6000908152600160208190526040909120015490565b34801561036457600080fd5b506102ce6103733660046131ed565b61088d565b34801561038457600080fd5b50610398610393366004613219565b6108b8565b6040805182516001600160801b03908116825260208085015190911690820152918101519082015260600161022a565b3480156103d457600080fd5b506102ce6103e33660046131ed565b610a5b565b3480156103f457600080fd5b506102ce610ad5565b34801561040957600080fd5b506102ce610b24565b34801561041e57600080fd5b5060005460ff1661021e565b34801561043657600080fd5b506102e56104453660046131bd565b60009081526045602052604090205490565b34801561046357600080fd5b50603a546102e5565b34801561047857600080fd5b506104d46104873660046131bd565b6040805180820190915260008082526020820152506000908152604360209081526040918290208251808401909352546001600160801b038082168452600160801b909104169082015290565b6040805182516001600160801b03908116825260209384015116928101929092520161022a565b34801561050757600080fd5b5060365461051b906001600160a01b031681565b6040516001600160a01b03909116815260200161022a565b34801561053f57600080fd5b506102ce610b44565b34801561055457600080fd5b506102e5603b5481565b34801561056a57600080fd5b5061051b610579366004613242565b610b64565b34801561058a57600080fd5b5061021e6105993660046131ed565b610b83565b3480156105aa57600080fd5b506102e5603c5481565b6105c76105c2366004613472565b610bae565b60405161022a949392919061355d565b3480156105e357600080fd5b506102e5600081565b3480156105f857600080fd5b50610248610de3565b34801561060d57600080fd5b506102e5603a5481565b34801561062357600080fd5b506102ce6106323660046135dc565b610e65565b34801561064357600080fd5b5061051b7f000000000000000000000000000000000000000000000000000000000000000081565b34801561067757600080fd5b506102e56106863660046131bd565b610eda565b34801561069757600080fd5b506102ce6106a63660046131ed565b610ef1565b3480156106b757600080fd5b506102e560008051602061392f83398151915281565b6106e06106db3660046135f7565b610f17565b60408051948552602085019390935291830152606082015260800161022a565b34801561070c57600080fd5b506102e57f000000000000000000000000000000000000000000000000000000000000000081565b34801561074057600080fd5b5060375460385461074f919082565b6040805192835260208301919091520161022a565b60006001600160e01b03198216635a05180f60e01b148061078957506107898261107a565b92915050565b6040805160c081018252600080825260208201819052918101829052606081018290526080810182905260a0810191909152506040805160c081018252603d548152603e546020820152603f548183015290546060820152604154608082015260425460a082015290565b7f00000000000000000000000000000000000000000000000000000000000000004310156108435760405162461bcd60e51b815260040161083a90613633565b60405180910390fd5b60005b81811161086d576108556110af565b61085d575050565b61086681613680565b9050610846565b505b50565b600061087e60376113d3565b6108886037611502565b905090565b600082815260016020819052604090912001546108a98161153a565b6108b38383611544565b505050565b60408051606081018252600080825260208201819052918101919091526108dd610ad5565b6037546001600160801b038316106109435760405162461bcd60e51b8152602060048201526024808201527f5175657269656420706f736974696f6e206578636565647320757070657220626044820152631bdd5b9960e21b606482015260840161083a565b6044546000905b81811115610a1357600060026109608484613699565b61096a91906136c2565b90506044818154811061097f5761097f6136d6565b600091825260209182902060408051606081018252600290930290910180546001600160801b038082168552600160801b9091048116948401859052600190910154918301919091529095508616106109e4576109dd816001613699565b9250610a0d565b83600001516001600160801b0316856001600160801b031610610a0957505050919050565b8091505b5061094a565b60405162461bcd60e51b815260206004820152601b60248201527f43616e206e6f742066696e642070726f70657220636f6e746578740000000000604482015260640161083a565b6001600160a01b0381163314610acb5760405162461bcd60e51b815260206004820152602f60248201527f416363657373436f6e74726f6c3a2063616e206f6e6c792072656e6f756e636560448201526e103937b632b9903337b91039b2b63360891b606482015260840161083a565b61086d8282611566565b7f0000000000000000000000000000000000000000000000000000000000000000431015610b155760405162461bcd60e51b815260040161083a90613633565b610b1d6110af565b610b15575b565b60008051602061392f833981519152610b3c8161153a565b61086f611588565b60008051602061392f833981519152610b5c8161153a565b61086f6115da565b6000828152600260205260408120610b7c9083611617565b9392505050565b60009182526001602090815260408084206001600160a01b0393909316845291905290205460ff1690565b606080606080610bbc611623565b7f0000000000000000000000000000000000000000000000000000000000000000431015610bfc5760405162461bcd60e51b815260040161083a90613633565b8451806001600160401b03811115610c1657610c16613264565b604051908082528060200260200182016040528015610c3f578160200160208202803683370190505b509450806001600160401b03811115610c5a57610c5a613264565b604051908082528060200260200182016040528015610c83578160200160208202803683370190505b509350806001600160401b03811115610c9e57610c9e613264565b604051908082528060200260200182016040528015610cc7578160200160208202803683370190505b509250806001600160401b03811115610ce257610ce2613264565b604051908082528060200260200182016040528015610d0b578160200160208202803683370190505b50915060005b81811015610dda57600080600080610d418b8681518110610d3457610d346136d6565b6020026020010151610f17565b9350935093509350838a8681518110610d5c57610d5c6136d6565b60200260200101818152505082898681518110610d7b57610d7b6136d6565b60200260200101818152505081888681518110610d9a57610d9a6136d6565b60200260200101818152505080878681518110610db957610db96136d6565b6020026020010181815250505050505080610dd390613680565b9050610d11565b50509193509193565b6040805160c081018252600080825260208201819052918101829052606081018290526080810182905260a08101919091527f0000000000000000000000000000000000000000000000000000000000000000431015610e555760405162461bcd60e51b815260040161083a90613633565b610e5d610ad5565b61088861078f565b60035460ff1615610ec45760405162461bcd60e51b8152602060048201526024808201527f5a67496e697469616c697a61626c653a20616c726561647920696e697469616c6044820152631a5e995960e21b606482015260840161083a565b6003805460ff1916600117905561086f81611669565b60008181526002602052604081206107899061178f565b60008281526001602081905260409091200154610f0d8161153a565b6108b38383611566565b600080600080610f25611623565b7f0000000000000000000000000000000000000000000000000000000000000000431015610f655760405162461bcd60e51b815260040161083a90613633565b610f6e85611799565b610faf5760405162461bcd60e51b815260206004820152601260248201527124b73b30b634b21039bab136b4b9b9b4b7b760711b604482015260640161083a565b6000610fba866119b0565b9050610fc4610ad5565b6000610fcf87611a0e565b90506000610fdc88611b4e565b603a80549192506001906000610ff28385613699565b90915550611002905060376113d3565b61100c6037611502565b604560008381526020019081526020016000208190555081336001600160a01b03167f167ce04d2aa1981994d3a31695da0d785373335b1078cec239a1a3a2c76755558386888e604051611063949392919061373c565b60405180910390a396509450925090509193509193565b60006001600160e01b03198216637965db0b60e01b148061078957506301ffc9a760e01b6001600160e01b0319831614610789565b6000807f0000000000000000000000000000000000000000000000000000000000000000603b54600101027f000000000000000000000000000000000000000000000000000000000000000001905043811061110d57600091505090565b61111760376113d3565b60006111236037611502565b604051632d287e4360e01b8152600481018290529091506000906001600160a01b037f00000000000000000000000000000000000000000000000000000000000000001690632d287e43906024016020604051808303816000875af1158015611190573d6000803e3d6000fd5b505050506040513d601f19601f820116820180604052508101906111b491906137ce565b9050603b5481146111c7576111c76137e7565b600080436111d786610100613699565b101561120757507fc5d2460186f7233c927e7db2dcc703c0e500b653ca82273b7bfad8045d85a470905080611316565b506037546040805186406020820181905291810186905260608101929092529060800160408051808303601f190181528282528051602091820120603c80546037805487870187526001600160801b039283168089529083168689018181526000878152604389528981209a519151918616600160801b928716830217909a558851606081018a529283529682019081529681018581526044805460018101825599529051965196831696909216909402949094177f9b22d3d61959b4d3528b1d8ba932c96fbe302b36a1aad1d95cab54f9e0a135ea60029096029586015592517f9b22d3d61959b4d3528b1d8ba932c96fbe302b36a1aad1d95cab54f9e0a135eb9094019390935554905591505b6001603b60008282546113299190613699565b90915550506040805160c081018252603b5480825260208083018990528284018890526037546060808501829052608080860188905260a0909501889052603d849055603e8b9055603f8a905581865560418790556042889055603a5486518b815293840152948201529283018590529133917fbc8a3fd82465d43f1709e44ed882f7e1af0147274196ef1ec009f5d52ff4e993910160405180910390a360019550505050505090565b60028101546001820154036113e55750565b60028101805460018084015491926000929091611401916137fd565b81548110611411576114116136d6565b9060005260206000200154905060006114396001856001015461143491906137fd565b611c2b565b60018501549091505b838110156114f75760408051602080820186905281830185905282518083038401815260609092019092528051910120855461148290600290841c613810565b6000036114be5780935061149582611c2b565b9250808660020183815481106114ad576114ad6136d6565b6000918252602090912001556114e4565b8560020182815481106114d3576114d36136d6565b906000526020600020015493508092505b50806114ef81613680565b915050611442565b505050600190910155565b60028101805460009190611518906001906137fd565b81548110611528576115286136d6565b90600052602060002001549050919050565b61086f813361282f565b61154e8282612888565b60008281526002602052604090206108b390826128f3565b6115708282612908565b60008281526002602052604090206108b3908261296f565b611590612984565b6000805460ff191690557f5db9ee0a495bf2e6ff9c91a7834c1ba4fdd244a5e8aa4e537bd38aeae4b073aa335b6040516001600160a01b03909116815260200160405180910390a1565b6115e2611623565b6000805460ff191660011790557f62e78cea01bee320cd4e420270b5ea74000d11b0c9f74754ebdbfc544b05a2586115bd3390565b6000610b7c83836129cd565b60005460ff1615610b225760405162461bcd60e51b815260206004820152601060248201526f14185d5cd8589b194e881c185d5cd95960821b604482015260640161083a565b6001603781905560398054808301825560009182527fdc16fef70f8d5ddbc01ee3d903d1e69c18a3c7be080eb86a81e0578814ee58d30155603855603680546001600160a01b0319166001600160a01b0383161790556000603b8190556040805160c0810182529182527f0000000000000000000000000000000000000000000000000000000000000000602083015281016117056037611502565b815260016020808301919091527fc5d2460186f7233c927e7db2dcc703c0e500b653ca82273b7bfad8045d85a47060408084018290526060938401919091528351603d5590830151603e5582810151603f55908201519055608081015160415560a001516042556117776000336129f7565b61086f60008051602061392f833981519152336129f7565b6000610789825490565b60008160400151516000036117b057506000919050565b60408201518051600491906117c7906001906137fd565b815181106117d7576117d76136d6565b60200260200101516020015183604001516000815181106117fa576117fa6136d6565b60200260200101516020015161181091906137fd565b1061181d57506000919050565b60408260400151600081518110611836576118366136d6565b6020026020010151602001511061184f57506000919050565b60005b600183604001515161186491906137fd565b8110156118db5782604001518181518110611881576118816136d6565b602002602001015160200151836040015182600161189f9190613699565b815181106118af576118af6136d6565b602002602001015160200151106118c95750600092915050565b806118d381613680565b915050611852565b5060006118e7836119b0565b90506118f561010082613824565b835111156119065750600092915050565b600060108210156119235761191c6001836137fd565b9050611989565b83604001515160010361193e5761191c600483901c836137fd565b60048460400151600081518110611957576119576136d6565b60200260200101516020015161196d91906137fd565b611978906001613699565b611986906001901b836137fd565b90505b61199561010082613824565b8451116119a6575060009392505050565b5060019392505050565b600080805b836040015151811015611a0757836040015181815181106119d8576119d86136d6565b6020026020010151602001516001901b826119f39190613699565b9150806119ff81613680565b9150506119b5565b5092915050565b60378054600091611a1f9084612a01565b60005b836040015151811015611ab757600084604001518281518110611a4757611a476136d6565b6020026020010151600001519050600085604001518381518110611a6d57611a6d6136d6565b60200260200101516020015190506000611a9383836037612b2b9092919063ffffffff16565b905083600003611aa1578095505b5050508080611aaf90613680565b915050611a22565b506000611ac482846137fd565b9050600083603760000154611ad991906137fd565b603654604051636d3759b560e11b81526004810186905260248101839052604481018590529192506001600160a01b03169063da6eb36a90606401600060405180830381600087803b158015611b2e57600080fd5b505af1158015611b42573d6000803e3d6000fd5b50505050505050919050565b6000808260400151516001600160401b03811115611b6e57611b6e613264565b604051908082528060200260200182016040528015611b97578160200160208202803683370190505b50905060005b836040015151811015611bfb5783604001518181518110611bc057611bc06136d6565b602002602001015160000151828281518110611bde57611bde6136d6565b602090810291909101015280611bf381613680565b915050611b9d565b5080604051602001611c0d9190613843565b60405160208183030381529060405280519060200120915050919050565b600081600003611c5c57507fd397b3b043d87fcd6fad1291ff0bfd16401c274896d8c63a923727f077b8e0b5919050565b81600103611c8b57507ff73e6947d7d1628b9976a6e40d7b278a8a16405e96324a68df45b12a51b7cfde919050565b81600203611cba57507fa1520264ae93cac619e22e8718fc4fa7ebdd23f493cad602434d2a58ff4868fb919050565b81600303611ce957507fde5747106ac1194a1fa9071dbd6cf19dc2bc7964497ef0afec7e4bdbcf08c47e919050565b81600403611d1857507f09c7082879180d28c789c05fafe7030871c76cedbe82c948b165d6a1d66ac15b919050565b81600503611d4757507faa7a02bcf29fba687f84123c808b5b48834ff5395abe98e622fadc14e4180c95919050565b81600603611d7657507f7608fd46b710b589e0f2ee5a13cd9c41d432858a30d524f84c6d5db37f66273a919050565b81600703611da557507fa5d9a2f7f3573ac9a1366bc484688b4daf934b87ea9b3bf2e703da8fd9f09708919050565b81600803611dd457507f6c1779477f4c3fca26b4607398859a43b90a286ce8062500744bd4949981757f919050565b81600903611e0357507f45c22df3d952c33d5edce122eed85e5cda3fd61939e7ad7b3e03b6927bb598ea919050565b81600a03611e3257507fe68d02859bb6211cec64f52368b77d422de3b8eac34bf615942b814b643301b5919050565b81600b03611e6157507f62d78399b954d51cb9728601738ad13ddc43b2300064660716bb661d2f4d686f919050565b81600c03611e9057507f6e250d9abdbbb3993fce08de0395cdb56f0483e67d8762a798de011f6a50866a919050565b81600d03611ebf57507f1d1a3a74062fd94078617e33eb901eaf16a830f67c387d8eed342db2ac5e2cc5919050565b81600e03611eee57507f19b3b3886526917eae8650223d0be20a0301be960eb339696e673ad8a804440f919050565b81600f03611f1d57507fee9e05df53f10e62a897e5140a3f58732dd849e69cd1d62b21ed80ead711a014919050565b81601003611f4c57507f2cc7aa6e611a113a34505dc1c96b220f14909b70e2c2c7b1a74655da21013c5e919050565b81601103611f7b57507f949b52dfece7ca3bad3cb27f7750ecaee64cedb6243a275c35984e92956c530a919050565b81601203611faa57507fb2680d060b763b932c150434c3812ba9fbc50937e0ebcf5758de884be81bab65919050565b81601303611fd957507f523aebf4a085edbc9c8cdc99c83f46262e5f029b395ff7bf561a48a3f387e6b8919050565b8160140361200857507fc9ab73827ab33c0cedb7ecf0ed2e6e32583c0fe887133a7f381ea4ba84d95b76919050565b8160150361203757507f23eb397dec7e564ebe97f160a5e1081a77d9861f316807079b6be4731beb331e919050565b8160160361206657507fdfa44a274c60f090df034aaf75539fd40e94cfd6362dd53d26ed20c8ad529563919050565b8160170361209557507f15b13ee358e1044a53381243c094e54bf7aceb9b5325a0313d6b85fd44e8b3a5919050565b816018036120c457507f1a7a93871e2daa0f1860aa91d4ece4ccd012dac5fe581176a21b155cfeca6d40919050565b816019036120f357507fb12665fd0b884a7c7d1e0294d369170d7e672d9e125eb87784556305f98292df919050565b81601a0361212257507f2a5543b0b2f8cf550524390291774f4d6c8c0a25ff5393b09c44d75c92a5bd8e919050565b81601b0361215157507ff9df1841a6e7164b67a1242f1c74975137085ffd9721831f6c469d3a4d5ba42e919050565b81601c0361218057507fba24736b1b48246c1f7803be967be43ca0dddc9c2c0687a2957952249bc89371919050565b81601d036121af57507ff3f706b73790c73ca0a8f0460ac3a2a102e280415586b520e70cd5e8264388b4919050565b81601e036121de57507fc1f5a9a9f357e1c37814688cf7290c87a264ed3d6174a12b978da1c586f53825919050565b81601f0361220d57507f766f7702e19ce23d426cdad03e4292a5a42c4669420101fed74400ec7cda3ac6919050565b8160200361223c57507f070fec213e105b3e4d9b0434ac2fc7ca721d35093dc741fb9419797003e2394a919050565b8160210361226b57507f9a7aade05b49e43f5fd3782571cc8c90eadacd5d660b53842b4e5b63d675ae0c919050565b8160220361229a57507fb27b35a8236d0f9b6692820429c025ed58ed378dc98d316b762f0c865c68be6f919050565b816023036122c957507fdc567ad38d9b90cc9bea4e0f82ec05eca10b3aa94eddc7b63c4fd20c001bb53b919050565b816024036122f857507fb208dfc457c8b30661ae49544c8e57399818095aab8dd7a426fb8dd56bb8c559919050565b8160250361232757507fc4a72e1ff84f7a22631f3f95c61c392f98f52050360215a9d7e75d79b0bcd2ca919050565b8160260361235657507fbb093ec8c0d7defb1de668b5b5dd4f2619e5cd92d29cc144862364a83ab993a8919050565b8160270361238557507fe341796f2fe3975012c1e6badfa2e9c4523e43f911dc845082c3f4d7b4ff871d919050565b816028036123b457507f42d356a11a0b39243eca3c3263299cb6f8c3e9728af6d9d8b0ddb6d354f1890d919050565b816029036123e357507f0ce506e834e3a50a33f80074bc7fa16cf3c0712b36a41b69699177ea25de6c30919050565b81602a0361241257507fd8fa5bf130aeb7756b1ed09090cc80ed78dae0617978540f0fabd06dfb978938919050565b81602b0361244157507feed69a20fe36eb604f2153efa3b01c0e143cdf02229a1b8f741c9c2719059eb0919050565b81602c0361247057507f303c9c566ebf5bfe252796e5c131a99801226152a514688b5ca6883e99031d88919050565b81602d0361249f57507fc7c3765ba96cfbccf3ae718393fa89791070cc8cd85f280b6ac46aea10d96042919050565b81602e036124ce57507f1ca65b0a2b8034ee6bfb1fa4526832304e393af835c2c42b4dace58048746800919050565b81602f036124fd57507f957add5e02350fd47de3a8e1da38fd774ceb31214d5897ed6315740a83cd634a919050565b8160300361252c57507f787892cb439d5d358870774e163557cf02ec3cb87be6fde11abf1acee14eeaa4919050565b8160310361255b57507f047c0962d4f5c8f60692c587de07739528c4d2059240d61dd34d2a547a438ee6919050565b8160320361258a57507fc18727efc9e4df63020dcd90edc17dfd2ad14f02328c912b13898e0b53735556919050565b816033036125b957507fe38b9218987e451effe1648c3c9851ad03b64b052a5a3f5ca30f4d7b1ecf7120919050565b816034036125e857507f0e48ecb1a5418e6218289acc8cf723e67ac6eae3ecb80f644336ab4365a2f2b2919050565b8160350361261757507fd60e66f5b8cd08d71a1a4d7798952a7afa5a6e93a886c587a46a5500ebef4a60919050565b8160360361264657507f5162aa9c31d9105f689cf6e71e19548bc9f0218b7d0f99ff7fa8bc2f19c68462919050565b8160370361267557507f6fa8519b4b0e8fb97a9b618e97627d97b9b9d29d04521fd96472e9c502700568919050565b816038036126a457507f41f5dcf0cdee270a2ad9a5f8130aaaab94b237463e09757c28b0321f09e24eb0919050565b816039036126d357507f87a119239fa90732197108adfd029938b4743874d959d3da79b3a30f4832899e919050565b81603a0361270257507f8e96dbaa5c72e84a5297b040ccc1a60750a3201166e3b7740d352837233608a1919050565b81603b0361273157507f01605058d167ce967af8c475d2f6c341c3e0b437babf899c9da73a520aa4ecb5919050565b81603c0361276057507f04529eb80532c5118949d700d8dfd2aa86850b1c6479b26276b9486784a145ff919050565b81603d0361278f57507fd191814ad13f27361ae20a46cbac8f6e76c10ebe9af0806d6720492ee2f296f0919050565b81603e036127be57507fa28df63f78821060570da371c0be1312188346b92a7965cc4b980b26c134a4d7919050565b81603f036127ed57507fb48a92d40b61dc995ceecee4cded6415050dcece448b1e0b5e5b6a0e6981f3ef919050565b60405162461bcd60e51b8152602060048201526012602482015271125b99195e081bdd5d081bd988189bdd5b9960721b604482015260640161083a565b919050565b6128398282610b83565b61086d5761284681612ca4565b612851836020612cb6565b604051602001612862929190613879565b60408051601f198184030181529082905262461bcd60e51b825261083a916004016138ee565b6128928282610b83565b61086d5760008281526001602081815260408084206001600160a01b0386168086529252808420805460ff19169093179092559051339285917f2f8788117e7eff1d82e926ec794901d17c78024a50270940304540a733656f0d9190a45050565b6000610b7c836001600160a01b038416612e51565b6129128282610b83565b1561086d5760008281526001602090815260408083206001600160a01b0385168085529252808320805460ff1916905551339285917ff6391f5c32d9c69d2a47ea670b442974b53935d1edc7fd64eb21e047a839171b9190a45050565b6000610b7c836001600160a01b038416612ea0565b60005460ff16610b225760405162461bcd60e51b815260206004820152601460248201527314185d5cd8589b194e881b9bdd081c185d5cd95960621b604482015260640161083a565b60008260000182815481106129e4576129e46136d6565b9060005260206000200154905092915050565b61086d8282611544565b6000612a0c826119b0565b90506000612a4084600001548460400151600081518110612a2f57612a2f6136d6565b602002602001015160200151612f93565b9050610100612a5161040082613824565b612a5b91906136c2565b612a659082613810565b15801590612acd5750610100612a7d61040082613824565b612a8791906136c2565b6001612a938484613699565b612a9d91906137fd565b612aa791906136c2565b610100612ab661040082613824565b612ac091906136c2565b612aca90836136c2565b14155b15612b2557610100612ae161040082613824565b612aeb91906136c2565b612af59082613810565b610100612b0461040082613824565b612b0e91906136c2565b612b189083613699565b612b2291906137fd565b84555b50505050565b600080612b3c856000015484612f93565b90506000612b4d6001851b83613699565b6002870154909150612b61906001906137fd565b6001901b811115612bb357612b75866113d3565b612b7e86612fcb565b6002860154612b8f906001906137fd565b6001901b811115612ba857612ba386612fcb565b612b7e565b600286015460018701555b6002860154612bc2878661305e565b60008087875b84811015612c8657612bdd600288831c613810565b600003612c1b57818b6002018281548110612bfa57612bfa6136d6565b600091825260209091200155612c11816001613699565b60018c0155612c86565b8a6002018181548110612c3057612c306136d6565b906000526020600020015493508192508383604051602001612c5c929190918252602082015260400190565b60405160208183030381529060405280519060200120915080612c7e81613680565b915050612bc8565b50612c946001891b87613699565b9099555092979650505050505050565b60606107896001600160a01b03831660145b60606000612cc5836002613824565b612cd0906002613699565b6001600160401b03811115612ce757612ce7613264565b6040519080825280601f01601f191660200182016040528015612d11576020820181803683370190505b509050600360fc1b81600081518110612d2c57612d2c6136d6565b60200101906001600160f81b031916908160001a905350600f60fb1b81600181518110612d5b57612d5b6136d6565b60200101906001600160f81b031916908160001a9053506000612d7f846002613824565b612d8a906001613699565b90505b6001811115612e02576f181899199a1a9b1b9c1cb0b131b232b360811b85600f1660108110612dbe57612dbe6136d6565b1a60f81b828281518110612dd457612dd46136d6565b60200101906001600160f81b031916908160001a90535060049490941c93612dfb81613901565b9050612d8d565b508315610b7c5760405162461bcd60e51b815260206004820181905260248201527f537472696e67733a20686578206c656e67746820696e73756666696369656e74604482015260640161083a565b6000818152600183016020526040812054612e9857508154600181810184556000848152602080822090930184905584548482528286019093526040902091909155610789565b506000610789565b60008181526001830160205260408120548015612f89576000612ec46001836137fd565b8554909150600090612ed8906001906137fd565b9050818114612f3d576000866000018281548110612ef857612ef86136d6565b9060005260206000200154905080876000018481548110612f1b57612f1b6136d6565b6000918252602080832090910192909255918252600188019052604090208390555b8554869080612f4e57612f4e613918565b600190038181906000526020600020016000905590558560010160008681526020019081526020016000206000905560019350505050610789565b6000915050610789565b600082808203612fa7576000915050610789565b612fb26001826137fd565b831c9050612fc1600182613699565b90921b9392505050565b60028101805490600090612fe06001846137fd565b81548110612ff057612ff06136d6565b6000918252602082200154915061300b6114346001856137fd565b905083600201828260405160200161302d929190918252602082015260400190565b60408051601f1981840301815291905280516020918201208254600181018455600093845291909220015550505050565b808260010154111561306e575050565b6002820180546001808501549192600092909161308a916137fd565b8154811061309a5761309a6136d6565b9060005260206000200154905060006130bd6001866001015461143491906137fd565b60018601549091505b8381101561318b5760408051602080820186905281830185905282518083038401815260609092019092528051910120865461310690600290841c613810565b6000036131525780935061311982611c2b565b925085821061314d5780876002018381548110613138576131386136d6565b60009182526020909120015550505050505050565b613178565b866002018281548110613167576131676136d6565b906000526020600020015493508092505b508061318381613680565b9150506130c6565b505050505050565b6000602082840312156131a557600080fd5b81356001600160e01b031981168114610b7c57600080fd5b6000602082840312156131cf57600080fd5b5035919050565b80356001600160a01b038116811461282a57600080fd5b6000806040838503121561320057600080fd5b82359150613210602084016131d6565b90509250929050565b60006020828403121561322b57600080fd5b81356001600160801b0381168114610b7c57600080fd5b6000806040838503121561325557600080fd5b50508035926020909101359150565b634e487b7160e01b600052604160045260246000fd5b604080519081016001600160401b038111828210171561329c5761329c613264565b60405290565b604051606081016001600160401b038111828210171561329c5761329c613264565b604051601f8201601f191681016001600160401b03811182821017156132ec576132ec613264565b604052919050565b60006001600160401b0382111561330d5761330d613264565b5060051b60200190565b600082601f83011261332857600080fd5b8135602061333d613338836132f4565b6132c4565b82815260069290921b8401810191818101908684111561335c57600080fd5b8286015b8481101561339b57604081890312156133795760008081fd5b61338161327a565b813581528482013585820152835291830191604001613360565b509695505050505050565b6000606082840312156133b857600080fd5b6133c06132a2565b9050813581526020808301356001600160401b03808211156133e157600080fd5b818501915085601f8301126133f557600080fd5b81358181111561340757613407613264565b613419601f8201601f191685016132c4565b818152878583860101111561342d57600080fd5b8185850186830137600085838301015280858701525050604085013592508083111561345857600080fd5b505061346684828501613317565b60408301525092915050565b6000602080838503121561348557600080fd5b82356001600160401b038082111561349c57600080fd5b818501915085601f8301126134b057600080fd5b81356134be613338826132f4565b81815260059190911b830184019084810190888311156134dd57600080fd5b8585015b83811015613515578035858111156134f95760008081fd5b6135078b89838a01016133a6565b8452509186019186016134e1565b5098975050505050505050565b600081518084526020808501945080840160005b8381101561355257815187529582019590820190600101613536565b509495945050505050565b6080815260006135706080830187613522565b82810360208481019190915286518083528782019282019060005b818110156135a75784518352938301939183019160010161358b565b505084810360408601526135bb8188613522565b9250505082810360608401526135d18185613522565b979650505050505050565b6000602082840312156135ee57600080fd5b610b7c826131d6565b60006020828403121561360957600080fd5b81356001600160401b0381111561361f57600080fd5b61362b848285016133a6565b949350505050565b6020808252601a908201527f436f6e747261637420686173206e6f74206c61756e636865642e000000000000604082015260600190565b634e487b7160e01b600052601160045260246000fd5b6000600182016136925761369261366a565b5060010190565b808201808211156107895761078961366a565b634e487b7160e01b600052601260045260246000fd5b6000826136d1576136d16136ac565b500490565b634e487b7160e01b600052603260045260246000fd5b60005b838110156137075781810151838201526020016136ef565b50506000910152565b600081518084526137288160208601602086016136ec565b601f01601f19169290920160200192915050565b84815260006020858184015260408581850152608060608501528451608085015281850151606060a086015261377560e0860182613710565b86830151868203607f190160c0880152805180835290850192506000918501905b808310156137bf5783518051835286015186830152928501926001929092019190840190613796565b509a9950505050505050505050565b6000602082840312156137e057600080fd5b5051919050565b634e487b7160e01b600052600160045260246000fd5b818103818111156107895761078961366a565b60008261381f5761381f6136ac565b500690565b600081600019048311821515161561383e5761383e61366a565b500290565b815160009082906020808601845b8381101561386d57815185529382019390820190600101613851565b50929695505050505050565b7f416363657373436f6e74726f6c3a206163636f756e74200000000000000000008152600083516138b18160178501602088016136ec565b7001034b99036b4b9b9b4b733903937b6329607d1b60179184019182015283516138e28160288401602088016136ec565b01602801949350505050565b602081526000610b7c6020830184613710565b6000816139105761391061366a565b506000190190565b634e487b7160e01b600052603160045260246000fdfe65d7a28e3265b37a6474929f336521b332c1681b933f6cb9f3376673440d862aa2646970667358221220c98b3322ffed0690369b1aa6abb4a56b31a02f4cfb54c1c8f35cec18f0df67fa64736f6c63430008100033608060405234801561001057600080fd5b5060405161067038038061067083398101604081905261002f9161014a565b6100383361009a565b806001600160401b0381111561005057610050610163565b604051908082528060200260200182016040528015610079578160200160208202803683370190505b50805161008e916001916020909101906100ea565b50506000600255610179565b600080546001600160a01b038381166001600160a01b0319831681178455604051919092169283917f8be0079c531659141344cd1fd0a4f28419497f9722a3daafe3b4186f6b6457e09190a35050565b828054828255906000526020600020908101928215610125579160200282015b8281111561012557825182559160200191906001019061010a565b50610131929150610135565b5090565b5b808211156101315760008155600101610136565b60006020828403121561015c57600080fd5b5051919050565b634e487b7160e01b600052604160045260246000fd5b6104e8806101886000396000f3fe608060405234801561001057600080fd5b506004361061007d5760003560e01c80638da5cb5b1161005b5780638da5cb5b146100d557806396e494e8146100f0578063e0886f9014610103578063f2fde38b1461011657600080fd5b80631d1a696d146100825780632d287e43146100aa578063715018a6146100cb575b600080fd5b6100956100903660046103e3565b610129565b60405190151581526020015b60405180910390f35b6100bd6100b83660046103e3565b610194565b6040519081526020016100a1565b6100d36101ee565b005b6000546040516001600160a01b0390911681526020016100a1565b6100956100fe3660046103e3565b610202565b6100bd6101113660046103e3565b610237565b6100d36101243660046103fc565b610297565b60008061013d600254600180549050610310565b905060005b8181101561018a57836001828154811061015e5761015e610425565b906000526020600020015403610178575060019392505050565b8061018281610451565b915050610142565b5060009392505050565b6002546001546000919082906101aa908361046a565b905083600182815481106101c0576101c0610425565b90600052602060002001819055506001600260008282546101e1919061048c565b9091555091949350505050565b6101f661032a565b6102006000610384565b565b6001546002546000919083108015610230575080610222600254836103d4565b61022c919061049f565b8310155b9392505050565b600061024282610202565b6102675760405163b52d71f360e01b8152600481018390526024015b60405180910390fd5b60018054610275908461046a565b8154811061028557610285610425565b90600052602060002001549050919050565b61029f61032a565b6001600160a01b0381166103045760405162461bcd60e51b815260206004820152602660248201527f4f776e61626c653a206e6577206f776e657220697320746865207a65726f206160448201526564647265737360d01b606482015260840161025e565b61030d81610384565b50565b600081831061031f5781610321565b825b90505b92915050565b6000546001600160a01b031633146102005760405162461bcd60e51b815260206004820181905260248201527f4f776e61626c653a2063616c6c6572206973206e6f7420746865206f776e6572604482015260640161025e565b600080546001600160a01b038381166001600160a01b0319831681178455604051919092169283917f8be0079c531659141344cd1fd0a4f28419497f9722a3daafe3b4186f6b6457e09190a35050565b600081831161031f5781610321565b6000602082840312156103f557600080fd5b5035919050565b60006020828403121561040e57600080fd5b81356001600160a01b038116811461023057600080fd5b634e487b7160e01b600052603260045260246000fd5b634e487b7160e01b600052601160045260246000fd5b6000600182016104635761046361043b565b5060010190565b60008261048757634e487b7160e01b600052601260045260246000fd5b500690565b808201808211156103245761032461043b565b818103818111156103245761032461043b56fea2646970667358221220e8ca9fd7cf1cda9c87af618488dd664329a5f2e0ac050a78694b39389150ab1e64736f6c63430008100033",
  "linkReferences": {},
  "deployedLinkReferences": {}
}