{
  "_format": "hh-sol-artifact-1",
  "contractName": "PoraMineTest",
  "sourceName": "contracts/test/PoraMineTest.sol",
  "abi": [
    {
      "inputs": [
        {
          "internalType": "uint256",
          "name": "settings",
          "type": "uint256"
        }
      ],
      "stateMutability": "nonpayable",
      "type": "constructor"
    },
    {
      "anonymous": false,
      "inputs": [
        {
          "indexed": true,
          "internalType": "bytes32",
          "name": "minerId",
          "type": "bytes32"
        },
        {
          "indexed": true,
          "internalType": "address",
          "name": "beneficiary",
          "type": "address"
        }
      ],
      "name": "NewMinerId",
      "type": "event"
    },
    {
      "anonymous": false,
      "inputs": [
        {
          "indexed": true,
          "internalType": "uint256",
          "name": "epoch",
          "type": "uint256"
        },
        {
          "indexed": true,
          "internalType": "bytes32",
          "name": "minerId",
          "type": "bytes32"
        },
        {
          "indexed": false,
          "internalType": "uint256",
          "name": "epochIndex",
          "type": "uint256"
        },
        {
          "indexed": false,
          "internalType": "uint256",
          "name": "recallPosition",
          "type": "uint256"
        }
      ],
      "name": "NewSubmission",
      "type": "event"
    },
    {
      "anonymous": false,
      "inputs": [
        {
          "indexed": true,
          "internalType": "bytes32",
          "name": "role",
          "type": "bytes32"
        },
        {
          "indexed": true,
          "internalType": "bytes32",
          "name": "previousAdminRole",
          "type": "bytes32"
        },
        {
          "indexed": true,
          "internalType": "bytes32",
          "name": "newAdminRole",
          "type": "bytes32"
        }
      ],
      "name": "RoleAdminChanged",
      "type": "event"
    },
    {
      "anonymous": false,
      "inputs": [
        {
          "indexed": true,
          "internalType": "bytes32",
          "name": "role",
          "type": "bytes32"
        },
        {
          "indexed": true,
          "internalType": "address",
          "name": "account",
          "type": "address"
        },
        {
          "indexed": true,
          "internalType": "address",
          "name": "sender",
          "type": "address"
        }
      ],
      "name": "RoleGranted",
      "type": "event"
    },
    {
      "anonymous": false,
      "inputs": [
        {
          "indexed": true,
          "internalType": "bytes32",
          "name": "role",
          "type": "bytes32"
        },
        {
          "indexed": true,
          "internalType": "address",
          "name": "account",
          "type": "address"
        },
        {
          "indexed": true,
          "internalType": "address",
          "name": "sender",
          "type": "address"
        }
      ],
      "name": "RoleRevoked",
      "type": "event"
    },
    {
      "anonymous": false,
      "inputs": [
        {
          "indexed": true,
          "internalType": "bytes32",
          "name": "minerId",
          "type": "bytes32"
        },
        {
          "indexed": true,
          "internalType": "address",
          "name": "from",
          "type": "address"
        },
        {
          "indexed": true,
          "internalType": "address",
          "name": "to",
          "type": "address"
        }
      ],
      "name": "UpdateMinerId",
      "type": "event"
    },
    {
      "inputs": [],
      "name": "DEFAULT_ADMIN_ROLE",
      "outputs": [
        {
          "internalType": "bytes32",
          "name": "",
          "type": "bytes32"
        }
      ],
      "stateMutability": "view",
      "type": "function"
    },
    {
      "inputs": [],
      "name": "PARAMS_ADMIN_ROLE",
      "outputs": [
        {
          "internalType": "bytes32",
          "name": "",
          "type": "bytes32"
        }
      ],
      "stateMutability": "view",
      "type": "function"
    },
    {
      "inputs": [
        {
          "components": [
            {
              "internalType": "bytes32",
              "name": "contextDigest",
              "type": "bytes32"
            },
            {
              "internalType": "bytes32",
              "name": "nonce",
              "type": "bytes32"
            },
            {
              "internalType": "bytes32",
              "name": "minerId",
              "type": "bytes32"
            },
            {
              "components": [
                {
                  "internalType": "uint256",
                  "name": "startPosition",
                  "type": "uint256"
                },
                {
                  "internalType": "uint256",
                  "name": "mineLength",
                  "type": "uint256"
                },
                {
                  "internalType": "uint64",
                  "name": "shardId",
                  "type": "uint64"
                },
                {
                  "internalType": "uint64",
                  "name": "shardMask",
                  "type": "uint64"
                }
              ],
              "internalType": "struct RecallRange",
              "name": "range",
              "type": "tuple"
            },
            {
              "internalType": "uint256",
              "name": "recallPosition",
              "type": "uint256"
            },
            {
              "internalType": "uint256",
              "name": "sealOffset",
              "type": "uint256"
            },
            {
              "internalType": "bytes32",
              "name": "sealedContextDigest",
              "type": "bytes32"
            },
            {
              "internalType": "bytes32[128]",
              "name": "sealedData",
              "type": "bytes32[128]"
            },
            {
              "internalType": "bytes32[]",
              "name": "merkleProof",
              "type": "bytes32[]"
            }
          ],
          "internalType": "struct MineLib.PoraAnswer",
          "name": "answer",
          "type": "tuple"
        },
        {
          "components": [
            {
              "internalType": "uint256",
              "name": "epoch",
              "type": "uint256"
            },
            {
              "internalType": "uint256",
              "name": "mineStart",
              "type": "uint256"
            },
            {
              "internalType": "bytes32",
              "name": "flowRoot",
              "type": "bytes32"
            },
            {
              "internalType": "uint256",
              "name": "flowLength",
              "type": "uint256"
            },
            {
              "internalType": "bytes32",
              "name": "blockDigest",
              "type": "bytes32"
            },
            {
              "internalType": "bytes32",
              "name": "digest",
              "type": "bytes32"
            }
          ],
          "internalType": "struct MineContext",
          "name": "context",
          "type": "tuple"
        }
      ],
      "name": "basicCheck",
      "outputs": [],
      "stateMutability": "view",
      "type": "function"
    },
    {
      "inputs": [
        {
          "internalType": "bytes32",
          "name": "",
          "type": "bytes32"
        }
      ],
      "name": "beneficiaries",
      "outputs": [
        {
          "internalType": "address",
          "name": "",
          "type": "address"
        }
      ],
      "stateMutability": "view",
      "type": "function"
    },
    {
      "inputs": [],
      "name": "canSubmit",
      "outputs": [
        {
          "internalType": "bool",
          "name": "",
          "type": "bool"
        }
      ],
      "stateMutability": "nonpayable",
      "type": "function"
    },
    {
      "inputs": [],
      "name": "currentSubmissions",
      "outputs": [
        {
          "internalType": "uint256",
          "name": "",
          "type": "uint256"
        }
      ],
      "stateMutability": "view",
      "type": "function"
    },
    {
      "inputs": [],
      "name": "dataProofEnabled",
      "outputs": [
        {
          "internalType": "bool",
          "name": "",
          "type": "bool"
        }
      ],
      "stateMutability": "view",
      "type": "function"
    },
    {
      "inputs": [],
      "name": "difficultyAdjustRatio",
      "outputs": [
        {
          "internalType": "uint256",
          "name": "",
          "type": "uint256"
        }
      ],
      "stateMutability": "view",
      "type": "function"
    },
    {
      "inputs": [],
      "name": "fixedDifficulty",
      "outputs": [
        {
          "internalType": "bool",
          "name": "",
          "type": "bool"
        }
      ],
      "stateMutability": "view",
      "type": "function"
    },
    {
      "inputs": [],
      "name": "flow",
      "outputs": [
        {
          "internalType": "address",
          "name": "",
          "type": "address"
        }
      ],
      "stateMutability": "view",
      "type": "function"
    },
    {
      "inputs": [
        {
          "internalType": "bytes32",
          "name": "role",
          "type": "bytes32"
        }
      ],
      "name": "getRoleAdmin",
      "outputs": [
        {
          "internalType": "bytes32",
          "name": "",
          "type": "bytes32"
        }
      ],
      "stateMutability": "view",
      "type": "function"
    },
    {
      "inputs": [
        {
          "internalType": "bytes32",
          "name": "role",
          "type": "bytes32"
        },
        {
          "internalType": "uint256",
          "name": "index",
          "type": "uint256"
        }
      ],
      "name": "getRoleMember",
      "outputs": [
        {
          "internalType": "address",
          "name": "",
          "type": "address"
        }
      ],
      "stateMutability": "view",
      "type": "function"
    },
    {
      "inputs": [
        {
          "internalType": "bytes32",
          "name": "role",
          "type": "bytes32"
        }
      ],
      "name": "getRoleMemberCount",
      "outputs": [
        {
          "internalType": "uint256",
          "name": "",
          "type": "uint256"
        }
      ],
      "stateMutability": "view",
      "type": "function"
    },
    {
      "inputs": [
        {
          "internalType": "bytes32",
          "name": "role",
          "type": "bytes32"
        },
        {
          "internalType": "address",
          "name": "account",
          "type": "address"
        }
      ],
      "name": "grantRole",
      "outputs": [],
      "stateMutability": "nonpayable",
      "type": "function"
    },
    {
      "inputs": [
        {
          "internalType": "bytes32",
          "name": "role",
          "type": "bytes32"
        },
        {
          "internalType": "address",
          "name": "account",
          "type": "address"
        }
      ],
      "name": "hasRole",
      "outputs": [
        {
          "internalType": "bool",
          "name": "",
          "type": "bool"
        }
      ],
      "stateMutability": "view",
      "type": "function"
    },
    {
      "inputs": [
        {
          "internalType": "uint256",
          "name": "difficulty",
          "type": "uint256"
        },
        {
          "internalType": "address",
          "name": "flow_",
          "type": "address"
        },
        {
          "internalType": "address",
          "name": "reward_",
          "type": "address"
        }
      ],
      "name": "initialize",
      "outputs": [],
      "stateMutability": "nonpayable",
      "type": "function"
    },
    {
      "inputs": [],
      "name": "initialized",
      "outputs": [
        {
          "internalType": "bool",
          "name": "",
          "type": "bool"
        }
      ],
      "stateMutability": "view",
      "type": "function"
    },
    {
      "inputs": [],
      "name": "lastMinedEpoch",
      "outputs": [
        {
          "internalType": "uint256",
          "name": "",
          "type": "uint256"
        }
      ],
      "stateMutability": "view",
      "type": "function"
    },
    {
      "inputs": [],
      "name": "maxShards",
      "outputs": [
        {
          "internalType": "uint64",
          "name": "",
          "type": "uint64"
        }
      ],
      "stateMutability": "view",
      "type": "function"
    },
    {
      "inputs": [],
      "name": "minDifficulty",
      "outputs": [
        {
          "internalType": "uint256",
          "name": "",
          "type": "uint256"
        }
      ],
      "stateMutability": "view",
      "type": "function"
    },
    {
      "inputs": [
        {
          "components": [
            {
              "internalType": "bytes32",
              "name": "contextDigest",
              "type": "bytes32"
            },
            {
              "internalType": "bytes32",
              "name": "nonce",
              "type": "bytes32"
            },
            {
              "internalType": "bytes32",
              "name": "minerId",
              "type": "bytes32"
            },
            {
              "components": [
                {
                  "internalType": "uint256",
                  "name": "startPosition",
                  "type": "uint256"
                },
                {
                  "internalType": "uint256",
                  "name": "mineLength",
                  "type": "uint256"
                },
                {
                  "internalType": "uint64",
                  "name": "shardId",
                  "type": "uint64"
                },
                {
                  "internalType": "uint64",
                  "name": "shardMask",
                  "type": "uint64"
                }
              ],
              "internalType": "struct RecallRange",
              "name": "range",
              "type": "tuple"
            },
            {
              "internalType": "uint256",
              "name": "recallPosition",
              "type": "uint256"
            },
            {
              "internalType": "uint256",
              "name": "sealOffset",
              "type": "uint256"
            },
            {
              "internalType": "bytes32",
              "name": "sealedContextDigest",
              "type": "bytes32"
            },
            {
              "internalType": "bytes32[128]",
              "name": "sealedData",
              "type": "bytes32[128]"
            },
            {
              "internalType": "bytes32[]",
              "name": "merkleProof",
              "type": "bytes32[]"
            }
          ],
          "internalType": "struct MineLib.PoraAnswer",
          "name": "answer",
          "type": "tuple"
        }
      ],
      "name": "pora",
      "outputs": [
        {
          "internalType": "bytes32",
          "name": "",
          "type": "bytes32"
        }
      ],
      "stateMutability": "view",
      "type": "function"
    },
    {
      "inputs": [],
      "name": "poraTarget",
      "outputs": [
        {
          "internalType": "uint256",
          "name": "",
          "type": "uint256"
        }
      ],
      "stateMutability": "view",
      "type": "function"
    },
    {
      "inputs": [],
      "name": "poraVersion",
      "outputs": [
        {
          "internalType": "uint64",
          "name": "",
          "type": "uint64"
        }
      ],
      "stateMutability": "pure",
      "type": "function"
    },
    {
      "inputs": [
        {
          "components": [
            {
              "internalType": "bytes32",
              "name": "contextDigest",
              "type": "bytes32"
            },
            {
              "internalType": "bytes32",
              "name": "nonce",
              "type": "bytes32"
            },
            {
              "internalType": "bytes32",
              "name": "minerId",
              "type": "bytes32"
            },
            {
              "components": [
                {
                  "internalType": "uint256",
                  "name": "startPosition",
                  "type": "uint256"
                },
                {
                  "internalType": "uint256",
                  "name": "mineLength",
                  "type": "uint256"
                },
                {
                  "internalType": "uint64",
                  "name": "shardId",
                  "type": "uint64"
                },
                {
                  "internalType": "uint64",
                  "name": "shardMask",
                  "type": "uint64"
                }
              ],
              "internalType": "struct RecallRange",
              "name": "range",
              "type": "tuple"
            },
            {
              "internalType": "uint256",
              "name": "recallPosition",
              "type": "uint256"
            },
            {
              "internalType": "uint256",
              "name": "sealOffset",
              "type": "uint256"
            },
            {
              "internalType": "bytes32",
              "name": "sealedContextDigest",
              "type": "bytes32"
            },
            {
              "internalType": "bytes32[128]",
              "name": "sealedData",
              "type": "bytes32[128]"
            },
            {
              "internalType": "bytes32[]",
              "name": "merkleProof",
              "type": "bytes32[]"
            }
          ],
          "internalType": "struct MineLib.PoraAnswer",
          "name": "answer",
          "type": "tuple"
        },
        {
          "internalType": "bytes32[128]",
          "name": "unsealedData",
          "type": "bytes32[128]"
        }
      ],
      "name": "recoverMerkleRoot",
      "outputs": [
        {
          "internalType": "bytes32",
          "name": "",
          "type": "bytes32"
        }
      ],
      "stateMutability": "pure",
      "type": "function"
    },
    {
      "inputs": [
        {
          "internalType": "bytes32",
          "name": "role",
          "type": "bytes32"
        },
        {
          "internalType": "address",
          "name": "account",
          "type": "address"
        }
      ],
      "name": "renounceRole",
      "outputs": [],
      "stateMutability": "nonpayable",
      "type": "function"
    },
    {
      "inputs": [
        {
          "internalType": "address",
          "name": "beneficiary",
          "type": "address"
        },
        {
          "internalType": "uint64",
          "name": "seed",
          "type": "uint64"
        }
      ],
      "name": "requestMinerId",
      "outputs": [],
      "stateMutability": "nonpayable",
      "type": "function"
    },
    {
      "inputs": [
        {
          "internalType": "bytes32",
          "name": "role",
          "type": "bytes32"
        },
        {
          "internalType": "address",
          "name": "account",
          "type": "address"
        }
      ],
      "name": "revokeRole",
      "outputs": [],
      "stateMutability": "nonpayable",
      "type": "function"
    },
    {
      "inputs": [],
      "name": "reward",
      "outputs": [
        {
          "internalType": "address",
          "name": "",
          "type": "address"
        }
      ],
      "stateMutability": "view",
      "type": "function"
    },
    {
      "inputs": [],
      "name": "sealDataEnabled",
      "outputs": [
        {
          "internalType": "bool",
          "name": "",
          "type": "bool"
        }
      ],
      "stateMutability": "view",
      "type": "function"
    },
    {
      "inputs": [
        {
          "internalType": "uint256",
          "name": "difficultyAdjustRatio_",
          "type": "uint256"
        }
      ],
      "name": "setDifficultyAdjustRatio",
      "outputs": [],
      "stateMutability": "nonpayable",
      "type": "function"
    },
    {
      "inputs": [
        {
          "internalType": "uint64",
          "name": "maxShards_",
          "type": "uint64"
        }
      ],
      "name": "setMaxShards",
      "outputs": [],
      "stateMutability": "nonpayable",
      "type": "function"
    },
    {
      "inputs": [
        {
          "internalType": "uint256",
          "name": "minDifficulty_",
          "type": "uint256"
        }
      ],
      "name": "setMinDifficulty",
      "outputs": [],
      "stateMutability": "nonpayable",
      "type": "function"
    },
    {
      "inputs": [
        {
          "internalType": "bytes32",
          "name": "minerId",
          "type": "bytes32"
        }
      ],
      "name": "setMiner",
      "outputs": [],
      "stateMutability": "nonpayable",
      "type": "function"
    },
    {
      "inputs": [
        {
          "internalType": "uint256",
          "name": "_targetQuality",
          "type": "uint256"
        }
      ],
      "name": "setQuality",
      "outputs": [],
      "stateMutability": "nonpayable",
      "type": "function"
    },
    {
      "inputs": [
        {
          "internalType": "uint256",
          "name": "targetMineBlocks_",
          "type": "uint256"
        }
      ],
      "name": "setTargetMineBlocks",
      "outputs": [],
      "stateMutability": "nonpayable",
      "type": "function"
    },
    {
      "inputs": [
        {
          "internalType": "uint256",
          "name": "targetSubmissions_",
          "type": "uint256"
        }
      ],
      "name": "setTargetSubmissions",
      "outputs": [],
      "stateMutability": "nonpayable",
      "type": "function"
    },
    {
      "inputs": [
        {
          "components": [
            {
              "internalType": "bytes32",
              "name": "contextDigest",
              "type": "bytes32"
            },
            {
              "internalType": "bytes32",
              "name": "nonce",
              "type": "bytes32"
            },
            {
              "internalType": "bytes32",
              "name": "minerId",
              "type": "bytes32"
            },
            {
              "components": [
                {
                  "internalType": "uint256",
                  "name": "startPosition",
                  "type": "uint256"
                },
                {
                  "internalType": "uint256",
                  "name": "mineLength",
                  "type": "uint256"
                },
                {
                  "internalType": "uint64",
                  "name": "shardId",
                  "type": "uint64"
                },
                {
                  "internalType": "uint64",
                  "name": "shardMask",
                  "type": "uint64"
                }
              ],
              "internalType": "struct RecallRange",
              "name": "range",
              "type": "tuple"
            },
            {
              "internalType": "uint256",
              "name": "recallPosition",
              "type": "uint256"
            },
            {
              "internalType": "uint256",
              "name": "sealOffset",
              "type": "uint256"
            },
            {
              "internalType": "bytes32",
              "name": "sealedContextDigest",
              "type": "bytes32"
            },
            {
              "internalType": "bytes32[128]",
              "name": "sealedData",
              "type": "bytes32[128]"
            },
            {
              "internalType": "bytes32[]",
              "name": "merkleProof",
              "type": "bytes32[]"
            }
          ],
          "internalType": "struct MineLib.PoraAnswer",
          "name": "answer",
          "type": "tuple"
        }
      ],
      "name": "submit",
      "outputs": [],
      "stateMutability": "nonpayable",
      "type": "function"
    },
    {
      "inputs": [
        {
          "internalType": "bytes4",
          "name": "interfaceId",
          "type": "bytes4"
        }
      ],
      "name": "supportsInterface",
      "outputs": [
        {
          "internalType": "bool",
          "name": "",
          "type": "bool"
        }
      ],
      "stateMutability": "view",
      "type": "function"
    },
    {
      "inputs": [],
      "name": "targetMineBlocks",
      "outputs": [
        {
          "internalType": "uint256",
          "name": "",
          "type": "uint256"
        }
      ],
      "stateMutability": "view",
      "type": "function"
    },
    {
      "inputs": [],
      "name": "targetSubmissions",
      "outputs": [
        {
          "internalType": "uint256",
          "name": "",
          "type": "uint256"
        }
      ],
      "stateMutability": "view",
      "type": "function"
    },
    {
      "inputs": [],
      "name": "targetSubmissionsNextEpoch",
      "outputs": [
        {
          "internalType": "uint256",
          "name": "",
          "type": "uint256"
        }
      ],
      "stateMutability": "view",
      "type": "function"
    },
    {
      "inputs": [
        {
          "components": [
            {
              "internalType": "bytes32",
              "name": "contextDigest",
              "type": "bytes32"
            },
            {
              "internalType": "bytes32",
              "name": "nonce",
              "type": "bytes32"
            },
            {
              "internalType": "bytes32",
              "name": "minerId",
              "type": "bytes32"
            },
            {
              "components": [
                {
                  "internalType": "uint256",
                  "name": "startPosition",
                  "type": "uint256"
                },
                {
                  "internalType": "uint256",
                  "name": "mineLength",
                  "type": "uint256"
                },
                {
                  "internalType": "uint64",
                  "name": "shardId",
                  "type": "uint64"
                },
                {
                  "internalType": "uint64",
                  "name": "shardMask",
                  "type": "uint64"
                }
              ],
              "internalType": "struct RecallRange",
              "name": "range",
              "type": "tuple"
            },
            {
              "internalType": "uint256",
              "name": "recallPosition",
              "type": "uint256"
            },
            {
              "internalType": "uint256",
              "name": "sealOffset",
              "type": "uint256"
            },
            {
              "internalType": "bytes32",
              "name": "sealedContextDigest",
              "type": "bytes32"
            },
            {
              "internalType": "bytes32[128]",
              "name": "sealedData",
              "type": "bytes32[128]"
            },
            {
              "internalType": "bytes32[]",
              "name": "merkleProof",
              "type": "bytes32[]"
            }
          ],
          "internalType": "struct MineLib.PoraAnswer",
          "name": "answer",
          "type": "tuple"
        }
      ],
      "name": "testAll",
      "outputs": [],
      "stateMutability": "view",
      "type": "function"
    },
    {
      "inputs": [
        {
          "internalType": "address",
          "name": "to",
          "type": "address"
        },
        {
          "internalType": "bytes32",
          "name": "minerId",
          "type": "bytes32"
        }
      ],
      "name": "transferBeneficial",
      "outputs": [],
      "stateMutability": "nonpayable",
      "type": "function"
    },
    {
      "inputs": [
        {
          "components": [
            {
              "internalType": "bytes32",
              "name": "contextDigest",
              "type": "bytes32"
            },
            {
              "internalType": "bytes32",
              "name": "nonce",
              "type": "bytes32"
            },
            {
              "internalType": "bytes32",
              "name": "minerId",
              "type": "bytes32"
            },
            {
              "components": [
                {
                  "internalType": "uint256",
                  "name": "startPosition",
                  "type": "uint256"
                },
                {
                  "internalType": "uint256",
                  "name": "mineLength",
                  "type": "uint256"
                },
                {
                  "internalType": "uint64",
                  "name": "shardId",
                  "type": "uint64"
                },
                {
                  "internalType": "uint64",
                  "name": "shardMask",
                  "type": "uint64"
                }
              ],
              "internalType": "struct RecallRange",
              "name": "range",
              "type": "tuple"
            },
            {
              "internalType": "uint256",
              "name": "recallPosition",
              "type": "uint256"
            },
            {
              "internalType": "uint256",
              "name": "sealOffset",
              "type": "uint256"
            },
            {
              "internalType": "bytes32",
              "name": "sealedContextDigest",
              "type": "bytes32"
            },
            {
              "internalType": "bytes32[128]",
              "name": "sealedData",
              "type": "bytes32[128]"
            },
            {
              "internalType": "bytes32[]",
              "name": "merkleProof",
              "type": "bytes32[]"
            }
          ],
          "internalType": "struct MineLib.PoraAnswer",
          "name": "answer",
          "type": "tuple"
        }
      ],
      "name": "unseal",
      "outputs": [
        {
          "internalType": "bytes32[128]",
          "name": "unsealedData",
          "type": "bytes32[128]"
        }
      ],
      "stateMutability": "pure",
      "type": "function"
    }
  ],
  "bytecode": "0x60e06040523480156200001157600080fd5b506040516200372b3803806200372b833981016040819052620000349162000052565b60016004909117818116156080526002161560a05260c0526200006c565b6000602082840312156200006557600080fd5b5051919050565b60805160a05160c051613673620000b86000396000818161045f01528181611292015261162e01526000818161048f0152610fc40152600081816105130152610f8701526136736000f3fe608060405234801561001057600080fd5b50600436106102745760003560e01c806382975fe711610151578063b15d20da116100c3578063ca15c87311610087578063ca15c873146105d6578063d547741f146105e9578063dddc61a8146105fc578063e1498cf914610605578063e282e27b14610618578063ffbc9bd01461061f57600080fd5b8063b15d20da1461056e578063b4988fd014610583578063b4a9328314610596578063b51e03971461059f578063b776a512146105cd57600080fd5b8063a827918211610115578063a8279182146104f2578063ad08fdfb146104fb578063adaa7a0f1461050e578063ae722e8214610535578063aed7522414610548578063b0628ee01461055b57600080fd5b806382975fe71461048a5780639010d07c146104b157806391d14854146104c4578063967e3cdd146104d7578063a217fddf146104ea57600080fd5b8063343aad82116101ea57806359e7b5be116101ae57806359e7b5be146104015780635bdca855146104215780636e9bb60b14610434578063704d3c96146104475780637bba7d611461045a5780637eca56881461048157600080fd5b8063343aad821461039657806336568abe146103a957806339cd53ee146103bc5780633baebb75146103e557806348f61441146103f857600080fd5b8063228cb7331161023c578063228cb73314610301578063248a9ca31461032c5780632a02573b1461035e5780632f2ff15d1461037157806331223ba714610384578063331f3b9c1461038d57600080fd5b806301ffc9a714610279578063047c13f5146102a1578063158ef93e146102b65780631600c624146102c357806316a4be6f146102d6575b600080fd5b61028c610287366004612df1565b610627565b60405190151581526020015b60405180910390f35b6102b46102af366004612e49565b610652565b005b60005461028c9060ff1681565b6102b46102d1366004612e7c565b61076e565b600a546102e9906001600160401b031681565b6040516001600160401b039091168152602001610298565b600454610314906001600160a01b031681565b6040516001600160a01b039091168152602001610298565b61035061033a366004612e7c565b6000908152600160208190526040909120015490565b604051908152602001610298565b6102b461036c366004612e95565b61078c565b6102b461037f366004612eb0565b610892565b610350600b5481565b61035060065481565b600354610314906001600160a01b031681565b6102b46103b7366004612eb0565b6108bd565b6103146103ca366004612e7c565b600e602052600090815260409020546001600160a01b031681565b6102b46103f3366004613150565b61093b565b610350600d5481565b61041461040f3660046131e8565b610bd2565b6040516102989190613224565b6102b461042f366004612e7c565b610be3565b610350610442366004613256565b610c10565b6102b4610455366004612e7c565b610c23565b61028c7f000000000000000000000000000000000000000000000000000000000000000081565b61035060085481565b61028c7f000000000000000000000000000000000000000000000000000000000000000081565b6103146104bf36600461329c565b610c91565b61028c6104d2366004612eb0565b610ca9565b6102b46104e53660046131e8565b610cd4565b610350600081565b610350600c5481565b6102b4610509366004612e7c565b610cff565b61028c7f000000000000000000000000000000000000000000000000000000000000000081565b6102b46105433660046131e8565b610d39565b6103506105563660046131e8565b6112c6565b6102b46105693660046132be565b6114c9565b61035060008051602061361e83398151915281565b6102b46105913660046132e8565b611589565b610350600f5481565b6102b46105ad366004612e7c565b6000908152600e6020526040902080546001600160a01b03191633179055565b61035060075481565b6103506105e4366004612e7c565b6116b0565b6102b46105f7366004612eb0565b6116c7565b61035060095481565b6102b4610613366004612e7c565b600d55565b60006102e9565b61028c6116ed565b60006001600160e01b03198216635a05180f60e01b148061064c575061064c82611788565b92915050565b600061065f60014361333a565b60408051914060208301526bffffffffffffffffffffffff193360601b16908201526001600160c01b031960c084901b166054820152605c0160408051601f1981840301815291815281516020928301206000818152600e9093529120549091506001600160a01b0316156107145760405162461bcd60e51b8152602060048201526016602482015275135a5b995c9259081a185cc81c9959da5cdd195c995960521b60448201526064015b60405180910390fd5b6000818152600e602052604080822080546001600160a01b0319166001600160a01b0387169081179091559051909183917fbfeb006f16aca8eb3d9953cf44db6b11b6f3041a313875dfa18f2e9d71bd309e9190a3505050565b60008051602061361e833981519152610786816117bd565b50600655565b60008051602061361e8339815191526107a4816117bd565b6000826001600160401b0316116107fd5760405162461bcd60e51b815260206004820152601f60248201527f4d6178207368617264206e756d6265722063616e6e6f74206265207a65726f00604482015260640161070b565b61080860018361334d565b82166001600160401b031660001461086e5760405162461bcd60e51b815260206004820152602360248201527f4d6178207368617264206e756d626572206d75737420626520706f776572206f60448201526233101960e91b606482015260840161070b565b50600a805467ffffffffffffffff19166001600160401b0392909216919091179055565b600082815260016020819052604090912001546108ae816117bd565b6108b883836117ca565b505050565b6001600160a01b038116331461092d5760405162461bcd60e51b815260206004820152602f60248201527f416363657373436f6e74726f6c3a2063616e206f6e6c792072656e6f756e636560448201526e103937b632b9903337b91039b2b63360891b606482015260840161070b565b61093782826117ec565b5050565b815160a08201511461098f5760405162461bcd60e51b815260206004820152601a60248201527f496e636f6e73697374656e74206d696e696e6720646967657374000000000000604482015260640161070b565b7fc5d2460186f7233c927e7db2dcc703c0e500b653ca82273b7bfad8045d85a4708160a0015103610a025760405162461bcd60e51b815260206004820152601960248201527f456d707479206469676573742063616e206e6f74206d696e6500000000000000604482015260640161070b565b600754600c5410610a555760405162461bcd60e51b815260206004820152601c60248201527f45706f63682068617320656e6f756768207375626d697373696f6e7300000000604482015260640161070b565b6000610100610a666104008261336d565b610a7091906133a2565b610100610a7f6104008261336d565b610a8991906133a2565b8360600151610a9891906133a2565b610aa2919061336d565b6060840151909150610ab4908261180e565b60035460c0840151604051630fab20e160e31b815260048101919091526000916001600160a01b031690637d590708906024016040805180830381865afa158015610b03573d6000803e3d6000fd5b505050506040513d601f19601f82011682018060405250810190610b2791906133cd565b90506000610100610b3b610400600461336d565b610b4591906133a2565b8560800151610b549190613427565b90508082600001516001600160801b0316108015610b7f57508082602001516001600160801b031610155b610bcb5760405162461bcd60e51b815260206004820152601d60248201527f496e76616c6964207365616c656420636f6e7465787420646967657374000000604482015260640161070b565b5050505050565b610bda612d95565b61064c82611a52565b60008051602061361e833981519152610bfb816117bd565b6008829055600b546000036109375750600755565b6000610c1c8383611b01565b9392505050565b60008051602061361e833981519152610c3b816117bd565b60008211610c8b5760405162461bcd60e51b815260206004820152601d60248201527f41646a75737420726174696f206d757374206265206e6f6e2d7a65726f000000604482015260640161070b565b50600955565b6000828152600260205260408120610c1c9083611d74565b60009182526001602090815260408084206001600160a01b0393909316845291905290205460ff1690565b6000610cdf82611a52565b9050610ceb8282611b01565b50610cf4612d95565b90506108b8826112c6565b60008051602061361e833981519152610d17816117bd565b600f8290556000610d26611d80565b905080600d5411156108b857600d555050565b6040810151610d835760405162461bcd60e51b81526020600482015260166024820152754d696e657249642063616e6e6f74206265207a65726f60501b604482015260640161070b565b6040808201516000908152600e60205220546001600160a01b031680610deb5760405162461bcd60e51b815260206004820152601b60248201527f4d696e6572496420646f6573206e6f7420726567697374657265640000000000604482015260640161070b565b60035460408051635a325a9f60e11b815290516000926001600160a01b03169163b464b53e9160048083019260c0929190829003018187875af1158015610e36573d6000803e3d6000fd5b505050506040513d601f19601f82011682018060405250810190610e5a919061343a565b9050600b5481600001511015610ec05760405162461bcd60e51b815260206004820152602560248201527f496e7465726e616c206572726f723a2065706f6368206e756d62657220646563604482015264726561736560d81b606482015260840161070b565b600b548151118015610ed457506000600b54115b15610ef957600754600c541015610eed57610eed611da7565b6000600c556008546007555b610f03838261093b565b600a5460608401516001600160401b0390911690610f2090611db9565b1115610f7d5760405162461bcd60e51b815260206004820152602660248201527f457863656564696e672074686520616c6c6f776564206e756d626572206f662060448201526573686172647360d01b606482015260840161070b565b610f85612d95565b7f000000000000000000000000000000000000000000000000000000000000000015610fbb57610fb484611a52565b9050610fc2565b5060e08301515b7f00000000000000000000000000000000000000000000000000000000000000001561104b576000610ff48583611b01565b9050826040015181146110495760405162461bcd60e51b815260206004820152601860248201527f496e636f6e73697374656e74206d65726b6c6520726f6f740000000000000000604482015260640161070b565b505b611053612d95565b90506000611060856112c6565b9050600061107f84606001518760600151611e0390919063ffffffff16565b9050604081600d5461109191906133a2565b901b8211156110e25760405162461bcd60e51b815260206004820152601b60248201527f446f206e6f7420726561636820746172676574207175616c6974790000000000604482015260640161070b565b60008281526005602052604090205460ff16156111415760405162461bcd60e51b815260206004820152601960248201527f416e7377657220686173206265656e207375626d697474656400000000000000604482015260640161070b565b6000828152600560205260409020805460ff191660011790556004546001600160a01b031663b7a3c04c61010061117a6104008061336d565b6111869061040061336d565b61119190600861336d565b61119b91906133a2565b88608001516111aa91906133a2565b6040808a015190516001600160e01b031960e085901b16815260048101929092526001600160a01b03891660248301526044820152606401600060405180830381600087803b1580156111fc57600080fd5b505af1158015611210573d6000803e3d6000fd5b5050506040808801518651600c5460808b015184519182526020820152919350917ffedd8f58059af8fd54b4394c01ea8d07cac041988be3b5a822fb779f9c8de3a4910160405180910390a38351600b55600c805460019190600090611277908490613427565b9091555050600754600c54101561129057505050505050565b7f00000000000000000000000000000000000000000000000000000000000000006112be576112be84611f43565b505050505050565b604081015160009061131a5760405162461bcd60e51b815260206004820152601860248201527f4d696e65722049442063616e6e6f7420626520656d7074790000000000000000604482015260640161070b565b600060405180608001604052808460400151815260200184602001518152602001846000015181526020016113528560600151611f7c565b90529050600061136182611fe4565b90506000611372610400604061336d565b61138061040061010061336d565b61138a91906133a2565b611397610400600461336d565b6113a561040061010061336d565b6113af91906133a2565b6113b991906133a2565b8560a001516113c891906134b3565b90506113d2612d95565b6113da612db4565b6113e98760e00151848661205c565b925090506101006113fd610400600461336d565b61140791906133a2565b8760a00151611416919061336d565b6114538260405160200161142a91906134c7565b6040516020818303038152906040528051906020012089606001516121d990919063ffffffff16565b61145d9190613427565b8760800151146114af5760405162461bcd60e51b815260206004820152601960248201527f496e636f727265637420726563616c6c20706f736974696f6e00000000000000604482015260640161070b565b6114be8760a0015185846122df565b979650505050505050565b6000818152600e60205260409020546001600160a01b0316331461152f5760405162461bcd60e51b815260206004820152601b60248201527f53656e64657220646f6573206e6f74206f776e206d696e657249640000000000604482015260640161070b565b6000818152600e602052604080822080546001600160a01b0319166001600160a01b03861690811790915590519091339184917f9a26a8e7fd42c501b452c02016def8048e3ea28c2bf15127a9b5e2029d989bf191a45050565b60005460ff16156115e85760405162461bcd60e51b8152602060048201526024808201527f5a67496e697469616c697a61626c653a20616c726561647920696e697469616c6044820152631a5e995960e21b606482015260840161070b565b6000805460ff19166001178155611605906116003390565b6117ca565b61161d60008051602061361e833981519152336117ca565b611629836000196133a2565b600d557f00000000000000000000000000000000000000000000000000000000000000001561165957600019600d555b600380546001600160a01b039384166001600160a01b03199182161790915560048054929093169116179055506064600655600a600781905560088190556014600955805467ffffffffffffffff19166020179055565b600081815260026020526040812061064c90612452565b600082815260016020819052604090912001546116e3816117bd565b6108b883836117ec565b600080600360009054906101000a90046001600160a01b03166001600160a01b031663b464b53e6040518163ffffffff1660e01b815260040160c0604051808303816000875af1158015611745573d6000803e3d6000fd5b505050506040513d601f19601f82011682018060405250810190611769919061343a565b9050600b54816000015111806117825750600754600c54105b91505090565b60006001600160e01b03198216637965db0b60e01b148061064c57506301ffc9a760e01b6001600160e01b031983161461064c565b6117c7813361245c565b50565b6117d482826124b5565b60008281526002602052604090206108b89082612520565b6117f68282612535565b60008281526002602052604090206108b8908261259c565b61010061181d6104008061336d565b6118299061040061336d565b61183490600861336d565b61183e91906133a2565b825161184a91906134b3565b156118975760405162461bcd60e51b815260206004820152601d60248201527f537461727420706f736974696f6e206973206e6f7420616c69676e6564000000604482015260640161070b565b6020820151825182916118a991613427565b11156118ef5760405162461bcd60e51b81526020600482015260156024820152744d696e696e672072616e6765206f766572666c6f7760581b604482015260640161070b565b60006118fa83611db9565b6101006119096104008061336d565b6119159061040061336d565b6119219061040061336d565b61192c90600861336d565b61193691906133a2565b611940919061336d565b9050808360200151111561198e5760405162461bcd60e51b81526020600482015260156024820152744d696e696e672072616e676520746f6f206c6f6e6760581b604482015260640161070b565b600061199a83836125b1565b905080846020015110156119e95760405162461bcd60e51b8152602060048201526016602482015275135a5b9a5b99c81c985b99d9481d1bdbc81cda1bdc9d60521b604482015260640161070b565b83606001518460400151166001600160401b0316600014611a4c5760405162461bcd60e51b815260206004820152601a60248201527f4d61736b656420626974732073686f756c64206265207a65726f000000000000604482015260640161070b565b50505050565b611a5a612d95565b60408083015160c084015160808501519251611a8a93906020019283526020830191909152604082015260600190565b60408051808303601f19018152919052805160209182012060e0840180515190911883525190600090611ac0610400600461336d565b611aca91906133a2565b905081836020600184030281015b80821015611af757602080842093810180519094189201918252611ad8565b5050505050919050565b6000805b6020611b14610400600461336d565b611b1e91906133a2565b811015611b6c576101006020820284012080848360808110611b4257611b426134ef565b602002018181525050506020610100611b5b91906133a2565b611b659082613427565b9050611b05565b506000611b7c60206101006133a2565b90505b6020611b8e610400600461336d565b611b9891906133a2565b811015611c6b5760005b6020611bb1610400600461336d565b611bbb91906133a2565b811015611c62576000848260808110611bd657611bd66134ef565b60200201519050600085611bea8585613427565b60808110611bfa57611bfa6134ef565b602002015190508181604051602001611c1d929190918252602082015260400190565b60405160208183030381529060405280519060200120868460808110611c4557611c456134ef565b602002015250611c5b9050600183901b82613427565b9050611ba2565b5060011b611b7f565b508151611c76612d95565b92506000610100611c8a610400600461336d565b611c9491906133a2565b8560800151611ca391906133a2565b905060005b85610100015151811015611d6a57600080611cc46002856134b3565b600003611cf4578491508761010001518381518110611ce557611ce56134ef565b60200260200101519050611d19565b8761010001518381518110611d0b57611d0b6134ef565b602002602001015191508490505b6040805160208101849052908101829052606001604051602081830303815290604052805190602001209450600284611d5291906133a2565b93505050600181611d639190613427565b9050611ca8565b5090949350505050565b6000610c1c83836125c7565b6000600f54600003611d93575060001990565b600f54611da2906000196133a2565b905090565b611db76001600160f01b036125f1565b565b606081015160009019815b6001600160401b03821615611df457611dde60018361334d565b9091169080611dec81613505565b915050611dc4565b600160ff9091161b9392505050565b600080610100611e156104008061336d565b611e219061040061336d565b611e2d9061040061336d565b611e3890600861336d565b611e4291906133a2565b8311611e4e5782611e8a565b610100611e5d6104008061336d565b611e699061040061336d565b611e759061040061336d565b611e8090600861336d565b611e8a91906133a2565b90506000611e9785611db9565b611ea190856133a2565b90506000610100611eb46104008061336d565b611ec09061040061336d565b611ecc9061040061336d565b611ed790600861336d565b611ee191906133a2565b8211611eed5781611f29565b610100611efc6104008061336d565b611f089061040061336d565b611f149061040061336d565b611f1f90600861336d565b611f2991906133a2565b9050611f3981604085901b6133a2565b9695505050505050565b6000816020015143611f55919061333a565b905060006010600d54901c90506000611f7182846006546126ad565b9050611a4c816125f1565b60008160000151826020015183604001518460600151604051602001611fc7949392919093845260208401929092526001600160401b03908116604084015216606082015260800190565b604051602081830303815290604052805190602001209050919050565b611fec612db4565b7f48c9bdf267e6096a3ba7ca8485ae67bb2bf894fe72f36e3cf1361d5f3af54fa581527fd182e6ad7f520e511f6c3e2b8c68059b6bbd41fbabd9831f79217e1319cde05b6020808301919091528251908301516040840151606085015161064c938593909290916080600161275c565b612064612db4565b61206c612d95565b60006120778461281b565b90506120a581604061208c610400600461336d565b61209691906133a2565b6120a0908861336d565b612837565b60005b6080811015612132576120bc826001612837565b8681608081106120ce576120ce6134ef565b60200201518251188382608081106120e8576120e86134ef565b6020020152866001820160808110612102576121026134ef565b6020020151826001602002015118838260010160808110612125576121256134ef565b60200201526002016120a8565b506121c5816040612146610400600461336d565b61215091906133a2565b600188612160610400604061336d565b61216e61040061010061336d565b61217891906133a2565b612185610400600461336d565b61219361040061010061336d565b61219d91906133a2565b6121a791906133a2565b6121b1919061333a565b6121bb919061333a565b6120a0919061336d565b6121ce8161281b565b925050935093915050565b6000806101006121eb6104008261336d565b6121f591906133a2565b846020015161220491906133a2565b61220e90846134b3565b604085015160608601516020870151929350831617906101006122336104008261336d565b61223d91906133a2565b612250906001600160401b03841661336d565b111561229e5760405162461bcd60e51b815260206004820152601c60248201527f526563616c6c20706f736974696f6e206f7574206f6620626f756e6400000000604482015260640161070b565b6101006122ad6104008261336d565b6122b791906133a2565b6122ca906001600160401b03831661336d565b85516122d69190613427565b95945050505050565b60006122e9612db4565b7f48c9bdf267e6096a3ba7ca8485ae67bb2bf894fe72f36e3cf1361d5f3af54fa581527fd182e6ad7f520e511f6c3e2b8c68059b6bbd41fbabd9831f79217e1319cde05b60208083019190915284519085015161234f918391889190600060808161275c565b9050612359612dd2565b60806000602061236c610400600461336d565b61237691906133a2565b61238190602061336d565b61238c906080613427565b9050601c8301601f8401602085016060860160e0870160e1880160f089018c600c87538b51865260208c015160208701525b888a10156124265760808a01995060ff8a1684538960081c835380518552602081015160208601526040810151604086015260608101516060860152608081019050888a0361240c57600182535b60408660d58a6009600019fa61242157600080fd5b6123be565b505050505050505082600160088110612441576124416134ef565b602002015198975050505050505050565b600061064c825490565b6124668282610ca9565b61093757612473816128fd565b61247e83602061290f565b60405160200161248f929190613548565b60408051601f198184030181529082905262461bcd60e51b825261070b916004016135bd565b6124bf8282610ca9565b6109375760008281526001602081815260408084206001600160a01b0386168086529252808420805460ff19169093179092559051339285917f2f8788117e7eff1d82e926ec794901d17c78024a50270940304540a733656f0d9190a45050565b6000610c1c836001600160a01b038416612aaa565b61253f8282610ca9565b156109375760008281526001602090815260408083206001600160a01b0385168085529252808320805460ff1916905551339285917ff6391f5c32d9c69d2a47ea670b442974b53935d1edc7fd64eb21e047a839171b9190a45050565b6000610c1c836001600160a01b038416612af9565b60008183106125c05781610c1c565b5090919050565b60008260000182815481106125de576125de6134ef565b9060005260206000200154905092915050565b600d5460095460109190911c906000818461260d60018361333a565b612617908661336d565b6126219190613427565b61262b91906133a2565b905061263883600261336d565b81111561264d5761264a83600261336d565b90505b6126586002846133a2565b81101561266d5761266a6002846133a2565b90505b6001600160f01b0381111561268657506001600160f01b035b601081901b600d556000612698611d80565b905080600d541115610bcb57600d5550505050565b60008080600019858709858702925082811083820303915050806000036126e7578382816126dd576126dd61338c565b0492505050610c1c565b8084116126f357600080fd5b60008486880960026001871981018816978890046003810283188082028403028082028403028082028403028082028403028082028403029081029092039091026000889003889004909101858311909403939093029303949094049190911702949350505050565b612764612db4565b600c600061277185612bf3565b8a516020808d0151835184830151604080516001600160e01b031960e08b901b168187015260248101969096526044860193909352606485018f9052608485018e905260a485018d905260c485018c90526001600160c01b031991821660e48601521660ec84015287151560f81b60f4840152805160d58185038101825260f5909401825293945091869184016009600019fa61280d57600080fd5b505050979650505050505050565b612823612db4565b815181526020918201519181019190915290565b61283f612dd2565b7f48c9bdf267e6096a3ba7ca8485ae67bb2bf894fe72f36e3cf1361d5f3af54fa56020808301919091527fd182e6ad7f520e511f6c3e2b8c68059b6bbd41fbabd9831f79217e1319cde05b6040830152835160608301908152908401516080830152601c820190600c601f840153604060e0840153600160f084015360005b848110156128e35760408260d5856009600019fa6128db57600080fd5b6001016128be565b505050606081015183526080015160209092019190915250565b606061064c6001600160a01b03831660145b6060600061291e83600261336d565b612929906002613427565b6001600160401b0381111561294057612940612ed3565b6040519080825280601f01601f19166020018201604052801561296a576020820181803683370190505b509050600360fc1b81600081518110612985576129856134ef565b60200101906001600160f81b031916908160001a905350600f60fb1b816001815181106129b4576129b46134ef565b60200101906001600160f81b031916908160001a90535060006129d884600261336d565b6129e3906001613427565b90505b6001811115612a5b576f181899199a1a9b1b9c1cb0b131b232b360811b85600f1660108110612a1757612a176134ef565b1a60f81b828281518110612a2d57612a2d6134ef565b60200101906001600160f81b031916908160001a90535060049490941c93612a54816135f0565b90506129e6565b508315610c1c5760405162461bcd60e51b815260206004820181905260248201527f537472696e67733a20686578206c656e67746820696e73756666696369656e74604482015260640161070b565b6000818152600183016020526040812054612af15750815460018181018455600084815260208082209093018490558454848252828601909352604090209190915561064c565b50600061064c565b60008181526001830160205260408120548015612be2576000612b1d60018361333a565b8554909150600090612b319060019061333a565b9050818114612b96576000866000018281548110612b5157612b516134ef565b9060005260206000200154905080876000018481548110612b7457612b746134ef565b6000918252602080832090910192909255918252600188019052604090208390555b8554869080612ba757612ba7613607565b60019003818190600052602060002001600090559055856001016000868152602001908152602001600020600090556001935050505061064c565b600091505061064c565b5092915050565b612bfb612db4565b62010000821015612c3f57600882811c66ffffffffffffff169083901b67ffffffffffffff00161760f01b5b6001600160c01b031916815260006020820152919050565b640100000000821015612c7f57600882811b63ff00ff001662ff00ff9184901c9190911617601081811b91901c1760e01b6001600160e01b031916612c27565b68010000000000000000821015612c9957612c2782612d2f565b600160801b821015612ce9576001600160401b038216604083901c612cbd82612d2f565b6001600160c01b0319168352612cd281612d2f565b6001600160c01b031916602084015250612d2a9050565b60405162461bcd60e51b8152602060048201526016602482015275626c616b65326220696e70757420746f6f206c6f6e6760501b604482015260640161070b565b919050565b65ff000000ff00600882811b91821664ff000000ff9390911c92831617601090811b67ff000000ff0000009290921666ff000000ff0000939093169290921790911c17602081811b6bffffffffffffffff000000001691901c63ffffffff161760c01b90565b6040518061100001604052806080906020820280368337509192915050565b60405180604001604052806002906020820280368337509192915050565b6040518061010001604052806008906020820280368337509192915050565b600060208284031215612e0357600080fd5b81356001600160e01b031981168114610c1c57600080fd5b80356001600160a01b0381168114612d2a57600080fd5b80356001600160401b0381168114612d2a57600080fd5b60008060408385031215612e5c57600080fd5b612e6583612e1b565b9150612e7360208401612e32565b90509250929050565b600060208284031215612e8e57600080fd5b5035919050565b600060208284031215612ea757600080fd5b610c1c82612e32565b60008060408385031215612ec357600080fd5b82359150612e7360208401612e1b565b634e487b7160e01b600052604160045260246000fd5b60405161012081016001600160401b0381118282101715612f0c57612f0c612ed3565b60405290565b60405160c081016001600160401b0381118282101715612f0c57612f0c612ed3565b600060808284031215612f4657600080fd5b604051608081018181106001600160401b0382111715612f6857612f68612ed3565b80604052508091508235815260208301356020820152612f8a60408401612e32565b6040820152612f9b60608401612e32565b60608201525092915050565b600082601f830112612fb857600080fd5b6040516110008082018281106001600160401b0382111715612fdc57612fdc612ed3565b60405283018185821115612fef57600080fd5b845b82811015613009578035825260209182019101612ff1565b509195945050505050565b600082601f83011261302557600080fd5b813560206001600160401b038083111561304157613041612ed3565b8260051b604051601f19603f8301168101818110848211171561306657613066612ed3565b60405293845285810183019383810192508785111561308457600080fd5b83870191505b848210156114be5781358352918301919083019061308a565b600061116082840312156130b657600080fd5b6130be612ee9565b90508135815260208201356020820152604082013560408201526130e58360608401612f34565b606082015260e082013560808201526101008083013560a083015261012083013560c0830152613119846101408501612fa7565b60e08301526111408301356001600160401b0381111561313857600080fd5b61314485828601613014565b82840152505092915050565b60008082840360e081121561316457600080fd5b83356001600160401b0381111561317a57600080fd5b613186868287016130a3565b93505060c0601f198201121561319b57600080fd5b506131a4612f12565b6020840135815260408401356020820152606084013560408201526080840135606082015260a0840135608082015260c084013560a0820152809150509250929050565b6000602082840312156131fa57600080fd5b81356001600160401b0381111561321057600080fd5b61321c848285016130a3565b949350505050565b6110008101818360005b608081101561324d57815183526020928301929091019060010161322e565b50505092915050565b600080611020838503121561326a57600080fd5b82356001600160401b0381111561328057600080fd5b61328c858286016130a3565b925050612e738460208501612fa7565b600080604083850312156132af57600080fd5b50508035926020909101359150565b600080604083850312156132d157600080fd5b6132da83612e1b565b946020939093013593505050565b6000806000606084860312156132fd57600080fd5b8335925061330d60208501612e1b565b915061331b60408501612e1b565b90509250925092565b634e487b7160e01b600052601160045260246000fd5b8181038181111561064c5761064c613324565b6001600160401b03828116828216039080821115612bec57612bec613324565b600081600019048311821515161561338757613387613324565b500290565b634e487b7160e01b600052601260045260246000fd5b6000826133b1576133b161338c565b500490565b80516001600160801b0381168114612d2a57600080fd5b6000604082840312156133df57600080fd5b604051604081018181106001600160401b038211171561340157613401612ed3565b60405261340d836133b6565b815261341b602084016133b6565b60208201529392505050565b8082018082111561064c5761064c613324565b600060c0828403121561344c57600080fd5b60405160c081018181106001600160401b038211171561346e5761346e612ed3565b8060405250825181526020830151602082015260408301516040820152606083015160608201526080830151608082015260a083015160a08201528091505092915050565b6000826134c2576134c261338c565b500690565b60408101818360005b600281101561324d5781518352602092830192909101906001016134d0565b634e487b7160e01b600052603260045260246000fd5b600060ff821660ff810361351b5761351b613324565b60010192915050565b60005b8381101561353f578181015183820152602001613527565b50506000910152565b7f416363657373436f6e74726f6c3a206163636f756e7420000000000000000000815260008351613580816017850160208801613524565b7001034b99036b4b9b9b4b733903937b6329607d1b60179184019182015283516135b1816028840160208801613524565b01602801949350505050565b60208152600082518060208401526135dc816040850160208701613524565b601f01601f19169190910160400192915050565b6000816135ff576135ff613324565b506000190190565b634e487b7160e01b600052603160045260246000fdfeb9d69e0ca90be54a40811e436234a7f7908b87ff2bec27e64f878b166da8e8e5a2646970667358221220021cc427c610aecb46d049b2bbcc9cafe9f75718fbab76c75a48833c027d06e664736f6c63430008100033",
  "linkReferences": {},
  "deployedLinkReferences": {}
}